{
	"contracts/Basics101.sol": {
		"Basics101": {
			"abi": [
				{
					"inputs": [
						{
							"internalType": "string",
							"name": "",
							"type": "string"
						}
					],
					"name": "accountNameMap",
					"outputs": [
						{
							"internalType": "string",
							"name": "",
							"type": "string"
						}
					],
					"stateMutability": "view",
					"type": "function"
				},
				{
					"inputs": [],
					"name": "blockTime",
					"outputs": [
						{
							"internalType": "uint256",
							"name": "",
							"type": "uint256"
						}
					],
					"stateMutability": "view",
					"type": "function"
				},
				{
					"inputs": [],
					"name": "defaultTrustLevel",
					"outputs": [
						{
							"internalType": "enum Basics101.coinRanking",
							"name": "",
							"type": "uint8"
						}
					],
					"stateMutability": "view",
					"type": "function"
				},
				{
					"inputs": [],
					"name": "myBalance",
					"outputs": [
						{
							"internalType": "uint256",
							"name": "",
							"type": "uint256"
						}
					],
					"stateMutability": "view",
					"type": "function"
				},
				{
					"inputs": [],
					"name": "sender",
					"outputs": [
						{
							"internalType": "address",
							"name": "",
							"type": "address"
						}
					],
					"stateMutability": "view",
					"type": "function"
				},
				{
					"inputs": [],
					"name": "timeNowOneDay",
					"outputs": [
						{
							"internalType": "uint256",
							"name": "",
							"type": "uint256"
						}
					],
					"stateMutability": "view",
					"type": "function"
				},
				{
					"inputs": [
						{
							"internalType": "uint256",
							"name": "",
							"type": "uint256"
						}
					],
					"name": "tokenNames",
					"outputs": [
						{
							"internalType": "string",
							"name": "",
							"type": "string"
						}
					],
					"stateMutability": "view",
					"type": "function"
				},
				{
					"inputs": [
						{
							"internalType": "uint256",
							"name": "",
							"type": "uint256"
						}
					],
					"name": "users",
					"outputs": [
						{
							"internalType": "address",
							"name": "userAddress",
							"type": "address"
						},
						{
							"internalType": "string",
							"name": "name",
							"type": "string"
						},
						{
							"internalType": "bool",
							"name": "hasTraded",
							"type": "bool"
						}
					],
					"stateMutability": "view",
					"type": "function"
				}
			],
			"devdoc": {
				"kind": "dev",
				"methods": {},
				"version": 1
			},
			"evm": {
				"assembly": "    /* \"contracts/Basics101.sol\":67:1649  contract Basics101 {... */\n  mstore(0x40, 0x80)\n    /* \"contracts/Basics101.sol\":162:164  50 */\n  0x32\n    /* \"contracts/Basics101.sol\":138:164  uint public myBalance = 50 */\n  0x00\n  sstore\n    /* \"contracts/Basics101.sol\":252:254  -2 */\n  0xfffffffffffffffffffffffffffffffffffffffffffffffffffffffffffffffe\n    /* \"contracts/Basics101.sol\":220:254  int private transactionAmount = -2 */\n  0x01\n  sstore\n    /* \"contracts/Basics101.sol\":329:367  string internal coinName = \"Epic Coin\" */\n  mload(0x40)\n  dup1\n  0x40\n  add\n  0x40\n  mstore\n  dup1\n  0x09\n  dup2\n  mstore\n  0x20\n  add\n  0x4570696320436f696e0000000000000000000000000000000000000000000000\n  dup2\n  mstore\n  pop\n  0x02\n  swap1\n  dup2\n  tag_1\n  swap2\n  swap1\n  tag_2\n  jump\t// in\ntag_1:\n  pop\n    /* \"contracts/Basics101.sol\":458:462  true */\n  0x01\n    /* \"contracts/Basics101.sol\":443:462  bool isValid = true */\n  0x03\n  exp(0x0100, 0x00)\n  dup2\n  sload\n  dup2\n  0xff\n  mul\n  not\n  and\n  swap1\n  dup4\n  iszero\n  iszero\n  mul\n  or\n  swap1\n  sstore\n  pop\n    /* \"contracts/Basics101.sol\":517:532  block.timestamp */\n  timestamp\n    /* \"contracts/Basics101.sol\":493:532  uint public blockTime = block.timestamp */\n  0x04\n  sstore\n    /* \"contracts/Basics101.sol\":562:572  msg.sender */\n  caller\n    /* \"contracts/Basics101.sol\":538:572  address public sender = msg.sender */\n  0x05\n  exp(0x0100, 0x00)\n  dup2\n  sload\n  dup2\n  0xffffffffffffffffffffffffffffffffffffffff\n  mul\n  not\n  and\n  swap1\n  dup4\n  0xffffffffffffffffffffffffffffffffffffffff\n  and\n  mul\n  or\n  swap1\n  sstore\n  pop\n    /* \"contracts/Basics101.sol\":593:657  string[] public tokenNames = [\"Ethereum\", \"Solana\", \"Chainlink\"] */\n  mload(0x40)\n  dup1\n  0x60\n  add\n  0x40\n  mstore\n  dup1\n  mload(0x40)\n  dup1\n  0x40\n  add\n  0x40\n  mstore\n  dup1\n  0x08\n  dup2\n  mstore\n  0x20\n  add\n  0x457468657265756d000000000000000000000000000000000000000000000000\n  dup2\n  mstore\n  pop\n  dup2\n  mstore\n  0x20\n  add\n  mload(0x40)\n  dup1\n  0x40\n  add\n  0x40\n  mstore\n  dup1\n  0x06\n  dup2\n  mstore\n  0x20\n  add\n  0x536f6c616e610000000000000000000000000000000000000000000000000000\n  dup2\n  mstore\n  pop\n  dup2\n  mstore\n  0x20\n  add\n  mload(0x40)\n  dup1\n  0x40\n  add\n  0x40\n  mstore\n  dup1\n  0x09\n  dup2\n  mstore\n  0x20\n  add\n  0x436861696e6c696e6b0000000000000000000000000000000000000000000000\n  dup2\n  mstore\n  pop\n  dup2\n  mstore\n  pop\n  0x06\n  swap1\n  0x03\n  tag_3\n  swap3\n  swap2\n  swap1\n  tag_4\n  jump\t// in\ntag_3:\n  pop\n    /* \"contracts/Basics101.sol\":663:695  uint[5] levels = [0, 1, 2, 3, 4] */\n  mload(0x40)\n  dup1\n  0xa0\n  add\n  0x40\n  mstore\n  dup1\n    /* \"contracts/Basics101.sol\":681:682  0 */\n  0x00\n    /* \"contracts/Basics101.sol\":663:695  uint[5] levels = [0, 1, 2, 3, 4] */\n  0xff\n  and\n  dup2\n  mstore\n  0x20\n  add\n    /* \"contracts/Basics101.sol\":684:685  1 */\n  0x01\n    /* \"contracts/Basics101.sol\":663:695  uint[5] levels = [0, 1, 2, 3, 4] */\n  0xff\n  and\n  dup2\n  mstore\n  0x20\n  add\n    /* \"contracts/Basics101.sol\":687:688  2 */\n  0x02\n    /* \"contracts/Basics101.sol\":663:695  uint[5] levels = [0, 1, 2, 3, 4] */\n  0xff\n  and\n  dup2\n  mstore\n  0x20\n  add\n    /* \"contracts/Basics101.sol\":690:691  3 */\n  0x03\n    /* \"contracts/Basics101.sol\":663:695  uint[5] levels = [0, 1, 2, 3, 4] */\n  0xff\n  and\n  dup2\n  mstore\n  0x20\n  add\n    /* \"contracts/Basics101.sol\":693:694  4 */\n  0x04\n    /* \"contracts/Basics101.sol\":663:695  uint[5] levels = [0, 1, 2, 3, 4] */\n  0xff\n  and\n  dup2\n  mstore\n  pop\n  0x07\n  swap1\n  0x05\n  tag_5\n  swap3\n  swap2\n  swap1\n  tag_6\n  jump\t// in\ntag_5:\n  pop\n    /* \"contracts/Basics101.sol\":742:751  1 seconds */\n  0x01\n    /* \"contracts/Basics101.sol\":718:751  uint timeNowOneSecond = 1 seconds */\n  0x0c\n  sstore\n    /* \"contracts/Basics101.sol\":781:790  1 minutes */\n  0x3c\n    /* \"contracts/Basics101.sol\":757:790  uint timeNowOneMinute = 1 minutes */\n  0x0d\n  sstore\n    /* \"contracts/Basics101.sol\":818:825  1 hours */\n  0x0e10\n    /* \"contracts/Basics101.sol\":796:825  uint timeNowOneHour = 1 hours */\n  0x0e\n  sstore\n    /* \"contracts/Basics101.sol\":859:865  1 days */\n  0x015180\n    /* \"contracts/Basics101.sol\":831:865  uint public timeNowOneDay = 1 days */\n  0x0f\n  sstore\n    /* \"contracts/Basics101.sol\":893:900  1 weeks */\n  0x093a80\n    /* \"contracts/Basics101.sol\":871:900  uint timeNowOneWeek = 1 weeks */\n  0x10\n  sstore\n    /* \"contracts/Basics101.sol\":1627:1646  coinRanking.CAUTION */\n  0x01\n    /* \"contracts/Basics101.sol\":1588:1646  coinRanking public defaultTrustLevel = coinRanking.CAUTION */\n  0x14\n  exp(0x0100, 0x01)\n  dup2\n  sload\n  dup2\n  0xff\n  mul\n  not\n  and\n  swap1\n  dup4\n  0x02\n  dup2\n  gt\n  iszero\n  tag_7\n  jumpi\n  tag_8\n  tag_9\n  jump\t// in\ntag_8:\ntag_7:\n  mul\n  or\n  swap1\n  sstore\n  pop\n    /* \"contracts/Basics101.sol\":67:1649  contract Basics101 {... */\n  callvalue\n  dup1\n  iszero\n  tag_10\n  jumpi\n  revert(0x00, 0x00)\ntag_10:\n  pop\n  jump(tag_11)\ntag_4:\n  dup3\n  dup1\n  sload\n  dup3\n  dup3\n  sstore\n  swap1\n  0x00\n  mstore\n  keccak256(0x00, 0x20)\n  swap1\n  dup2\n  add\n  swap3\n  dup3\n  iszero\n  tag_12\n  jumpi\n  swap2\n  0x20\n  mul\n  dup3\n  add\ntag_13:\n  dup3\n  dup2\n  gt\n  iszero\n  tag_14\n  jumpi\n  dup3\n  mload\n  dup3\n  swap1\n  dup2\n  tag_15\n  swap2\n  swap1\n  tag_2\n  jump\t// in\ntag_15:\n  pop\n  swap2\n  0x20\n  add\n  swap2\n  swap1\n  0x01\n  add\n  swap1\n  jump(tag_13)\ntag_14:\ntag_12:\n  pop\n  swap1\n  pop\n  tag_16\n  swap2\n  swap1\n  tag_17\n  jump\t// in\ntag_16:\n  pop\n  swap1\n  jump\t// out\ntag_6:\n  dup3\n  0x05\n  dup2\n  add\n  swap3\n  dup3\n  iszero\n  tag_18\n  jumpi\n  swap2\n  0x20\n  mul\n  dup3\n  add\ntag_19:\n  dup3\n  dup2\n  gt\n  iszero\n  tag_20\n  jumpi\n  dup3\n  mload\n  dup3\n  swap1\n  0xff\n  and\n  swap1\n  sstore\n  swap2\n  0x20\n  add\n  swap2\n  swap1\n  0x01\n  add\n  swap1\n  jump(tag_19)\ntag_20:\ntag_18:\n  pop\n  swap1\n  pop\n  tag_21\n  swap2\n  swap1\n  tag_22\n  jump\t// in\ntag_21:\n  pop\n  swap1\n  jump\t// out\ntag_17:\ntag_23:\n  dup1\n  dup3\n  gt\n  iszero\n  tag_24\n  jumpi\n  0x00\n  dup2\n  dup2\n  tag_25\n  swap2\n  swap1\n  tag_26\n  jump\t// in\ntag_25:\n  pop\n  0x01\n  add\n  jump(tag_23)\ntag_24:\n  pop\n  swap1\n  jump\t// out\ntag_22:\ntag_27:\n  dup1\n  dup3\n  gt\n  iszero\n  tag_28\n  jumpi\n  0x00\n  dup2\n  0x00\n  swap1\n  sstore\n  pop\n  0x01\n  add\n  jump(tag_27)\ntag_28:\n  pop\n  swap1\n  jump\t// out\ntag_26:\n  pop\n  dup1\n  sload\n  tag_29\n  swap1\n  tag_30\n  jump\t// in\ntag_29:\n  0x00\n  dup3\n  sstore\n  dup1\n  0x1f\n  lt\n  tag_32\n  jumpi\n  pop\n  jump(tag_31)\ntag_32:\n  0x1f\n  add\n  0x20\n  swap1\n  div\n  swap1\n  0x00\n  mstore\n  keccak256(0x00, 0x20)\n  swap1\n  dup2\n  add\n  swap1\n  tag_33\n  swap2\n  swap1\n  tag_22\n  jump\t// in\ntag_33:\ntag_31:\n  pop\n  jump\t// out\n    /* \"#utility.yul\":7:106   */\ntag_34:\n    /* \"#utility.yul\":59:65   */\n  0x00\n    /* \"#utility.yul\":93:98   */\n  dup2\n    /* \"#utility.yul\":87:99   */\n  mload\n    /* \"#utility.yul\":77:99   */\n  swap1\n  pop\n    /* \"#utility.yul\":7:106   */\n  swap2\n  swap1\n  pop\n  jump\t// out\n    /* \"#utility.yul\":112:292   */\ntag_35:\n    /* \"#utility.yul\":160:237   */\n  0x4e487b7100000000000000000000000000000000000000000000000000000000\n    /* \"#utility.yul\":157:158   */\n  0x00\n    /* \"#utility.yul\":150:238   */\n  mstore\n    /* \"#utility.yul\":257:261   */\n  0x41\n    /* \"#utility.yul\":254:255   */\n  0x04\n    /* \"#utility.yul\":247:262   */\n  mstore\n    /* \"#utility.yul\":281:285   */\n  0x24\n    /* \"#utility.yul\":278:279   */\n  0x00\n    /* \"#utility.yul\":271:286   */\n  revert\n    /* \"#utility.yul\":298:478   */\ntag_36:\n    /* \"#utility.yul\":346:423   */\n  0x4e487b7100000000000000000000000000000000000000000000000000000000\n    /* \"#utility.yul\":343:344   */\n  0x00\n    /* \"#utility.yul\":336:424   */\n  mstore\n    /* \"#utility.yul\":443:447   */\n  0x22\n    /* \"#utility.yul\":440:441   */\n  0x04\n    /* \"#utility.yul\":433:448   */\n  mstore\n    /* \"#utility.yul\":467:471   */\n  0x24\n    /* \"#utility.yul\":464:465   */\n  0x00\n    /* \"#utility.yul\":457:472   */\n  revert\n    /* \"#utility.yul\":484:804   */\ntag_30:\n    /* \"#utility.yul\":528:534   */\n  0x00\n    /* \"#utility.yul\":565:566   */\n  0x02\n    /* \"#utility.yul\":559:563   */\n  dup3\n    /* \"#utility.yul\":555:567   */\n  div\n    /* \"#utility.yul\":545:567   */\n  swap1\n  pop\n    /* \"#utility.yul\":612:613   */\n  0x01\n    /* \"#utility.yul\":606:610   */\n  dup3\n    /* \"#utility.yul\":602:614   */\n  and\n    /* \"#utility.yul\":633:651   */\n  dup1\n    /* \"#utility.yul\":623:704   */\n  tag_58\n  jumpi\n    /* \"#utility.yul\":689:693   */\n  0x7f\n    /* \"#utility.yul\":681:687   */\n  dup3\n    /* \"#utility.yul\":677:694   */\n  and\n    /* \"#utility.yul\":667:694   */\n  swap2\n  pop\n    /* \"#utility.yul\":623:704   */\ntag_58:\n    /* \"#utility.yul\":751:753   */\n  0x20\n    /* \"#utility.yul\":743:749   */\n  dup3\n    /* \"#utility.yul\":740:754   */\n  lt\n    /* \"#utility.yul\":720:738   */\n  dup2\n    /* \"#utility.yul\":717:755   */\n  sub\n    /* \"#utility.yul\":714:798   */\n  tag_59\n  jumpi\n    /* \"#utility.yul\":770:788   */\n  tag_60\n  tag_36\n  jump\t// in\ntag_60:\n    /* \"#utility.yul\":714:798   */\ntag_59:\n    /* \"#utility.yul\":535:804   */\n  pop\n    /* \"#utility.yul\":484:804   */\n  swap2\n  swap1\n  pop\n  jump\t// out\n    /* \"#utility.yul\":810:951   */\ntag_37:\n    /* \"#utility.yul\":859:863   */\n  0x00\n    /* \"#utility.yul\":882:885   */\n  dup2\n    /* \"#utility.yul\":874:885   */\n  swap1\n  pop\n    /* \"#utility.yul\":905:908   */\n  dup2\n    /* \"#utility.yul\":902:903   */\n  0x00\n    /* \"#utility.yul\":895:909   */\n  mstore\n    /* \"#utility.yul\":939:943   */\n  0x20\n    /* \"#utility.yul\":936:937   */\n  0x00\n    /* \"#utility.yul\":926:944   */\n  keccak256\n    /* \"#utility.yul\":918:944   */\n  swap1\n  pop\n    /* \"#utility.yul\":810:951   */\n  swap2\n  swap1\n  pop\n  jump\t// out\n    /* \"#utility.yul\":957:1050   */\ntag_38:\n    /* \"#utility.yul\":994:1000   */\n  0x00\n    /* \"#utility.yul\":1041:1043   */\n  0x20\n    /* \"#utility.yul\":1036:1038   */\n  0x1f\n    /* \"#utility.yul\":1029:1034   */\n  dup4\n    /* \"#utility.yul\":1025:1039   */\n  add\n    /* \"#utility.yul\":1021:1044   */\n  div\n    /* \"#utility.yul\":1011:1044   */\n  swap1\n  pop\n    /* \"#utility.yul\":957:1050   */\n  swap2\n  swap1\n  pop\n  jump\t// out\n    /* \"#utility.yul\":1056:1163   */\ntag_39:\n    /* \"#utility.yul\":1100:1108   */\n  0x00\n    /* \"#utility.yul\":1150:1155   */\n  dup3\n    /* \"#utility.yul\":1144:1148   */\n  dup3\n    /* \"#utility.yul\":1140:1156   */\n  shl\n    /* \"#utility.yul\":1119:1156   */\n  swap1\n  pop\n    /* \"#utility.yul\":1056:1163   */\n  swap3\n  swap2\n  pop\n  pop\n  jump\t// out\n    /* \"#utility.yul\":1169:1562   */\ntag_40:\n    /* \"#utility.yul\":1238:1244   */\n  0x00\n    /* \"#utility.yul\":1288:1289   */\n  0x08\n    /* \"#utility.yul\":1276:1286   */\n  dup4\n    /* \"#utility.yul\":1272:1290   */\n  mul\n    /* \"#utility.yul\":1311:1408   */\n  tag_65\n    /* \"#utility.yul\":1341:1407   */\n  0xffffffffffffffffffffffffffffffffffffffffffffffffffffffffffffffff\n    /* \"#utility.yul\":1330:1339   */\n  dup3\n    /* \"#utility.yul\":1311:1408   */\n  tag_39\n  jump\t// in\ntag_65:\n    /* \"#utility.yul\":1429:1468   */\n  tag_66\n    /* \"#utility.yul\":1459:1467   */\n  dup7\n    /* \"#utility.yul\":1448:1457   */\n  dup4\n    /* \"#utility.yul\":1429:1468   */\n  tag_39\n  jump\t// in\ntag_66:\n    /* \"#utility.yul\":1417:1468   */\n  swap6\n  pop\n    /* \"#utility.yul\":1501:1505   */\n  dup1\n    /* \"#utility.yul\":1497:1506   */\n  not\n    /* \"#utility.yul\":1490:1495   */\n  dup5\n    /* \"#utility.yul\":1486:1507   */\n  and\n    /* \"#utility.yul\":1477:1507   */\n  swap4\n  pop\n    /* \"#utility.yul\":1550:1554   */\n  dup1\n    /* \"#utility.yul\":1540:1548   */\n  dup7\n    /* \"#utility.yul\":1536:1555   */\n  and\n    /* \"#utility.yul\":1529:1534   */\n  dup5\n    /* \"#utility.yul\":1526:1556   */\n  or\n    /* \"#utility.yul\":1516:1556   */\n  swap3\n  pop\n    /* \"#utility.yul\":1245:1562   */\n  pop\n  pop\n    /* \"#utility.yul\":1169:1562   */\n  swap4\n  swap3\n  pop\n  pop\n  pop\n  jump\t// out\n    /* \"#utility.yul\":1568:1645   */\ntag_41:\n    /* \"#utility.yul\":1605:1612   */\n  0x00\n    /* \"#utility.yul\":1634:1639   */\n  dup2\n    /* \"#utility.yul\":1623:1639   */\n  swap1\n  pop\n    /* \"#utility.yul\":1568:1645   */\n  swap2\n  swap1\n  pop\n  jump\t// out\n    /* \"#utility.yul\":1651:1711   */\ntag_42:\n    /* \"#utility.yul\":1679:1682   */\n  0x00\n    /* \"#utility.yul\":1700:1705   */\n  dup2\n    /* \"#utility.yul\":1693:1705   */\n  swap1\n  pop\n    /* \"#utility.yul\":1651:1711   */\n  swap2\n  swap1\n  pop\n  jump\t// out\n    /* \"#utility.yul\":1717:1859   */\ntag_43:\n    /* \"#utility.yul\":1767:1776   */\n  0x00\n    /* \"#utility.yul\":1800:1853   */\n  tag_70\n    /* \"#utility.yul\":1818:1852   */\n  tag_71\n    /* \"#utility.yul\":1827:1851   */\n  tag_72\n    /* \"#utility.yul\":1845:1850   */\n  dup5\n    /* \"#utility.yul\":1827:1851   */\n  tag_41\n  jump\t// in\ntag_72:\n    /* \"#utility.yul\":1818:1852   */\n  tag_42\n  jump\t// in\ntag_71:\n    /* \"#utility.yul\":1800:1853   */\n  tag_41\n  jump\t// in\ntag_70:\n    /* \"#utility.yul\":1787:1853   */\n  swap1\n  pop\n    /* \"#utility.yul\":1717:1859   */\n  swap2\n  swap1\n  pop\n  jump\t// out\n    /* \"#utility.yul\":1865:1940   */\ntag_44:\n    /* \"#utility.yul\":1908:1911   */\n  0x00\n    /* \"#utility.yul\":1929:1934   */\n  dup2\n    /* \"#utility.yul\":1922:1934   */\n  swap1\n  pop\n    /* \"#utility.yul\":1865:1940   */\n  swap2\n  swap1\n  pop\n  jump\t// out\n    /* \"#utility.yul\":1946:2215   */\ntag_45:\n    /* \"#utility.yul\":2056:2095   */\n  tag_75\n    /* \"#utility.yul\":2087:2094   */\n  dup4\n    /* \"#utility.yul\":2056:2095   */\n  tag_43\n  jump\t// in\ntag_75:\n    /* \"#utility.yul\":2117:2208   */\n  tag_76\n    /* \"#utility.yul\":2166:2207   */\n  tag_77\n    /* \"#utility.yul\":2190:2206   */\n  dup3\n    /* \"#utility.yul\":2166:2207   */\n  tag_44\n  jump\t// in\ntag_77:\n    /* \"#utility.yul\":2158:2164   */\n  dup5\n    /* \"#utility.yul\":2151:2155   */\n  dup5\n    /* \"#utility.yul\":2145:2156   */\n  sload\n    /* \"#utility.yul\":2117:2208   */\n  tag_40\n  jump\t// in\ntag_76:\n    /* \"#utility.yul\":2111:2115   */\n  dup3\n    /* \"#utility.yul\":2104:2209   */\n  sstore\n    /* \"#utility.yul\":2022:2215   */\n  pop\n    /* \"#utility.yul\":1946:2215   */\n  pop\n  pop\n  pop\n  jump\t// out\n    /* \"#utility.yul\":2221:2294   */\ntag_46:\n    /* \"#utility.yul\":2266:2269   */\n  0x00\n    /* \"#utility.yul\":2287:2288   */\n  0x00\n    /* \"#utility.yul\":2280:2288   */\n  swap1\n  pop\n    /* \"#utility.yul\":2221:2294   */\n  swap1\n  jump\t// out\n    /* \"#utility.yul\":2300:2489   */\ntag_47:\n    /* \"#utility.yul\":2377:2409   */\n  tag_80\n  tag_46\n  jump\t// in\ntag_80:\n    /* \"#utility.yul\":2418:2483   */\n  tag_81\n    /* \"#utility.yul\":2476:2482   */\n  dup2\n    /* \"#utility.yul\":2468:2474   */\n  dup5\n    /* \"#utility.yul\":2462:2466   */\n  dup5\n    /* \"#utility.yul\":2418:2483   */\n  tag_45\n  jump\t// in\ntag_81:\n    /* \"#utility.yul\":2353:2489   */\n  pop\n    /* \"#utility.yul\":2300:2489   */\n  pop\n  pop\n  jump\t// out\n    /* \"#utility.yul\":2495:2681   */\ntag_48:\n    /* \"#utility.yul\":2555:2675   */\ntag_83:\n    /* \"#utility.yul\":2572:2575   */\n  dup2\n    /* \"#utility.yul\":2565:2570   */\n  dup2\n    /* \"#utility.yul\":2562:2576   */\n  lt\n    /* \"#utility.yul\":2555:2675   */\n  iszero\n  tag_85\n  jumpi\n    /* \"#utility.yul\":2626:2665   */\n  tag_86\n    /* \"#utility.yul\":2663:2664   */\n  0x00\n    /* \"#utility.yul\":2656:2661   */\n  dup3\n    /* \"#utility.yul\":2626:2665   */\n  tag_47\n  jump\t// in\ntag_86:\n    /* \"#utility.yul\":2599:2600   */\n  0x01\n    /* \"#utility.yul\":2592:2597   */\n  dup2\n    /* \"#utility.yul\":2588:2601   */\n  add\n    /* \"#utility.yul\":2579:2601   */\n  swap1\n  pop\n    /* \"#utility.yul\":2555:2675   */\n  jump(tag_83)\ntag_85:\n    /* \"#utility.yul\":2495:2681   */\n  pop\n  pop\n  jump\t// out\n    /* \"#utility.yul\":2687:3230   */\ntag_49:\n    /* \"#utility.yul\":2788:2790   */\n  0x1f\n    /* \"#utility.yul\":2783:2786   */\n  dup3\n    /* \"#utility.yul\":2780:2791   */\n  gt\n    /* \"#utility.yul\":2777:3223   */\n  iszero\n  tag_88\n  jumpi\n    /* \"#utility.yul\":2822:2860   */\n  tag_89\n    /* \"#utility.yul\":2854:2859   */\n  dup2\n    /* \"#utility.yul\":2822:2860   */\n  tag_37\n  jump\t// in\ntag_89:\n    /* \"#utility.yul\":2906:2935   */\n  tag_90\n    /* \"#utility.yul\":2924:2934   */\n  dup5\n    /* \"#utility.yul\":2906:2935   */\n  tag_38\n  jump\t// in\ntag_90:\n    /* \"#utility.yul\":2896:2904   */\n  dup2\n    /* \"#utility.yul\":2892:2936   */\n  add\n    /* \"#utility.yul\":3089:3091   */\n  0x20\n    /* \"#utility.yul\":3077:3087   */\n  dup6\n    /* \"#utility.yul\":3074:3092   */\n  lt\n    /* \"#utility.yul\":3071:3120   */\n  iszero\n  tag_91\n  jumpi\n    /* \"#utility.yul\":3110:3118   */\n  dup2\n    /* \"#utility.yul\":3095:3118   */\n  swap1\n  pop\n    /* \"#utility.yul\":3071:3120   */\ntag_91:\n    /* \"#utility.yul\":3133:3213   */\n  tag_92\n    /* \"#utility.yul\":3189:3211   */\n  tag_93\n    /* \"#utility.yul\":3207:3210   */\n  dup6\n    /* \"#utility.yul\":3189:3211   */\n  tag_38\n  jump\t// in\ntag_93:\n    /* \"#utility.yul\":3179:3187   */\n  dup4\n    /* \"#utility.yul\":3175:3212   */\n  add\n    /* \"#utility.yul\":3162:3173   */\n  dup3\n    /* \"#utility.yul\":3133:3213   */\n  tag_48\n  jump\t// in\ntag_92:\n    /* \"#utility.yul\":2792:3223   */\n  pop\n  pop\n    /* \"#utility.yul\":2777:3223   */\ntag_88:\n    /* \"#utility.yul\":2687:3230   */\n  pop\n  pop\n  pop\n  jump\t// out\n    /* \"#utility.yul\":3236:3353   */\ntag_50:\n    /* \"#utility.yul\":3290:3298   */\n  0x00\n    /* \"#utility.yul\":3340:3345   */\n  dup3\n    /* \"#utility.yul\":3334:3338   */\n  dup3\n    /* \"#utility.yul\":3330:3346   */\n  shr\n    /* \"#utility.yul\":3309:3346   */\n  swap1\n  pop\n    /* \"#utility.yul\":3236:3353   */\n  swap3\n  swap2\n  pop\n  pop\n  jump\t// out\n    /* \"#utility.yul\":3359:3528   */\ntag_51:\n    /* \"#utility.yul\":3403:3409   */\n  0x00\n    /* \"#utility.yul\":3436:3487   */\n  tag_96\n    /* \"#utility.yul\":3484:3485   */\n  0x00\n    /* \"#utility.yul\":3480:3486   */\n  not\n    /* \"#utility.yul\":3472:3477   */\n  dup5\n    /* \"#utility.yul\":3469:3470   */\n  0x08\n    /* \"#utility.yul\":3465:3478   */\n  mul\n    /* \"#utility.yul\":3436:3487   */\n  tag_50\n  jump\t// in\ntag_96:\n    /* \"#utility.yul\":3432:3488   */\n  not\n    /* \"#utility.yul\":3517:3521   */\n  dup1\n    /* \"#utility.yul\":3511:3515   */\n  dup4\n    /* \"#utility.yul\":3507:3522   */\n  and\n    /* \"#utility.yul\":3497:3522   */\n  swap2\n  pop\n    /* \"#utility.yul\":3410:3528   */\n  pop\n    /* \"#utility.yul\":3359:3528   */\n  swap3\n  swap2\n  pop\n  pop\n  jump\t// out\n    /* \"#utility.yul\":3533:3828   */\ntag_52:\n    /* \"#utility.yul\":3609:3613   */\n  0x00\n    /* \"#utility.yul\":3755:3784   */\n  tag_98\n    /* \"#utility.yul\":3780:3783   */\n  dup4\n    /* \"#utility.yul\":3774:3778   */\n  dup4\n    /* \"#utility.yul\":3755:3784   */\n  tag_51\n  jump\t// in\ntag_98:\n    /* \"#utility.yul\":3747:3784   */\n  swap2\n  pop\n    /* \"#utility.yul\":3817:3820   */\n  dup3\n    /* \"#utility.yul\":3814:3815   */\n  0x02\n    /* \"#utility.yul\":3810:3821   */\n  mul\n    /* \"#utility.yul\":3804:3808   */\n  dup3\n    /* \"#utility.yul\":3801:3822   */\n  or\n    /* \"#utility.yul\":3793:3822   */\n  swap1\n  pop\n    /* \"#utility.yul\":3533:3828   */\n  swap3\n  swap2\n  pop\n  pop\n  jump\t// out\n    /* \"#utility.yul\":3833:5228   */\ntag_2:\n    /* \"#utility.yul\":3950:3987   */\n  tag_100\n    /* \"#utility.yul\":3983:3986   */\n  dup3\n    /* \"#utility.yul\":3950:3987   */\n  tag_34\n  jump\t// in\ntag_100:\n    /* \"#utility.yul\":4052:4070   */\n  0xffffffffffffffff\n    /* \"#utility.yul\":4044:4050   */\n  dup2\n    /* \"#utility.yul\":4041:4071   */\n  gt\n    /* \"#utility.yul\":4038:4094   */\n  iszero\n  tag_101\n  jumpi\n    /* \"#utility.yul\":4074:4092   */\n  tag_102\n  tag_35\n  jump\t// in\ntag_102:\n    /* \"#utility.yul\":4038:4094   */\ntag_101:\n    /* \"#utility.yul\":4118:4156   */\n  tag_103\n    /* \"#utility.yul\":4150:4154   */\n  dup3\n    /* \"#utility.yul\":4144:4155   */\n  sload\n    /* \"#utility.yul\":4118:4156   */\n  tag_30\n  jump\t// in\ntag_103:\n    /* \"#utility.yul\":4203:4270   */\n  tag_104\n    /* \"#utility.yul\":4263:4269   */\n  dup3\n    /* \"#utility.yul\":4255:4261   */\n  dup3\n    /* \"#utility.yul\":4249:4253   */\n  dup6\n    /* \"#utility.yul\":4203:4270   */\n  tag_49\n  jump\t// in\ntag_104:\n    /* \"#utility.yul\":4297:4298   */\n  0x00\n    /* \"#utility.yul\":4321:4325   */\n  0x20\n    /* \"#utility.yul\":4308:4325   */\n  swap1\n  pop\n    /* \"#utility.yul\":4353:4355   */\n  0x1f\n    /* \"#utility.yul\":4345:4351   */\n  dup4\n    /* \"#utility.yul\":4342:4356   */\n  gt\n    /* \"#utility.yul\":4370:4371   */\n  0x01\n    /* \"#utility.yul\":4365:4983   */\n  dup2\n  eq\n  tag_106\n  jumpi\n    /* \"#utility.yul\":5027:5028   */\n  0x00\n    /* \"#utility.yul\":5044:5050   */\n  dup5\n    /* \"#utility.yul\":5041:5118   */\n  iszero\n  tag_107\n  jumpi\n    /* \"#utility.yul\":5093:5102   */\n  dup3\n    /* \"#utility.yul\":5088:5091   */\n  dup8\n    /* \"#utility.yul\":5084:5103   */\n  add\n    /* \"#utility.yul\":5078:5104   */\n  mload\n    /* \"#utility.yul\":5069:5104   */\n  swap1\n  pop\n    /* \"#utility.yul\":5041:5118   */\ntag_107:\n    /* \"#utility.yul\":5144:5211   */\n  tag_108\n    /* \"#utility.yul\":5204:5210   */\n  dup6\n    /* \"#utility.yul\":5197:5202   */\n  dup3\n    /* \"#utility.yul\":5144:5211   */\n  tag_52\n  jump\t// in\ntag_108:\n    /* \"#utility.yul\":5138:5142   */\n  dup7\n    /* \"#utility.yul\":5131:5212   */\n  sstore\n    /* \"#utility.yul\":5000:5222   */\n  pop\n    /* \"#utility.yul\":4335:5222   */\n  jump(tag_105)\n    /* \"#utility.yul\":4365:4983   */\ntag_106:\n    /* \"#utility.yul\":4417:4421   */\n  0x1f\n    /* \"#utility.yul\":4413:4422   */\n  not\n    /* \"#utility.yul\":4405:4411   */\n  dup5\n    /* \"#utility.yul\":4401:4423   */\n  and\n    /* \"#utility.yul\":4451:4488   */\n  tag_109\n    /* \"#utility.yul\":4483:4487   */\n  dup7\n    /* \"#utility.yul\":4451:4488   */\n  tag_37\n  jump\t// in\ntag_109:\n    /* \"#utility.yul\":4510:4511   */\n  0x00\n    /* \"#utility.yul\":4524:4732   */\ntag_110:\n    /* \"#utility.yul\":4538:4545   */\n  dup3\n    /* \"#utility.yul\":4535:4536   */\n  dup2\n    /* \"#utility.yul\":4532:4546   */\n  lt\n    /* \"#utility.yul\":4524:4732   */\n  iszero\n  tag_112\n  jumpi\n    /* \"#utility.yul\":4617:4626   */\n  dup5\n    /* \"#utility.yul\":4612:4615   */\n  dup10\n    /* \"#utility.yul\":4608:4627   */\n  add\n    /* \"#utility.yul\":4602:4628   */\n  mload\n    /* \"#utility.yul\":4594:4600   */\n  dup3\n    /* \"#utility.yul\":4587:4629   */\n  sstore\n    /* \"#utility.yul\":4668:4669   */\n  0x01\n    /* \"#utility.yul\":4660:4666   */\n  dup3\n    /* \"#utility.yul\":4656:4670   */\n  add\n    /* \"#utility.yul\":4646:4670   */\n  swap2\n  pop\n    /* \"#utility.yul\":4715:4717   */\n  0x20\n    /* \"#utility.yul\":4704:4713   */\n  dup6\n    /* \"#utility.yul\":4700:4718   */\n  add\n    /* \"#utility.yul\":4687:4718   */\n  swap5\n  pop\n    /* \"#utility.yul\":4561:4565   */\n  0x20\n    /* \"#utility.yul\":4558:4559   */\n  dup2\n    /* \"#utility.yul\":4554:4566   */\n  add\n    /* \"#utility.yul\":4549:4566   */\n  swap1\n  pop\n    /* \"#utility.yul\":4524:4732   */\n  jump(tag_110)\ntag_112:\n    /* \"#utility.yul\":4760:4766   */\n  dup7\n    /* \"#utility.yul\":4751:4758   */\n  dup4\n    /* \"#utility.yul\":4748:4767   */\n  lt\n    /* \"#utility.yul\":4745:4924   */\n  iszero\n  tag_113\n  jumpi\n    /* \"#utility.yul\":4818:4827   */\n  dup5\n    /* \"#utility.yul\":4813:4816   */\n  dup10\n    /* \"#utility.yul\":4809:4828   */\n  add\n    /* \"#utility.yul\":4803:4829   */\n  mload\n    /* \"#utility.yul\":4861:4909   */\n  tag_114\n    /* \"#utility.yul\":4903:4907   */\n  0x1f\n    /* \"#utility.yul\":4895:4901   */\n  dup10\n    /* \"#utility.yul\":4891:4908   */\n  and\n    /* \"#utility.yul\":4880:4889   */\n  dup3\n    /* \"#utility.yul\":4861:4909   */\n  tag_51\n  jump\t// in\ntag_114:\n    /* \"#utility.yul\":4853:4859   */\n  dup4\n    /* \"#utility.yul\":4846:4910   */\n  sstore\n    /* \"#utility.yul\":4768:4924   */\n  pop\n    /* \"#utility.yul\":4745:4924   */\ntag_113:\n    /* \"#utility.yul\":4970:4971   */\n  0x01\n    /* \"#utility.yul\":4966:4967   */\n  0x02\n    /* \"#utility.yul\":4958:4964   */\n  dup9\n    /* \"#utility.yul\":4954:4968   */\n  mul\n    /* \"#utility.yul\":4950:4972   */\n  add\n    /* \"#utility.yul\":4944:4948   */\n  dup9\n    /* \"#utility.yul\":4937:4973   */\n  sstore\n    /* \"#utility.yul\":4372:4983   */\n  pop\n  pop\n  pop\n    /* \"#utility.yul\":4335:5222   */\ntag_105:\n  pop\n    /* \"#utility.yul\":3925:5228   */\n  pop\n  pop\n  pop\n    /* \"#utility.yul\":3833:5228   */\n  pop\n  pop\n  jump\t// out\n    /* \"#utility.yul\":5234:5414   */\ntag_9:\n    /* \"#utility.yul\":5282:5359   */\n  0x4e487b7100000000000000000000000000000000000000000000000000000000\n    /* \"#utility.yul\":5279:5280   */\n  0x00\n    /* \"#utility.yul\":5272:5360   */\n  mstore\n    /* \"#utility.yul\":5379:5383   */\n  0x21\n    /* \"#utility.yul\":5376:5377   */\n  0x04\n    /* \"#utility.yul\":5369:5384   */\n  mstore\n    /* \"#utility.yul\":5403:5407   */\n  0x24\n    /* \"#utility.yul\":5400:5401   */\n  0x00\n    /* \"#utility.yul\":5393:5408   */\n  revert\n    /* \"contracts/Basics101.sol\":67:1649  contract Basics101 {... */\ntag_11:\n  dataSize(sub_0)\n  dup1\n  dataOffset(sub_0)\n  0x00\n  codecopy\n  0x00\n  return\nstop\n\nsub_0: assembly {\n        /* \"contracts/Basics101.sol\":67:1649  contract Basics101 {... */\n      mstore(0x40, 0x80)\n      callvalue\n      dup1\n      iszero\n      tag_1\n      jumpi\n      revert(0x00, 0x00)\n    tag_1:\n      pop\n      jumpi(tag_2, lt(calldatasize, 0x04))\n      shr(0xe0, calldataload(0x00))\n      dup1\n      0x67e404ce\n      gt\n      tag_11\n      jumpi\n      dup1\n      0x67e404ce\n      eq\n      tag_7\n      jumpi\n      dup1\n      0x9eaa4009\n      eq\n      tag_8\n      jumpi\n      dup1\n      0xc8d61089\n      eq\n      tag_9\n      jumpi\n      dup1\n      0xc9116b69\n      eq\n      tag_10\n      jumpi\n      jump(tag_2)\n    tag_11:\n      dup1\n      0x0901ed86\n      eq\n      tag_3\n      jumpi\n      dup1\n      0x310495ab\n      eq\n      tag_4\n      jumpi\n      dup1\n      0x365b98b2\n      eq\n      tag_5\n      jumpi\n      dup1\n      0x48b15166\n      eq\n      tag_6\n      jumpi\n    tag_2:\n      revert(0x00, 0x00)\n        /* \"contracts/Basics101.sol\":1097:1145  mapping (string => string) public accountNameMap */\n    tag_3:\n      tag_12\n      0x04\n      dup1\n      calldatasize\n      sub\n      dup2\n      add\n      swap1\n      tag_13\n      swap2\n      swap1\n      tag_14\n      jump\t// in\n    tag_13:\n      tag_15\n      jump\t// in\n    tag_12:\n      mload(0x40)\n      tag_16\n      swap2\n      swap1\n      tag_17\n      jump\t// in\n    tag_16:\n      mload(0x40)\n      dup1\n      swap2\n      sub\n      swap1\n      return\n        /* \"contracts/Basics101.sol\":593:657  string[] public tokenNames = [\"Ethereum\", \"Solana\", \"Chainlink\"] */\n    tag_4:\n      tag_18\n      0x04\n      dup1\n      calldatasize\n      sub\n      dup2\n      add\n      swap1\n      tag_19\n      swap2\n      swap1\n      tag_20\n      jump\t// in\n    tag_19:\n      tag_21\n      jump\t// in\n    tag_18:\n      mload(0x40)\n      tag_22\n      swap2\n      swap1\n      tag_17\n      jump\t// in\n    tag_22:\n      mload(0x40)\n      dup1\n      swap2\n      sub\n      swap1\n      return\n        /* \"contracts/Basics101.sol\":1055:1074  User[] public users */\n    tag_5:\n      tag_23\n      0x04\n      dup1\n      calldatasize\n      sub\n      dup2\n      add\n      swap1\n      tag_24\n      swap2\n      swap1\n      tag_20\n      jump\t// in\n    tag_24:\n      tag_25\n      jump\t// in\n    tag_23:\n      mload(0x40)\n      tag_26\n      swap4\n      swap3\n      swap2\n      swap1\n      tag_27\n      jump\t// in\n    tag_26:\n      mload(0x40)\n      dup1\n      swap2\n      sub\n      swap1\n      return\n        /* \"contracts/Basics101.sol\":493:532  uint public blockTime = block.timestamp */\n    tag_6:\n      tag_28\n      tag_29\n      jump\t// in\n    tag_28:\n      mload(0x40)\n      tag_30\n      swap2\n      swap1\n      tag_31\n      jump\t// in\n    tag_30:\n      mload(0x40)\n      dup1\n      swap2\n      sub\n      swap1\n      return\n        /* \"contracts/Basics101.sol\":538:572  address public sender = msg.sender */\n    tag_7:\n      tag_32\n      tag_33\n      jump\t// in\n    tag_32:\n      mload(0x40)\n      tag_34\n      swap2\n      swap1\n      tag_35\n      jump\t// in\n    tag_34:\n      mload(0x40)\n      dup1\n      swap2\n      sub\n      swap1\n      return\n        /* \"contracts/Basics101.sol\":831:865  uint public timeNowOneDay = 1 days */\n    tag_8:\n      tag_36\n      tag_37\n      jump\t// in\n    tag_36:\n      mload(0x40)\n      tag_38\n      swap2\n      swap1\n      tag_31\n      jump\t// in\n    tag_38:\n      mload(0x40)\n      dup1\n      swap2\n      sub\n      swap1\n      return\n        /* \"contracts/Basics101.sol\":1588:1646  coinRanking public defaultTrustLevel = coinRanking.CAUTION */\n    tag_9:\n      tag_39\n      tag_40\n      jump\t// in\n    tag_39:\n      mload(0x40)\n      tag_41\n      swap2\n      swap1\n      tag_42\n      jump\t// in\n    tag_41:\n      mload(0x40)\n      dup1\n      swap2\n      sub\n      swap1\n      return\n        /* \"contracts/Basics101.sol\":138:164  uint public myBalance = 50 */\n    tag_10:\n      tag_43\n      tag_44\n      jump\t// in\n    tag_43:\n      mload(0x40)\n      tag_45\n      swap2\n      swap1\n      tag_31\n      jump\t// in\n    tag_45:\n      mload(0x40)\n      dup1\n      swap2\n      sub\n      swap1\n      return\n        /* \"contracts/Basics101.sol\":1097:1145  mapping (string => string) public accountNameMap */\n    tag_15:\n      0x12\n      dup2\n      dup1\n      mload\n      0x20\n      dup2\n      add\n      dup3\n      add\n      dup1\n      mload\n      dup5\n      dup3\n      mstore\n      0x20\n      dup4\n      add\n      0x20\n      dup6\n      add\n      keccak256\n      dup2\n      dup4\n      mstore\n      dup1\n      swap6\n      pop\n      pop\n      pop\n      pop\n      pop\n      pop\n      0x00\n      swap2\n      pop\n      swap1\n      pop\n      dup1\n      sload\n      tag_46\n      swap1\n      tag_47\n      jump\t// in\n    tag_46:\n      dup1\n      0x1f\n      add\n      0x20\n      dup1\n      swap2\n      div\n      mul\n      0x20\n      add\n      mload(0x40)\n      swap1\n      dup2\n      add\n      0x40\n      mstore\n      dup1\n      swap3\n      swap2\n      swap1\n      dup2\n      dup2\n      mstore\n      0x20\n      add\n      dup3\n      dup1\n      sload\n      tag_48\n      swap1\n      tag_47\n      jump\t// in\n    tag_48:\n      dup1\n      iszero\n      tag_49\n      jumpi\n      dup1\n      0x1f\n      lt\n      tag_50\n      jumpi\n      0x0100\n      dup1\n      dup4\n      sload\n      div\n      mul\n      dup4\n      mstore\n      swap2\n      0x20\n      add\n      swap2\n      jump(tag_49)\n    tag_50:\n      dup3\n      add\n      swap2\n      swap1\n      0x00\n      mstore\n      keccak256(0x00, 0x20)\n      swap1\n    tag_51:\n      dup2\n      sload\n      dup2\n      mstore\n      swap1\n      0x01\n      add\n      swap1\n      0x20\n      add\n      dup1\n      dup4\n      gt\n      tag_51\n      jumpi\n      dup3\n      swap1\n      sub\n      0x1f\n      and\n      dup3\n      add\n      swap2\n    tag_49:\n      pop\n      pop\n      pop\n      pop\n      pop\n      dup2\n      jump\t// out\n        /* \"contracts/Basics101.sol\":593:657  string[] public tokenNames = [\"Ethereum\", \"Solana\", \"Chainlink\"] */\n    tag_21:\n      0x06\n      dup2\n      dup2\n      sload\n      dup2\n      lt\n      tag_52\n      jumpi\n      0x00\n      dup1\n      revert\n    tag_52:\n      swap1\n      0x00\n      mstore\n      keccak256(0x00, 0x20)\n      add\n      0x00\n      swap2\n      pop\n      swap1\n      pop\n      dup1\n      sload\n      tag_54\n      swap1\n      tag_47\n      jump\t// in\n    tag_54:\n      dup1\n      0x1f\n      add\n      0x20\n      dup1\n      swap2\n      div\n      mul\n      0x20\n      add\n      mload(0x40)\n      swap1\n      dup2\n      add\n      0x40\n      mstore\n      dup1\n      swap3\n      swap2\n      swap1\n      dup2\n      dup2\n      mstore\n      0x20\n      add\n      dup3\n      dup1\n      sload\n      tag_55\n      swap1\n      tag_47\n      jump\t// in\n    tag_55:\n      dup1\n      iszero\n      tag_56\n      jumpi\n      dup1\n      0x1f\n      lt\n      tag_57\n      jumpi\n      0x0100\n      dup1\n      dup4\n      sload\n      div\n      mul\n      dup4\n      mstore\n      swap2\n      0x20\n      add\n      swap2\n      jump(tag_56)\n    tag_57:\n      dup3\n      add\n      swap2\n      swap1\n      0x00\n      mstore\n      keccak256(0x00, 0x20)\n      swap1\n    tag_58:\n      dup2\n      sload\n      dup2\n      mstore\n      swap1\n      0x01\n      add\n      swap1\n      0x20\n      add\n      dup1\n      dup4\n      gt\n      tag_58\n      jumpi\n      dup3\n      swap1\n      sub\n      0x1f\n      and\n      dup3\n      add\n      swap2\n    tag_56:\n      pop\n      pop\n      pop\n      pop\n      pop\n      dup2\n      jump\t// out\n        /* \"contracts/Basics101.sol\":1055:1074  User[] public users */\n    tag_25:\n      0x11\n      dup2\n      dup2\n      sload\n      dup2\n      lt\n      tag_59\n      jumpi\n      0x00\n      dup1\n      revert\n    tag_59:\n      swap1\n      0x00\n      mstore\n      keccak256(0x00, 0x20)\n      swap1\n      0x03\n      mul\n      add\n      0x00\n      swap2\n      pop\n      swap1\n      pop\n      dup1\n      0x00\n      add\n      0x00\n      swap1\n      sload\n      swap1\n      0x0100\n      exp\n      swap1\n      div\n      0xffffffffffffffffffffffffffffffffffffffff\n      and\n      swap1\n      dup1\n      0x01\n      add\n      dup1\n      sload\n      tag_61\n      swap1\n      tag_47\n      jump\t// in\n    tag_61:\n      dup1\n      0x1f\n      add\n      0x20\n      dup1\n      swap2\n      div\n      mul\n      0x20\n      add\n      mload(0x40)\n      swap1\n      dup2\n      add\n      0x40\n      mstore\n      dup1\n      swap3\n      swap2\n      swap1\n      dup2\n      dup2\n      mstore\n      0x20\n      add\n      dup3\n      dup1\n      sload\n      tag_62\n      swap1\n      tag_47\n      jump\t// in\n    tag_62:\n      dup1\n      iszero\n      tag_63\n      jumpi\n      dup1\n      0x1f\n      lt\n      tag_64\n      jumpi\n      0x0100\n      dup1\n      dup4\n      sload\n      div\n      mul\n      dup4\n      mstore\n      swap2\n      0x20\n      add\n      swap2\n      jump(tag_63)\n    tag_64:\n      dup3\n      add\n      swap2\n      swap1\n      0x00\n      mstore\n      keccak256(0x00, 0x20)\n      swap1\n    tag_65:\n      dup2\n      sload\n      dup2\n      mstore\n      swap1\n      0x01\n      add\n      swap1\n      0x20\n      add\n      dup1\n      dup4\n      gt\n      tag_65\n      jumpi\n      dup3\n      swap1\n      sub\n      0x1f\n      and\n      dup3\n      add\n      swap2\n    tag_63:\n      pop\n      pop\n      pop\n      pop\n      pop\n      swap1\n      dup1\n      0x02\n      add\n      0x00\n      swap1\n      sload\n      swap1\n      0x0100\n      exp\n      swap1\n      div\n      0xff\n      and\n      swap1\n      pop\n      dup4\n      jump\t// out\n        /* \"contracts/Basics101.sol\":493:532  uint public blockTime = block.timestamp */\n    tag_29:\n      sload(0x04)\n      dup2\n      jump\t// out\n        /* \"contracts/Basics101.sol\":538:572  address public sender = msg.sender */\n    tag_33:\n      0x05\n      0x00\n      swap1\n      sload\n      swap1\n      0x0100\n      exp\n      swap1\n      div\n      0xffffffffffffffffffffffffffffffffffffffff\n      and\n      dup2\n      jump\t// out\n        /* \"contracts/Basics101.sol\":831:865  uint public timeNowOneDay = 1 days */\n    tag_37:\n      sload(0x0f)\n      dup2\n      jump\t// out\n        /* \"contracts/Basics101.sol\":1588:1646  coinRanking public defaultTrustLevel = coinRanking.CAUTION */\n    tag_40:\n      0x14\n      0x01\n      swap1\n      sload\n      swap1\n      0x0100\n      exp\n      swap1\n      div\n      0xff\n      and\n      dup2\n      jump\t// out\n        /* \"contracts/Basics101.sol\":138:164  uint public myBalance = 50 */\n    tag_44:\n      sload(0x00)\n      dup2\n      jump\t// out\n        /* \"#utility.yul\":7:82   */\n    tag_66:\n        /* \"#utility.yul\":40:46   */\n      0x00\n        /* \"#utility.yul\":73:75   */\n      0x40\n        /* \"#utility.yul\":67:76   */\n      mload\n        /* \"#utility.yul\":57:76   */\n      swap1\n      pop\n        /* \"#utility.yul\":7:82   */\n      swap1\n      jump\t// out\n        /* \"#utility.yul\":88:205   */\n    tag_67:\n        /* \"#utility.yul\":197:198   */\n      0x00\n        /* \"#utility.yul\":194:195   */\n      0x00\n        /* \"#utility.yul\":187:199   */\n      revert\n        /* \"#utility.yul\":211:328   */\n    tag_68:\n        /* \"#utility.yul\":320:321   */\n      0x00\n        /* \"#utility.yul\":317:318   */\n      0x00\n        /* \"#utility.yul\":310:322   */\n      revert\n        /* \"#utility.yul\":334:451   */\n    tag_69:\n        /* \"#utility.yul\":443:444   */\n      0x00\n        /* \"#utility.yul\":440:441   */\n      0x00\n        /* \"#utility.yul\":433:445   */\n      revert\n        /* \"#utility.yul\":457:574   */\n    tag_70:\n        /* \"#utility.yul\":566:567   */\n      0x00\n        /* \"#utility.yul\":563:564   */\n      0x00\n        /* \"#utility.yul\":556:568   */\n      revert\n        /* \"#utility.yul\":580:682   */\n    tag_71:\n        /* \"#utility.yul\":621:627   */\n      0x00\n        /* \"#utility.yul\":672:674   */\n      0x1f\n        /* \"#utility.yul\":668:675   */\n      not\n        /* \"#utility.yul\":663:665   */\n      0x1f\n        /* \"#utility.yul\":656:661   */\n      dup4\n        /* \"#utility.yul\":652:666   */\n      add\n        /* \"#utility.yul\":648:676   */\n      and\n        /* \"#utility.yul\":638:676   */\n      swap1\n      pop\n        /* \"#utility.yul\":580:682   */\n      swap2\n      swap1\n      pop\n      jump\t// out\n        /* \"#utility.yul\":688:868   */\n    tag_72:\n        /* \"#utility.yul\":736:813   */\n      0x4e487b7100000000000000000000000000000000000000000000000000000000\n        /* \"#utility.yul\":733:734   */\n      0x00\n        /* \"#utility.yul\":726:814   */\n      mstore\n        /* \"#utility.yul\":833:837   */\n      0x41\n        /* \"#utility.yul\":830:831   */\n      0x04\n        /* \"#utility.yul\":823:838   */\n      mstore\n        /* \"#utility.yul\":857:861   */\n      0x24\n        /* \"#utility.yul\":854:855   */\n      0x00\n        /* \"#utility.yul\":847:862   */\n      revert\n        /* \"#utility.yul\":874:1155   */\n    tag_73:\n        /* \"#utility.yul\":957:984   */\n      tag_107\n        /* \"#utility.yul\":979:983   */\n      dup3\n        /* \"#utility.yul\":957:984   */\n      tag_71\n      jump\t// in\n    tag_107:\n        /* \"#utility.yul\":949:955   */\n      dup2\n        /* \"#utility.yul\":945:985   */\n      add\n        /* \"#utility.yul\":1087:1093   */\n      dup2\n        /* \"#utility.yul\":1075:1085   */\n      dup2\n        /* \"#utility.yul\":1072:1094   */\n      lt\n        /* \"#utility.yul\":1051:1069   */\n      0xffffffffffffffff\n        /* \"#utility.yul\":1039:1049   */\n      dup3\n        /* \"#utility.yul\":1036:1070   */\n      gt\n        /* \"#utility.yul\":1033:1095   */\n      or\n        /* \"#utility.yul\":1030:1118   */\n      iszero\n      tag_108\n      jumpi\n        /* \"#utility.yul\":1098:1116   */\n      tag_109\n      tag_72\n      jump\t// in\n    tag_109:\n        /* \"#utility.yul\":1030:1118   */\n    tag_108:\n        /* \"#utility.yul\":1138:1148   */\n      dup1\n        /* \"#utility.yul\":1134:1136   */\n      0x40\n        /* \"#utility.yul\":1127:1149   */\n      mstore\n        /* \"#utility.yul\":917:1155   */\n      pop\n        /* \"#utility.yul\":874:1155   */\n      pop\n      pop\n      jump\t// out\n        /* \"#utility.yul\":1161:1290   */\n    tag_74:\n        /* \"#utility.yul\":1195:1201   */\n      0x00\n        /* \"#utility.yul\":1222:1242   */\n      tag_111\n      tag_66\n      jump\t// in\n    tag_111:\n        /* \"#utility.yul\":1212:1242   */\n      swap1\n      pop\n        /* \"#utility.yul\":1251:1284   */\n      tag_112\n        /* \"#utility.yul\":1279:1283   */\n      dup3\n        /* \"#utility.yul\":1271:1277   */\n      dup3\n        /* \"#utility.yul\":1251:1284   */\n      tag_73\n      jump\t// in\n    tag_112:\n        /* \"#utility.yul\":1161:1290   */\n      swap2\n      swap1\n      pop\n      jump\t// out\n        /* \"#utility.yul\":1296:1604   */\n    tag_75:\n        /* \"#utility.yul\":1358:1362   */\n      0x00\n        /* \"#utility.yul\":1448:1466   */\n      0xffffffffffffffff\n        /* \"#utility.yul\":1440:1446   */\n      dup3\n        /* \"#utility.yul\":1437:1467   */\n      gt\n        /* \"#utility.yul\":1434:1490   */\n      iszero\n      tag_114\n      jumpi\n        /* \"#utility.yul\":1470:1488   */\n      tag_115\n      tag_72\n      jump\t// in\n    tag_115:\n        /* \"#utility.yul\":1434:1490   */\n    tag_114:\n        /* \"#utility.yul\":1508:1537   */\n      tag_116\n        /* \"#utility.yul\":1530:1536   */\n      dup3\n        /* \"#utility.yul\":1508:1537   */\n      tag_71\n      jump\t// in\n    tag_116:\n        /* \"#utility.yul\":1500:1537   */\n      swap1\n      pop\n        /* \"#utility.yul\":1592:1596   */\n      0x20\n        /* \"#utility.yul\":1586:1590   */\n      dup2\n        /* \"#utility.yul\":1582:1597   */\n      add\n        /* \"#utility.yul\":1574:1597   */\n      swap1\n      pop\n        /* \"#utility.yul\":1296:1604   */\n      swap2\n      swap1\n      pop\n      jump\t// out\n        /* \"#utility.yul\":1610:1758   */\n    tag_76:\n        /* \"#utility.yul\":1708:1714   */\n      dup3\n        /* \"#utility.yul\":1703:1706   */\n      dup2\n        /* \"#utility.yul\":1698:1701   */\n      dup4\n        /* \"#utility.yul\":1685:1715   */\n      calldatacopy\n        /* \"#utility.yul\":1749:1750   */\n      0x00\n        /* \"#utility.yul\":1740:1746   */\n      dup4\n        /* \"#utility.yul\":1735:1738   */\n      dup4\n        /* \"#utility.yul\":1731:1747   */\n      add\n        /* \"#utility.yul\":1724:1751   */\n      mstore\n        /* \"#utility.yul\":1610:1758   */\n      pop\n      pop\n      pop\n      jump\t// out\n        /* \"#utility.yul\":1764:2189   */\n    tag_77:\n        /* \"#utility.yul\":1842:1847   */\n      0x00\n        /* \"#utility.yul\":1867:1933   */\n      tag_119\n        /* \"#utility.yul\":1883:1932   */\n      tag_120\n        /* \"#utility.yul\":1925:1931   */\n      dup5\n        /* \"#utility.yul\":1883:1932   */\n      tag_75\n      jump\t// in\n    tag_120:\n        /* \"#utility.yul\":1867:1933   */\n      tag_74\n      jump\t// in\n    tag_119:\n        /* \"#utility.yul\":1858:1933   */\n      swap1\n      pop\n        /* \"#utility.yul\":1956:1962   */\n      dup3\n        /* \"#utility.yul\":1949:1954   */\n      dup2\n        /* \"#utility.yul\":1942:1963   */\n      mstore\n        /* \"#utility.yul\":1994:1998   */\n      0x20\n        /* \"#utility.yul\":1987:1992   */\n      dup2\n        /* \"#utility.yul\":1983:1999   */\n      add\n        /* \"#utility.yul\":2032:2035   */\n      dup5\n        /* \"#utility.yul\":2023:2029   */\n      dup5\n        /* \"#utility.yul\":2018:2021   */\n      dup5\n        /* \"#utility.yul\":2014:2030   */\n      add\n        /* \"#utility.yul\":2011:2036   */\n      gt\n        /* \"#utility.yul\":2008:2120   */\n      iszero\n      tag_121\n      jumpi\n        /* \"#utility.yul\":2039:2118   */\n      tag_122\n      tag_70\n      jump\t// in\n    tag_122:\n        /* \"#utility.yul\":2008:2120   */\n    tag_121:\n        /* \"#utility.yul\":2129:2183   */\n      tag_123\n        /* \"#utility.yul\":2176:2182   */\n      dup5\n        /* \"#utility.yul\":2171:2174   */\n      dup3\n        /* \"#utility.yul\":2166:2169   */\n      dup6\n        /* \"#utility.yul\":2129:2183   */\n      tag_76\n      jump\t// in\n    tag_123:\n        /* \"#utility.yul\":1848:2189   */\n      pop\n        /* \"#utility.yul\":1764:2189   */\n      swap4\n      swap3\n      pop\n      pop\n      pop\n      jump\t// out\n        /* \"#utility.yul\":2209:2549   */\n    tag_78:\n        /* \"#utility.yul\":2265:2270   */\n      0x00\n        /* \"#utility.yul\":2314:2317   */\n      dup3\n        /* \"#utility.yul\":2307:2311   */\n      0x1f\n        /* \"#utility.yul\":2299:2305   */\n      dup4\n        /* \"#utility.yul\":2295:2312   */\n      add\n        /* \"#utility.yul\":2291:2318   */\n      slt\n        /* \"#utility.yul\":2281:2403   */\n      tag_125\n      jumpi\n        /* \"#utility.yul\":2322:2401   */\n      tag_126\n      tag_69\n      jump\t// in\n    tag_126:\n        /* \"#utility.yul\":2281:2403   */\n    tag_125:\n        /* \"#utility.yul\":2439:2445   */\n      dup2\n        /* \"#utility.yul\":2426:2446   */\n      calldataload\n        /* \"#utility.yul\":2464:2543   */\n      tag_127\n        /* \"#utility.yul\":2539:2542   */\n      dup5\n        /* \"#utility.yul\":2531:2537   */\n      dup3\n        /* \"#utility.yul\":2524:2528   */\n      0x20\n        /* \"#utility.yul\":2516:2522   */\n      dup7\n        /* \"#utility.yul\":2512:2529   */\n      add\n        /* \"#utility.yul\":2464:2543   */\n      tag_77\n      jump\t// in\n    tag_127:\n        /* \"#utility.yul\":2455:2543   */\n      swap2\n      pop\n        /* \"#utility.yul\":2271:2549   */\n      pop\n        /* \"#utility.yul\":2209:2549   */\n      swap3\n      swap2\n      pop\n      pop\n      jump\t// out\n        /* \"#utility.yul\":2555:3064   */\n    tag_14:\n        /* \"#utility.yul\":2624:2630   */\n      0x00\n        /* \"#utility.yul\":2673:2675   */\n      0x20\n        /* \"#utility.yul\":2661:2670   */\n      dup3\n        /* \"#utility.yul\":2652:2659   */\n      dup5\n        /* \"#utility.yul\":2648:2671   */\n      sub\n        /* \"#utility.yul\":2644:2676   */\n      slt\n        /* \"#utility.yul\":2641:2760   */\n      iszero\n      tag_129\n      jumpi\n        /* \"#utility.yul\":2679:2758   */\n      tag_130\n      tag_67\n      jump\t// in\n    tag_130:\n        /* \"#utility.yul\":2641:2760   */\n    tag_129:\n        /* \"#utility.yul\":2827:2828   */\n      0x00\n        /* \"#utility.yul\":2816:2825   */\n      dup3\n        /* \"#utility.yul\":2812:2829   */\n      add\n        /* \"#utility.yul\":2799:2830   */\n      calldataload\n        /* \"#utility.yul\":2857:2875   */\n      0xffffffffffffffff\n        /* \"#utility.yul\":2849:2855   */\n      dup2\n        /* \"#utility.yul\":2846:2876   */\n      gt\n        /* \"#utility.yul\":2843:2960   */\n      iszero\n      tag_131\n      jumpi\n        /* \"#utility.yul\":2879:2958   */\n      tag_132\n      tag_68\n      jump\t// in\n    tag_132:\n        /* \"#utility.yul\":2843:2960   */\n    tag_131:\n        /* \"#utility.yul\":2984:3047   */\n      tag_133\n        /* \"#utility.yul\":3039:3046   */\n      dup5\n        /* \"#utility.yul\":3030:3036   */\n      dup3\n        /* \"#utility.yul\":3019:3028   */\n      dup6\n        /* \"#utility.yul\":3015:3037   */\n      add\n        /* \"#utility.yul\":2984:3047   */\n      tag_78\n      jump\t// in\n    tag_133:\n        /* \"#utility.yul\":2974:3047   */\n      swap2\n      pop\n        /* \"#utility.yul\":2770:3057   */\n      pop\n        /* \"#utility.yul\":2555:3064   */\n      swap3\n      swap2\n      pop\n      pop\n      jump\t// out\n        /* \"#utility.yul\":3070:3169   */\n    tag_79:\n        /* \"#utility.yul\":3122:3128   */\n      0x00\n        /* \"#utility.yul\":3156:3161   */\n      dup2\n        /* \"#utility.yul\":3150:3162   */\n      mload\n        /* \"#utility.yul\":3140:3162   */\n      swap1\n      pop\n        /* \"#utility.yul\":3070:3169   */\n      swap2\n      swap1\n      pop\n      jump\t// out\n        /* \"#utility.yul\":3175:3344   */\n    tag_80:\n        /* \"#utility.yul\":3259:3270   */\n      0x00\n        /* \"#utility.yul\":3293:3299   */\n      dup3\n        /* \"#utility.yul\":3288:3291   */\n      dup3\n        /* \"#utility.yul\":3281:3300   */\n      mstore\n        /* \"#utility.yul\":3333:3337   */\n      0x20\n        /* \"#utility.yul\":3328:3331   */\n      dup3\n        /* \"#utility.yul\":3324:3338   */\n      add\n        /* \"#utility.yul\":3309:3338   */\n      swap1\n      pop\n        /* \"#utility.yul\":3175:3344   */\n      swap3\n      swap2\n      pop\n      pop\n      jump\t// out\n        /* \"#utility.yul\":3350:3489   */\n    tag_81:\n        /* \"#utility.yul\":3439:3445   */\n      dup3\n        /* \"#utility.yul\":3434:3437   */\n      dup2\n        /* \"#utility.yul\":3429:3432   */\n      dup4\n        /* \"#utility.yul\":3423:3446   */\n      mcopy\n        /* \"#utility.yul\":3480:3481   */\n      0x00\n        /* \"#utility.yul\":3471:3477   */\n      dup4\n        /* \"#utility.yul\":3466:3469   */\n      dup4\n        /* \"#utility.yul\":3462:3478   */\n      add\n        /* \"#utility.yul\":3455:3482   */\n      mstore\n        /* \"#utility.yul\":3350:3489   */\n      pop\n      pop\n      pop\n      jump\t// out\n        /* \"#utility.yul\":3495:3872   */\n    tag_82:\n        /* \"#utility.yul\":3583:3586   */\n      0x00\n        /* \"#utility.yul\":3611:3650   */\n      tag_138\n        /* \"#utility.yul\":3644:3649   */\n      dup3\n        /* \"#utility.yul\":3611:3650   */\n      tag_79\n      jump\t// in\n    tag_138:\n        /* \"#utility.yul\":3666:3737   */\n      tag_139\n        /* \"#utility.yul\":3730:3736   */\n      dup2\n        /* \"#utility.yul\":3725:3728   */\n      dup6\n        /* \"#utility.yul\":3666:3737   */\n      tag_80\n      jump\t// in\n    tag_139:\n        /* \"#utility.yul\":3659:3737   */\n      swap4\n      pop\n        /* \"#utility.yul\":3746:3811   */\n      tag_140\n        /* \"#utility.yul\":3804:3810   */\n      dup2\n        /* \"#utility.yul\":3799:3802   */\n      dup6\n        /* \"#utility.yul\":3792:3796   */\n      0x20\n        /* \"#utility.yul\":3785:3790   */\n      dup7\n        /* \"#utility.yul\":3781:3797   */\n      add\n        /* \"#utility.yul\":3746:3811   */\n      tag_81\n      jump\t// in\n    tag_140:\n        /* \"#utility.yul\":3836:3865   */\n      tag_141\n        /* \"#utility.yul\":3858:3864   */\n      dup2\n        /* \"#utility.yul\":3836:3865   */\n      tag_71\n      jump\t// in\n    tag_141:\n        /* \"#utility.yul\":3831:3834   */\n      dup5\n        /* \"#utility.yul\":3827:3866   */\n      add\n        /* \"#utility.yul\":3820:3866   */\n      swap2\n      pop\n        /* \"#utility.yul\":3587:3872   */\n      pop\n        /* \"#utility.yul\":3495:3872   */\n      swap3\n      swap2\n      pop\n      pop\n      jump\t// out\n        /* \"#utility.yul\":3878:4191   */\n    tag_17:\n        /* \"#utility.yul\":3991:3995   */\n      0x00\n        /* \"#utility.yul\":4029:4031   */\n      0x20\n        /* \"#utility.yul\":4018:4027   */\n      dup3\n        /* \"#utility.yul\":4014:4032   */\n      add\n        /* \"#utility.yul\":4006:4032   */\n      swap1\n      pop\n        /* \"#utility.yul\":4078:4087   */\n      dup2\n        /* \"#utility.yul\":4072:4076   */\n      dup2\n        /* \"#utility.yul\":4068:4088   */\n      sub\n        /* \"#utility.yul\":4064:4065   */\n      0x00\n        /* \"#utility.yul\":4053:4062   */\n      dup4\n        /* \"#utility.yul\":4049:4066   */\n      add\n        /* \"#utility.yul\":4042:4089   */\n      mstore\n        /* \"#utility.yul\":4106:4184   */\n      tag_143\n        /* \"#utility.yul\":4179:4183   */\n      dup2\n        /* \"#utility.yul\":4170:4176   */\n      dup5\n        /* \"#utility.yul\":4106:4184   */\n      tag_82\n      jump\t// in\n    tag_143:\n        /* \"#utility.yul\":4098:4184   */\n      swap1\n      pop\n        /* \"#utility.yul\":3878:4191   */\n      swap3\n      swap2\n      pop\n      pop\n      jump\t// out\n        /* \"#utility.yul\":4197:4274   */\n    tag_83:\n        /* \"#utility.yul\":4234:4241   */\n      0x00\n        /* \"#utility.yul\":4263:4268   */\n      dup2\n        /* \"#utility.yul\":4252:4268   */\n      swap1\n      pop\n        /* \"#utility.yul\":4197:4274   */\n      swap2\n      swap1\n      pop\n      jump\t// out\n        /* \"#utility.yul\":4280:4402   */\n    tag_84:\n        /* \"#utility.yul\":4353:4377   */\n      tag_146\n        /* \"#utility.yul\":4371:4376   */\n      dup2\n        /* \"#utility.yul\":4353:4377   */\n      tag_83\n      jump\t// in\n    tag_146:\n        /* \"#utility.yul\":4346:4351   */\n      dup2\n        /* \"#utility.yul\":4343:4378   */\n      eq\n        /* \"#utility.yul\":4333:4396   */\n      tag_147\n      jumpi\n        /* \"#utility.yul\":4392:4393   */\n      0x00\n        /* \"#utility.yul\":4389:4390   */\n      0x00\n        /* \"#utility.yul\":4382:4394   */\n      revert\n        /* \"#utility.yul\":4333:4396   */\n    tag_147:\n        /* \"#utility.yul\":4280:4402   */\n      pop\n      jump\t// out\n        /* \"#utility.yul\":4408:4547   */\n    tag_85:\n        /* \"#utility.yul\":4454:4459   */\n      0x00\n        /* \"#utility.yul\":4492:4498   */\n      dup2\n        /* \"#utility.yul\":4479:4499   */\n      calldataload\n        /* \"#utility.yul\":4470:4499   */\n      swap1\n      pop\n        /* \"#utility.yul\":4508:4541   */\n      tag_149\n        /* \"#utility.yul\":4535:4540   */\n      dup2\n        /* \"#utility.yul\":4508:4541   */\n      tag_84\n      jump\t// in\n    tag_149:\n        /* \"#utility.yul\":4408:4547   */\n      swap3\n      swap2\n      pop\n      pop\n      jump\t// out\n        /* \"#utility.yul\":4553:4882   */\n    tag_20:\n        /* \"#utility.yul\":4612:4618   */\n      0x00\n        /* \"#utility.yul\":4661:4663   */\n      0x20\n        /* \"#utility.yul\":4649:4658   */\n      dup3\n        /* \"#utility.yul\":4640:4647   */\n      dup5\n        /* \"#utility.yul\":4636:4659   */\n      sub\n        /* \"#utility.yul\":4632:4664   */\n      slt\n        /* \"#utility.yul\":4629:4748   */\n      iszero\n      tag_151\n      jumpi\n        /* \"#utility.yul\":4667:4746   */\n      tag_152\n      tag_67\n      jump\t// in\n    tag_152:\n        /* \"#utility.yul\":4629:4748   */\n    tag_151:\n        /* \"#utility.yul\":4787:4788   */\n      0x00\n        /* \"#utility.yul\":4812:4865   */\n      tag_153\n        /* \"#utility.yul\":4857:4864   */\n      dup5\n        /* \"#utility.yul\":4848:4854   */\n      dup3\n        /* \"#utility.yul\":4837:4846   */\n      dup6\n        /* \"#utility.yul\":4833:4855   */\n      add\n        /* \"#utility.yul\":4812:4865   */\n      tag_85\n      jump\t// in\n    tag_153:\n        /* \"#utility.yul\":4802:4865   */\n      swap2\n      pop\n        /* \"#utility.yul\":4758:4875   */\n      pop\n        /* \"#utility.yul\":4553:4882   */\n      swap3\n      swap2\n      pop\n      pop\n      jump\t// out\n        /* \"#utility.yul\":4888:5014   */\n    tag_86:\n        /* \"#utility.yul\":4925:4932   */\n      0x00\n        /* \"#utility.yul\":4965:5007   */\n      0xffffffffffffffffffffffffffffffffffffffff\n        /* \"#utility.yul\":4958:4963   */\n      dup3\n        /* \"#utility.yul\":4954:5008   */\n      and\n        /* \"#utility.yul\":4943:5008   */\n      swap1\n      pop\n        /* \"#utility.yul\":4888:5014   */\n      swap2\n      swap1\n      pop\n      jump\t// out\n        /* \"#utility.yul\":5020:5116   */\n    tag_87:\n        /* \"#utility.yul\":5057:5064   */\n      0x00\n        /* \"#utility.yul\":5086:5110   */\n      tag_156\n        /* \"#utility.yul\":5104:5109   */\n      dup3\n        /* \"#utility.yul\":5086:5110   */\n      tag_86\n      jump\t// in\n    tag_156:\n        /* \"#utility.yul\":5075:5110   */\n      swap1\n      pop\n        /* \"#utility.yul\":5020:5116   */\n      swap2\n      swap1\n      pop\n      jump\t// out\n        /* \"#utility.yul\":5122:5240   */\n    tag_88:\n        /* \"#utility.yul\":5209:5233   */\n      tag_158\n        /* \"#utility.yul\":5227:5232   */\n      dup2\n        /* \"#utility.yul\":5209:5233   */\n      tag_87\n      jump\t// in\n    tag_158:\n        /* \"#utility.yul\":5204:5207   */\n      dup3\n        /* \"#utility.yul\":5197:5234   */\n      mstore\n        /* \"#utility.yul\":5122:5240   */\n      pop\n      pop\n      jump\t// out\n        /* \"#utility.yul\":5246:5336   */\n    tag_89:\n        /* \"#utility.yul\":5280:5287   */\n      0x00\n        /* \"#utility.yul\":5323:5328   */\n      dup2\n        /* \"#utility.yul\":5316:5329   */\n      iszero\n        /* \"#utility.yul\":5309:5330   */\n      iszero\n        /* \"#utility.yul\":5298:5330   */\n      swap1\n      pop\n        /* \"#utility.yul\":5246:5336   */\n      swap2\n      swap1\n      pop\n      jump\t// out\n        /* \"#utility.yul\":5342:5451   */\n    tag_90:\n        /* \"#utility.yul\":5423:5444   */\n      tag_161\n        /* \"#utility.yul\":5438:5443   */\n      dup2\n        /* \"#utility.yul\":5423:5444   */\n      tag_89\n      jump\t// in\n    tag_161:\n        /* \"#utility.yul\":5418:5421   */\n      dup3\n        /* \"#utility.yul\":5411:5445   */\n      mstore\n        /* \"#utility.yul\":5342:5451   */\n      pop\n      pop\n      jump\t// out\n        /* \"#utility.yul\":5457:5978   */\n    tag_27:\n        /* \"#utility.yul\":5620:5624   */\n      0x00\n        /* \"#utility.yul\":5658:5660   */\n      0x60\n        /* \"#utility.yul\":5647:5656   */\n      dup3\n        /* \"#utility.yul\":5643:5661   */\n      add\n        /* \"#utility.yul\":5635:5661   */\n      swap1\n      pop\n        /* \"#utility.yul\":5671:5742   */\n      tag_163\n        /* \"#utility.yul\":5739:5740   */\n      0x00\n        /* \"#utility.yul\":5728:5737   */\n      dup4\n        /* \"#utility.yul\":5724:5741   */\n      add\n        /* \"#utility.yul\":5715:5721   */\n      dup7\n        /* \"#utility.yul\":5671:5742   */\n      tag_88\n      jump\t// in\n    tag_163:\n        /* \"#utility.yul\":5789:5798   */\n      dup2\n        /* \"#utility.yul\":5783:5787   */\n      dup2\n        /* \"#utility.yul\":5779:5799   */\n      sub\n        /* \"#utility.yul\":5774:5776   */\n      0x20\n        /* \"#utility.yul\":5763:5772   */\n      dup4\n        /* \"#utility.yul\":5759:5777   */\n      add\n        /* \"#utility.yul\":5752:5800   */\n      mstore\n        /* \"#utility.yul\":5817:5895   */\n      tag_164\n        /* \"#utility.yul\":5890:5894   */\n      dup2\n        /* \"#utility.yul\":5881:5887   */\n      dup6\n        /* \"#utility.yul\":5817:5895   */\n      tag_82\n      jump\t// in\n    tag_164:\n        /* \"#utility.yul\":5809:5895   */\n      swap1\n      pop\n        /* \"#utility.yul\":5905:5971   */\n      tag_165\n        /* \"#utility.yul\":5967:5969   */\n      0x40\n        /* \"#utility.yul\":5956:5965   */\n      dup4\n        /* \"#utility.yul\":5952:5970   */\n      add\n        /* \"#utility.yul\":5943:5949   */\n      dup5\n        /* \"#utility.yul\":5905:5971   */\n      tag_90\n      jump\t// in\n    tag_165:\n        /* \"#utility.yul\":5457:5978   */\n      swap5\n      swap4\n      pop\n      pop\n      pop\n      pop\n      jump\t// out\n        /* \"#utility.yul\":5984:6102   */\n    tag_91:\n        /* \"#utility.yul\":6071:6095   */\n      tag_167\n        /* \"#utility.yul\":6089:6094   */\n      dup2\n        /* \"#utility.yul\":6071:6095   */\n      tag_83\n      jump\t// in\n    tag_167:\n        /* \"#utility.yul\":6066:6069   */\n      dup3\n        /* \"#utility.yul\":6059:6096   */\n      mstore\n        /* \"#utility.yul\":5984:6102   */\n      pop\n      pop\n      jump\t// out\n        /* \"#utility.yul\":6108:6330   */\n    tag_31:\n        /* \"#utility.yul\":6201:6205   */\n      0x00\n        /* \"#utility.yul\":6239:6241   */\n      0x20\n        /* \"#utility.yul\":6228:6237   */\n      dup3\n        /* \"#utility.yul\":6224:6242   */\n      add\n        /* \"#utility.yul\":6216:6242   */\n      swap1\n      pop\n        /* \"#utility.yul\":6252:6323   */\n      tag_169\n        /* \"#utility.yul\":6320:6321   */\n      0x00\n        /* \"#utility.yul\":6309:6318   */\n      dup4\n        /* \"#utility.yul\":6305:6322   */\n      add\n        /* \"#utility.yul\":6296:6302   */\n      dup5\n        /* \"#utility.yul\":6252:6323   */\n      tag_91\n      jump\t// in\n    tag_169:\n        /* \"#utility.yul\":6108:6330   */\n      swap3\n      swap2\n      pop\n      pop\n      jump\t// out\n        /* \"#utility.yul\":6336:6558   */\n    tag_35:\n        /* \"#utility.yul\":6429:6433   */\n      0x00\n        /* \"#utility.yul\":6467:6469   */\n      0x20\n        /* \"#utility.yul\":6456:6465   */\n      dup3\n        /* \"#utility.yul\":6452:6470   */\n      add\n        /* \"#utility.yul\":6444:6470   */\n      swap1\n      pop\n        /* \"#utility.yul\":6480:6551   */\n      tag_171\n        /* \"#utility.yul\":6548:6549   */\n      0x00\n        /* \"#utility.yul\":6537:6546   */\n      dup4\n        /* \"#utility.yul\":6533:6550   */\n      add\n        /* \"#utility.yul\":6524:6530   */\n      dup5\n        /* \"#utility.yul\":6480:6551   */\n      tag_88\n      jump\t// in\n    tag_171:\n        /* \"#utility.yul\":6336:6558   */\n      swap3\n      swap2\n      pop\n      pop\n      jump\t// out\n        /* \"#utility.yul\":6564:6744   */\n    tag_92:\n        /* \"#utility.yul\":6612:6689   */\n      0x4e487b7100000000000000000000000000000000000000000000000000000000\n        /* \"#utility.yul\":6609:6610   */\n      0x00\n        /* \"#utility.yul\":6602:6690   */\n      mstore\n        /* \"#utility.yul\":6709:6713   */\n      0x21\n        /* \"#utility.yul\":6706:6707   */\n      0x04\n        /* \"#utility.yul\":6699:6714   */\n      mstore\n        /* \"#utility.yul\":6733:6737   */\n      0x24\n        /* \"#utility.yul\":6730:6731   */\n      0x00\n        /* \"#utility.yul\":6723:6738   */\n      revert\n        /* \"#utility.yul\":6750:6869   */\n    tag_93:\n        /* \"#utility.yul\":6837:6838   */\n      0x03\n        /* \"#utility.yul\":6830:6835   */\n      dup2\n        /* \"#utility.yul\":6827:6839   */\n      lt\n        /* \"#utility.yul\":6817:6863   */\n      tag_174\n      jumpi\n        /* \"#utility.yul\":6843:6861   */\n      tag_175\n      tag_92\n      jump\t// in\n    tag_175:\n        /* \"#utility.yul\":6817:6863   */\n    tag_174:\n        /* \"#utility.yul\":6750:6869   */\n      pop\n      jump\t// out\n        /* \"#utility.yul\":6875:7014   */\n    tag_94:\n        /* \"#utility.yul\":6926:6933   */\n      0x00\n        /* \"#utility.yul\":6955:6960   */\n      dup2\n        /* \"#utility.yul\":6944:6960   */\n      swap1\n      pop\n        /* \"#utility.yul\":6961:7008   */\n      tag_177\n        /* \"#utility.yul\":7002:7007   */\n      dup3\n        /* \"#utility.yul\":6961:7008   */\n      tag_93\n      jump\t// in\n    tag_177:\n        /* \"#utility.yul\":6875:7014   */\n      swap2\n      swap1\n      pop\n      jump\t// out\n        /* \"#utility.yul\":7020:7159   */\n    tag_95:\n        /* \"#utility.yul\":7082:7091   */\n      0x00\n        /* \"#utility.yul\":7115:7153   */\n      tag_179\n        /* \"#utility.yul\":7147:7152   */\n      dup3\n        /* \"#utility.yul\":7115:7153   */\n      tag_94\n      jump\t// in\n    tag_179:\n        /* \"#utility.yul\":7102:7153   */\n      swap1\n      pop\n        /* \"#utility.yul\":7020:7159   */\n      swap2\n      swap1\n      pop\n      jump\t// out\n        /* \"#utility.yul\":7165:7320   */\n    tag_96:\n        /* \"#utility.yul\":7264:7313   */\n      tag_181\n        /* \"#utility.yul\":7307:7312   */\n      dup2\n        /* \"#utility.yul\":7264:7313   */\n      tag_95\n      jump\t// in\n    tag_181:\n        /* \"#utility.yul\":7259:7262   */\n      dup3\n        /* \"#utility.yul\":7252:7314   */\n      mstore\n        /* \"#utility.yul\":7165:7320   */\n      pop\n      pop\n      jump\t// out\n        /* \"#utility.yul\":7326:7572   */\n    tag_42:\n        /* \"#utility.yul\":7431:7435   */\n      0x00\n        /* \"#utility.yul\":7469:7471   */\n      0x20\n        /* \"#utility.yul\":7458:7467   */\n      dup3\n        /* \"#utility.yul\":7454:7472   */\n      add\n        /* \"#utility.yul\":7446:7472   */\n      swap1\n      pop\n        /* \"#utility.yul\":7482:7565   */\n      tag_183\n        /* \"#utility.yul\":7562:7563   */\n      0x00\n        /* \"#utility.yul\":7551:7560   */\n      dup4\n        /* \"#utility.yul\":7547:7564   */\n      add\n        /* \"#utility.yul\":7538:7544   */\n      dup5\n        /* \"#utility.yul\":7482:7565   */\n      tag_96\n      jump\t// in\n    tag_183:\n        /* \"#utility.yul\":7326:7572   */\n      swap3\n      swap2\n      pop\n      pop\n      jump\t// out\n        /* \"#utility.yul\":7578:7758   */\n    tag_97:\n        /* \"#utility.yul\":7626:7703   */\n      0x4e487b7100000000000000000000000000000000000000000000000000000000\n        /* \"#utility.yul\":7623:7624   */\n      0x00\n        /* \"#utility.yul\":7616:7704   */\n      mstore\n        /* \"#utility.yul\":7723:7727   */\n      0x22\n        /* \"#utility.yul\":7720:7721   */\n      0x04\n        /* \"#utility.yul\":7713:7728   */\n      mstore\n        /* \"#utility.yul\":7747:7751   */\n      0x24\n        /* \"#utility.yul\":7744:7745   */\n      0x00\n        /* \"#utility.yul\":7737:7752   */\n      revert\n        /* \"#utility.yul\":7764:8084   */\n    tag_47:\n        /* \"#utility.yul\":7808:7814   */\n      0x00\n        /* \"#utility.yul\":7845:7846   */\n      0x02\n        /* \"#utility.yul\":7839:7843   */\n      dup3\n        /* \"#utility.yul\":7835:7847   */\n      div\n        /* \"#utility.yul\":7825:7847   */\n      swap1\n      pop\n        /* \"#utility.yul\":7892:7893   */\n      0x01\n        /* \"#utility.yul\":7886:7890   */\n      dup3\n        /* \"#utility.yul\":7882:7894   */\n      and\n        /* \"#utility.yul\":7913:7931   */\n      dup1\n        /* \"#utility.yul\":7903:7984   */\n      tag_186\n      jumpi\n        /* \"#utility.yul\":7969:7973   */\n      0x7f\n        /* \"#utility.yul\":7961:7967   */\n      dup3\n        /* \"#utility.yul\":7957:7974   */\n      and\n        /* \"#utility.yul\":7947:7974   */\n      swap2\n      pop\n        /* \"#utility.yul\":7903:7984   */\n    tag_186:\n        /* \"#utility.yul\":8031:8033   */\n      0x20\n        /* \"#utility.yul\":8023:8029   */\n      dup3\n        /* \"#utility.yul\":8020:8034   */\n      lt\n        /* \"#utility.yul\":8000:8018   */\n      dup2\n        /* \"#utility.yul\":7997:8035   */\n      sub\n        /* \"#utility.yul\":7994:8078   */\n      tag_187\n      jumpi\n        /* \"#utility.yul\":8050:8068   */\n      tag_188\n      tag_97\n      jump\t// in\n    tag_188:\n        /* \"#utility.yul\":7994:8078   */\n    tag_187:\n        /* \"#utility.yul\":7815:8084   */\n      pop\n        /* \"#utility.yul\":7764:8084   */\n      swap2\n      swap1\n      pop\n      jump\t// out\n\n    auxdata: 0xa2646970667358221220aba031b01023b86dd418f92a22f8c1d741eab623ea6ba355829e81e64d9e551264736f6c634300081e0033\n}\n",
				"bytecode": {
					"linkReferences": {},
					"object": "608060405260325f557ffffffffffffffffffffffffffffffffffffffffffffffffffffffffffffffffe6001556040518060400160405280600981526020017f4570696320436f696e0000000000000000000000000000000000000000000000815250600290816100709190610593565b50600160035f6101000a81548160ff021916908315150217905550426004553360055f6101000a81548173ffffffffffffffffffffffffffffffffffffffff021916908373ffffffffffffffffffffffffffffffffffffffff16021790555060405180606001604052806040518060400160405280600881526020017f457468657265756d00000000000000000000000000000000000000000000000081525081526020016040518060400160405280600681526020017f536f6c616e61000000000000000000000000000000000000000000000000000081525081526020016040518060400160405280600981526020017f436861696e6c696e6b0000000000000000000000000000000000000000000000815250815250600690600361019992919061023f565b506040518060a001604052805f60ff168152602001600160ff168152602001600260ff168152602001600360ff168152602001600460ff1681525060079060056101e4929190610296565b506001600c55603c600d55610e10600e5562015180600f5562093a806010556001601460016101000a81548160ff0219169083600281111561022957610228610662565b5b0217905550348015610239575f5ffd5b5061068f565b828054828255905f5260205f20908101928215610285579160200282015b828111156102845782518290816102749190610593565b509160200191906001019061025d565b5b50905061029291906102db565b5090565b82600581019282156102ca579160200282015b828111156102c9578251829060ff169055916020019190600101906102a9565b5b5090506102d791906102fe565b5090565b5b808211156102fa575f81816102f19190610319565b506001016102dc565b5090565b5b80821115610315575f815f9055506001016102ff565b5090565b508054610325906103ba565b5f825580601f106103365750610353565b601f0160209004905f5260205f209081019061035291906102fe565b5b50565b5f81519050919050565b7f4e487b71000000000000000000000000000000000000000000000000000000005f52604160045260245ffd5b7f4e487b71000000000000000000000000000000000000000000000000000000005f52602260045260245ffd5b5f60028204905060018216806103d157607f821691505b6020821081036103e4576103e361038d565b5b50919050565b5f819050815f5260205f209050919050565b5f6020601f8301049050919050565b5f82821b905092915050565b5f600883026104467fffffffffffffffffffffffffffffffffffffffffffffffffffffffffffffffff8261040b565b610450868361040b565b95508019841693508086168417925050509392505050565b5f819050919050565b5f819050919050565b5f61049461048f61048a84610468565b610471565b610468565b9050919050565b5f819050919050565b6104ad8361047a565b6104c16104b98261049b565b848454610417565b825550505050565b5f5f905090565b6104d86104c9565b6104e38184846104a4565b505050565b5b81811015610506576104fb5f826104d0565b6001810190506104e9565b5050565b601f82111561054b5761051c816103ea565b610525846103fc565b81016020851015610534578190505b610548610540856103fc565b8301826104e8565b50505b505050565b5f82821c905092915050565b5f61056b5f1984600802610550565b1980831691505092915050565b5f610583838361055c565b9150826002028217905092915050565b61059c82610356565b67ffffffffffffffff8111156105b5576105b4610360565b5b6105bf82546103ba565b6105ca82828561050a565b5f60209050601f8311600181146105fb575f84156105e9578287015190505b6105f38582610578565b86555061065a565b601f198416610609866103ea565b5f5b828110156106305784890151825560018201915060208501945060208101905061060b565b8683101561064d5784890151610649601f89168261055c565b8355505b6001600288020188555050505b505050505050565b7f4e487b71000000000000000000000000000000000000000000000000000000005f52602160045260245ffd5b6108a18061069c5f395ff3fe608060405234801561000f575f5ffd5b5060043610610086575f3560e01c806367e404ce1161005957806367e404ce1461013a5780639eaa400914610158578063c8d6108914610176578063c9116b691461019457610086565b80630901ed861461008a578063310495ab146100ba578063365b98b2146100ea57806348b151661461011c575b5f5ffd5b6100a4600480360381019061009f9190610587565b6101b2565b6040516100b1919061062e565b60405180910390f35b6100d460048036038101906100cf9190610681565b610265565b6040516100e1919061062e565b60405180910390f35b61010460048036038101906100ff9190610681565b61030b565b60405161011393929190610705565b60405180910390f35b6101246103f1565b6040516101319190610750565b60405180910390f35b6101426103f7565b60405161014f9190610769565b60405180910390f35b61016061041c565b60405161016d9190610750565b60405180910390f35b61017e610422565b60405161018b91906107f5565b60405180910390f35b61019c610435565b6040516101a99190610750565b60405180910390f35b6012818051602081018201805184825260208301602085012081835280955050505050505f9150905080546101e69061083b565b80601f01602080910402602001604051908101604052809291908181526020018280546102129061083b565b801561025d5780601f106102345761010080835404028352916020019161025d565b820191905f5260205f20905b81548152906001019060200180831161024057829003601f168201915b505050505081565b60068181548110610274575f80fd5b905f5260205f20015f91509050805461028c9061083b565b80601f01602080910402602001604051908101604052809291908181526020018280546102b89061083b565b80156103035780601f106102da57610100808354040283529160200191610303565b820191905f5260205f20905b8154815290600101906020018083116102e657829003601f168201915b505050505081565b6011818154811061031a575f80fd5b905f5260205f2090600302015f91509050805f015f9054906101000a900473ffffffffffffffffffffffffffffffffffffffff169080600101805461035e9061083b565b80601f016020809104026020016040519081016040528092919081815260200182805461038a9061083b565b80156103d55780601f106103ac576101008083540402835291602001916103d5565b820191905f5260205f20905b8154815290600101906020018083116103b857829003601f168201915b505050505090806002015f9054906101000a900460ff16905083565b60045481565b60055f9054906101000a900473ffffffffffffffffffffffffffffffffffffffff1681565b600f5481565b601460019054906101000a900460ff1681565b5f5481565b5f604051905090565b5f5ffd5b5f5ffd5b5f5ffd5b5f5ffd5b5f601f19601f8301169050919050565b7f4e487b71000000000000000000000000000000000000000000000000000000005f52604160045260245ffd5b61049982610453565b810181811067ffffffffffffffff821117156104b8576104b7610463565b5b80604052505050565b5f6104ca61043a565b90506104d68282610490565b919050565b5f67ffffffffffffffff8211156104f5576104f4610463565b5b6104fe82610453565b9050602081019050919050565b828183375f83830152505050565b5f61052b610526846104db565b6104c1565b9050828152602081018484840111156105475761054661044f565b5b61055284828561050b565b509392505050565b5f82601f83011261056e5761056d61044b565b5b813561057e848260208601610519565b91505092915050565b5f6020828403121561059c5761059b610443565b5b5f82013567ffffffffffffffff8111156105b9576105b8610447565b5b6105c58482850161055a565b91505092915050565b5f81519050919050565b5f82825260208201905092915050565b8281835e5f83830152505050565b5f610600826105ce565b61060a81856105d8565b935061061a8185602086016105e8565b61062381610453565b840191505092915050565b5f6020820190508181035f83015261064681846105f6565b905092915050565b5f819050919050565b6106608161064e565b811461066a575f5ffd5b50565b5f8135905061067b81610657565b92915050565b5f6020828403121561069657610695610443565b5b5f6106a38482850161066d565b91505092915050565b5f73ffffffffffffffffffffffffffffffffffffffff82169050919050565b5f6106d5826106ac565b9050919050565b6106e5816106cb565b82525050565b5f8115159050919050565b6106ff816106eb565b82525050565b5f6060820190506107185f8301866106dc565b818103602083015261072a81856105f6565b905061073960408301846106f6565b949350505050565b61074a8161064e565b82525050565b5f6020820190506107635f830184610741565b92915050565b5f60208201905061077c5f8301846106dc565b92915050565b7f4e487b71000000000000000000000000000000000000000000000000000000005f52602160045260245ffd5b600381106107c0576107bf610782565b5b50565b5f8190506107d0826107af565b919050565b5f6107df826107c3565b9050919050565b6107ef816107d5565b82525050565b5f6020820190506108085f8301846107e6565b92915050565b7f4e487b71000000000000000000000000000000000000000000000000000000005f52602260045260245ffd5b5f600282049050600182168061085257607f821691505b6020821081036108655761086461080e565b5b5091905056fea2646970667358221220aba031b01023b86dd418f92a22f8c1d741eab623ea6ba355829e81e64d9e551264736f6c634300081e0033",
					"opcodes": "PUSH1 0x80 PUSH1 0x40 MSTORE PUSH1 0x32 PUSH0 SSTORE PUSH32 0xFFFFFFFFFFFFFFFFFFFFFFFFFFFFFFFFFFFFFFFFFFFFFFFFFFFFFFFFFFFFFFFE PUSH1 0x1 SSTORE PUSH1 0x40 MLOAD DUP1 PUSH1 0x40 ADD PUSH1 0x40 MSTORE DUP1 PUSH1 0x9 DUP2 MSTORE PUSH1 0x20 ADD PUSH32 0x4570696320436F696E0000000000000000000000000000000000000000000000 DUP2 MSTORE POP PUSH1 0x2 SWAP1 DUP2 PUSH2 0x70 SWAP2 SWAP1 PUSH2 0x593 JUMP JUMPDEST POP PUSH1 0x1 PUSH1 0x3 PUSH0 PUSH2 0x100 EXP DUP2 SLOAD DUP2 PUSH1 0xFF MUL NOT AND SWAP1 DUP4 ISZERO ISZERO MUL OR SWAP1 SSTORE POP TIMESTAMP PUSH1 0x4 SSTORE CALLER PUSH1 0x5 PUSH0 PUSH2 0x100 EXP DUP2 SLOAD DUP2 PUSH20 0xFFFFFFFFFFFFFFFFFFFFFFFFFFFFFFFFFFFFFFFF MUL NOT AND SWAP1 DUP4 PUSH20 0xFFFFFFFFFFFFFFFFFFFFFFFFFFFFFFFFFFFFFFFF AND MUL OR SWAP1 SSTORE POP PUSH1 0x40 MLOAD DUP1 PUSH1 0x60 ADD PUSH1 0x40 MSTORE DUP1 PUSH1 0x40 MLOAD DUP1 PUSH1 0x40 ADD PUSH1 0x40 MSTORE DUP1 PUSH1 0x8 DUP2 MSTORE PUSH1 0x20 ADD PUSH32 0x457468657265756D000000000000000000000000000000000000000000000000 DUP2 MSTORE POP DUP2 MSTORE PUSH1 0x20 ADD PUSH1 0x40 MLOAD DUP1 PUSH1 0x40 ADD PUSH1 0x40 MSTORE DUP1 PUSH1 0x6 DUP2 MSTORE PUSH1 0x20 ADD PUSH32 0x536F6C616E610000000000000000000000000000000000000000000000000000 DUP2 MSTORE POP DUP2 MSTORE PUSH1 0x20 ADD PUSH1 0x40 MLOAD DUP1 PUSH1 0x40 ADD PUSH1 0x40 MSTORE DUP1 PUSH1 0x9 DUP2 MSTORE PUSH1 0x20 ADD PUSH32 0x436861696E6C696E6B0000000000000000000000000000000000000000000000 DUP2 MSTORE POP DUP2 MSTORE POP PUSH1 0x6 SWAP1 PUSH1 0x3 PUSH2 0x199 SWAP3 SWAP2 SWAP1 PUSH2 0x23F JUMP JUMPDEST POP PUSH1 0x40 MLOAD DUP1 PUSH1 0xA0 ADD PUSH1 0x40 MSTORE DUP1 PUSH0 PUSH1 0xFF AND DUP2 MSTORE PUSH1 0x20 ADD PUSH1 0x1 PUSH1 0xFF AND DUP2 MSTORE PUSH1 0x20 ADD PUSH1 0x2 PUSH1 0xFF AND DUP2 MSTORE PUSH1 0x20 ADD PUSH1 0x3 PUSH1 0xFF AND DUP2 MSTORE PUSH1 0x20 ADD PUSH1 0x4 PUSH1 0xFF AND DUP2 MSTORE POP PUSH1 0x7 SWAP1 PUSH1 0x5 PUSH2 0x1E4 SWAP3 SWAP2 SWAP1 PUSH2 0x296 JUMP JUMPDEST POP PUSH1 0x1 PUSH1 0xC SSTORE PUSH1 0x3C PUSH1 0xD SSTORE PUSH2 0xE10 PUSH1 0xE SSTORE PUSH3 0x15180 PUSH1 0xF SSTORE PUSH3 0x93A80 PUSH1 0x10 SSTORE PUSH1 0x1 PUSH1 0x14 PUSH1 0x1 PUSH2 0x100 EXP DUP2 SLOAD DUP2 PUSH1 0xFF MUL NOT AND SWAP1 DUP4 PUSH1 0x2 DUP2 GT ISZERO PUSH2 0x229 JUMPI PUSH2 0x228 PUSH2 0x662 JUMP JUMPDEST JUMPDEST MUL OR SWAP1 SSTORE POP CALLVALUE DUP1 ISZERO PUSH2 0x239 JUMPI PUSH0 PUSH0 REVERT JUMPDEST POP PUSH2 0x68F JUMP JUMPDEST DUP3 DUP1 SLOAD DUP3 DUP3 SSTORE SWAP1 PUSH0 MSTORE PUSH1 0x20 PUSH0 KECCAK256 SWAP1 DUP2 ADD SWAP3 DUP3 ISZERO PUSH2 0x285 JUMPI SWAP2 PUSH1 0x20 MUL DUP3 ADD JUMPDEST DUP3 DUP2 GT ISZERO PUSH2 0x284 JUMPI DUP3 MLOAD DUP3 SWAP1 DUP2 PUSH2 0x274 SWAP2 SWAP1 PUSH2 0x593 JUMP JUMPDEST POP SWAP2 PUSH1 0x20 ADD SWAP2 SWAP1 PUSH1 0x1 ADD SWAP1 PUSH2 0x25D JUMP JUMPDEST JUMPDEST POP SWAP1 POP PUSH2 0x292 SWAP2 SWAP1 PUSH2 0x2DB JUMP JUMPDEST POP SWAP1 JUMP JUMPDEST DUP3 PUSH1 0x5 DUP2 ADD SWAP3 DUP3 ISZERO PUSH2 0x2CA JUMPI SWAP2 PUSH1 0x20 MUL DUP3 ADD JUMPDEST DUP3 DUP2 GT ISZERO PUSH2 0x2C9 JUMPI DUP3 MLOAD DUP3 SWAP1 PUSH1 0xFF AND SWAP1 SSTORE SWAP2 PUSH1 0x20 ADD SWAP2 SWAP1 PUSH1 0x1 ADD SWAP1 PUSH2 0x2A9 JUMP JUMPDEST JUMPDEST POP SWAP1 POP PUSH2 0x2D7 SWAP2 SWAP1 PUSH2 0x2FE JUMP JUMPDEST POP SWAP1 JUMP JUMPDEST JUMPDEST DUP1 DUP3 GT ISZERO PUSH2 0x2FA JUMPI PUSH0 DUP2 DUP2 PUSH2 0x2F1 SWAP2 SWAP1 PUSH2 0x319 JUMP JUMPDEST POP PUSH1 0x1 ADD PUSH2 0x2DC JUMP JUMPDEST POP SWAP1 JUMP JUMPDEST JUMPDEST DUP1 DUP3 GT ISZERO PUSH2 0x315 JUMPI PUSH0 DUP2 PUSH0 SWAP1 SSTORE POP PUSH1 0x1 ADD PUSH2 0x2FF JUMP JUMPDEST POP SWAP1 JUMP JUMPDEST POP DUP1 SLOAD PUSH2 0x325 SWAP1 PUSH2 0x3BA JUMP JUMPDEST PUSH0 DUP3 SSTORE DUP1 PUSH1 0x1F LT PUSH2 0x336 JUMPI POP PUSH2 0x353 JUMP JUMPDEST PUSH1 0x1F ADD PUSH1 0x20 SWAP1 DIV SWAP1 PUSH0 MSTORE PUSH1 0x20 PUSH0 KECCAK256 SWAP1 DUP2 ADD SWAP1 PUSH2 0x352 SWAP2 SWAP1 PUSH2 0x2FE JUMP JUMPDEST JUMPDEST POP JUMP JUMPDEST PUSH0 DUP2 MLOAD SWAP1 POP SWAP2 SWAP1 POP JUMP JUMPDEST PUSH32 0x4E487B7100000000000000000000000000000000000000000000000000000000 PUSH0 MSTORE PUSH1 0x41 PUSH1 0x4 MSTORE PUSH1 0x24 PUSH0 REVERT JUMPDEST PUSH32 0x4E487B7100000000000000000000000000000000000000000000000000000000 PUSH0 MSTORE PUSH1 0x22 PUSH1 0x4 MSTORE PUSH1 0x24 PUSH0 REVERT JUMPDEST PUSH0 PUSH1 0x2 DUP3 DIV SWAP1 POP PUSH1 0x1 DUP3 AND DUP1 PUSH2 0x3D1 JUMPI PUSH1 0x7F DUP3 AND SWAP2 POP JUMPDEST PUSH1 0x20 DUP3 LT DUP2 SUB PUSH2 0x3E4 JUMPI PUSH2 0x3E3 PUSH2 0x38D JUMP JUMPDEST JUMPDEST POP SWAP2 SWAP1 POP JUMP JUMPDEST PUSH0 DUP2 SWAP1 POP DUP2 PUSH0 MSTORE PUSH1 0x20 PUSH0 KECCAK256 SWAP1 POP SWAP2 SWAP1 POP JUMP JUMPDEST PUSH0 PUSH1 0x20 PUSH1 0x1F DUP4 ADD DIV SWAP1 POP SWAP2 SWAP1 POP JUMP JUMPDEST PUSH0 DUP3 DUP3 SHL SWAP1 POP SWAP3 SWAP2 POP POP JUMP JUMPDEST PUSH0 PUSH1 0x8 DUP4 MUL PUSH2 0x446 PUSH32 0xFFFFFFFFFFFFFFFFFFFFFFFFFFFFFFFFFFFFFFFFFFFFFFFFFFFFFFFFFFFFFFFF DUP3 PUSH2 0x40B JUMP JUMPDEST PUSH2 0x450 DUP7 DUP4 PUSH2 0x40B JUMP JUMPDEST SWAP6 POP DUP1 NOT DUP5 AND SWAP4 POP DUP1 DUP7 AND DUP5 OR SWAP3 POP POP POP SWAP4 SWAP3 POP POP POP JUMP JUMPDEST PUSH0 DUP2 SWAP1 POP SWAP2 SWAP1 POP JUMP JUMPDEST PUSH0 DUP2 SWAP1 POP SWAP2 SWAP1 POP JUMP JUMPDEST PUSH0 PUSH2 0x494 PUSH2 0x48F PUSH2 0x48A DUP5 PUSH2 0x468 JUMP JUMPDEST PUSH2 0x471 JUMP JUMPDEST PUSH2 0x468 JUMP JUMPDEST SWAP1 POP SWAP2 SWAP1 POP JUMP JUMPDEST PUSH0 DUP2 SWAP1 POP SWAP2 SWAP1 POP JUMP JUMPDEST PUSH2 0x4AD DUP4 PUSH2 0x47A JUMP JUMPDEST PUSH2 0x4C1 PUSH2 0x4B9 DUP3 PUSH2 0x49B JUMP JUMPDEST DUP5 DUP5 SLOAD PUSH2 0x417 JUMP JUMPDEST DUP3 SSTORE POP POP POP POP JUMP JUMPDEST PUSH0 PUSH0 SWAP1 POP SWAP1 JUMP JUMPDEST PUSH2 0x4D8 PUSH2 0x4C9 JUMP JUMPDEST PUSH2 0x4E3 DUP2 DUP5 DUP5 PUSH2 0x4A4 JUMP JUMPDEST POP POP POP JUMP JUMPDEST JUMPDEST DUP2 DUP2 LT ISZERO PUSH2 0x506 JUMPI PUSH2 0x4FB PUSH0 DUP3 PUSH2 0x4D0 JUMP JUMPDEST PUSH1 0x1 DUP2 ADD SWAP1 POP PUSH2 0x4E9 JUMP JUMPDEST POP POP JUMP JUMPDEST PUSH1 0x1F DUP3 GT ISZERO PUSH2 0x54B JUMPI PUSH2 0x51C DUP2 PUSH2 0x3EA JUMP JUMPDEST PUSH2 0x525 DUP5 PUSH2 0x3FC JUMP JUMPDEST DUP2 ADD PUSH1 0x20 DUP6 LT ISZERO PUSH2 0x534 JUMPI DUP2 SWAP1 POP JUMPDEST PUSH2 0x548 PUSH2 0x540 DUP6 PUSH2 0x3FC JUMP JUMPDEST DUP4 ADD DUP3 PUSH2 0x4E8 JUMP JUMPDEST POP POP JUMPDEST POP POP POP JUMP JUMPDEST PUSH0 DUP3 DUP3 SHR SWAP1 POP SWAP3 SWAP2 POP POP JUMP JUMPDEST PUSH0 PUSH2 0x56B PUSH0 NOT DUP5 PUSH1 0x8 MUL PUSH2 0x550 JUMP JUMPDEST NOT DUP1 DUP4 AND SWAP2 POP POP SWAP3 SWAP2 POP POP JUMP JUMPDEST PUSH0 PUSH2 0x583 DUP4 DUP4 PUSH2 0x55C JUMP JUMPDEST SWAP2 POP DUP3 PUSH1 0x2 MUL DUP3 OR SWAP1 POP SWAP3 SWAP2 POP POP JUMP JUMPDEST PUSH2 0x59C DUP3 PUSH2 0x356 JUMP JUMPDEST PUSH8 0xFFFFFFFFFFFFFFFF DUP2 GT ISZERO PUSH2 0x5B5 JUMPI PUSH2 0x5B4 PUSH2 0x360 JUMP JUMPDEST JUMPDEST PUSH2 0x5BF DUP3 SLOAD PUSH2 0x3BA JUMP JUMPDEST PUSH2 0x5CA DUP3 DUP3 DUP6 PUSH2 0x50A JUMP JUMPDEST PUSH0 PUSH1 0x20 SWAP1 POP PUSH1 0x1F DUP4 GT PUSH1 0x1 DUP2 EQ PUSH2 0x5FB JUMPI PUSH0 DUP5 ISZERO PUSH2 0x5E9 JUMPI DUP3 DUP8 ADD MLOAD SWAP1 POP JUMPDEST PUSH2 0x5F3 DUP6 DUP3 PUSH2 0x578 JUMP JUMPDEST DUP7 SSTORE POP PUSH2 0x65A JUMP JUMPDEST PUSH1 0x1F NOT DUP5 AND PUSH2 0x609 DUP7 PUSH2 0x3EA JUMP JUMPDEST PUSH0 JUMPDEST DUP3 DUP2 LT ISZERO PUSH2 0x630 JUMPI DUP5 DUP10 ADD MLOAD DUP3 SSTORE PUSH1 0x1 DUP3 ADD SWAP2 POP PUSH1 0x20 DUP6 ADD SWAP5 POP PUSH1 0x20 DUP2 ADD SWAP1 POP PUSH2 0x60B JUMP JUMPDEST DUP7 DUP4 LT ISZERO PUSH2 0x64D JUMPI DUP5 DUP10 ADD MLOAD PUSH2 0x649 PUSH1 0x1F DUP10 AND DUP3 PUSH2 0x55C JUMP JUMPDEST DUP4 SSTORE POP JUMPDEST PUSH1 0x1 PUSH1 0x2 DUP9 MUL ADD DUP9 SSTORE POP POP POP JUMPDEST POP POP POP POP POP POP JUMP JUMPDEST PUSH32 0x4E487B7100000000000000000000000000000000000000000000000000000000 PUSH0 MSTORE PUSH1 0x21 PUSH1 0x4 MSTORE PUSH1 0x24 PUSH0 REVERT JUMPDEST PUSH2 0x8A1 DUP1 PUSH2 0x69C PUSH0 CODECOPY PUSH0 RETURN INVALID PUSH1 0x80 PUSH1 0x40 MSTORE CALLVALUE DUP1 ISZERO PUSH2 0xF JUMPI PUSH0 PUSH0 REVERT JUMPDEST POP PUSH1 0x4 CALLDATASIZE LT PUSH2 0x86 JUMPI PUSH0 CALLDATALOAD PUSH1 0xE0 SHR DUP1 PUSH4 0x67E404CE GT PUSH2 0x59 JUMPI DUP1 PUSH4 0x67E404CE EQ PUSH2 0x13A JUMPI DUP1 PUSH4 0x9EAA4009 EQ PUSH2 0x158 JUMPI DUP1 PUSH4 0xC8D61089 EQ PUSH2 0x176 JUMPI DUP1 PUSH4 0xC9116B69 EQ PUSH2 0x194 JUMPI PUSH2 0x86 JUMP JUMPDEST DUP1 PUSH4 0x901ED86 EQ PUSH2 0x8A JUMPI DUP1 PUSH4 0x310495AB EQ PUSH2 0xBA JUMPI DUP1 PUSH4 0x365B98B2 EQ PUSH2 0xEA JUMPI DUP1 PUSH4 0x48B15166 EQ PUSH2 0x11C JUMPI JUMPDEST PUSH0 PUSH0 REVERT JUMPDEST PUSH2 0xA4 PUSH1 0x4 DUP1 CALLDATASIZE SUB DUP2 ADD SWAP1 PUSH2 0x9F SWAP2 SWAP1 PUSH2 0x587 JUMP JUMPDEST PUSH2 0x1B2 JUMP JUMPDEST PUSH1 0x40 MLOAD PUSH2 0xB1 SWAP2 SWAP1 PUSH2 0x62E JUMP JUMPDEST PUSH1 0x40 MLOAD DUP1 SWAP2 SUB SWAP1 RETURN JUMPDEST PUSH2 0xD4 PUSH1 0x4 DUP1 CALLDATASIZE SUB DUP2 ADD SWAP1 PUSH2 0xCF SWAP2 SWAP1 PUSH2 0x681 JUMP JUMPDEST PUSH2 0x265 JUMP JUMPDEST PUSH1 0x40 MLOAD PUSH2 0xE1 SWAP2 SWAP1 PUSH2 0x62E JUMP JUMPDEST PUSH1 0x40 MLOAD DUP1 SWAP2 SUB SWAP1 RETURN JUMPDEST PUSH2 0x104 PUSH1 0x4 DUP1 CALLDATASIZE SUB DUP2 ADD SWAP1 PUSH2 0xFF SWAP2 SWAP1 PUSH2 0x681 JUMP JUMPDEST PUSH2 0x30B JUMP JUMPDEST PUSH1 0x40 MLOAD PUSH2 0x113 SWAP4 SWAP3 SWAP2 SWAP1 PUSH2 0x705 JUMP JUMPDEST PUSH1 0x40 MLOAD DUP1 SWAP2 SUB SWAP1 RETURN JUMPDEST PUSH2 0x124 PUSH2 0x3F1 JUMP JUMPDEST PUSH1 0x40 MLOAD PUSH2 0x131 SWAP2 SWAP1 PUSH2 0x750 JUMP JUMPDEST PUSH1 0x40 MLOAD DUP1 SWAP2 SUB SWAP1 RETURN JUMPDEST PUSH2 0x142 PUSH2 0x3F7 JUMP JUMPDEST PUSH1 0x40 MLOAD PUSH2 0x14F SWAP2 SWAP1 PUSH2 0x769 JUMP JUMPDEST PUSH1 0x40 MLOAD DUP1 SWAP2 SUB SWAP1 RETURN JUMPDEST PUSH2 0x160 PUSH2 0x41C JUMP JUMPDEST PUSH1 0x40 MLOAD PUSH2 0x16D SWAP2 SWAP1 PUSH2 0x750 JUMP JUMPDEST PUSH1 0x40 MLOAD DUP1 SWAP2 SUB SWAP1 RETURN JUMPDEST PUSH2 0x17E PUSH2 0x422 JUMP JUMPDEST PUSH1 0x40 MLOAD PUSH2 0x18B SWAP2 SWAP1 PUSH2 0x7F5 JUMP JUMPDEST PUSH1 0x40 MLOAD DUP1 SWAP2 SUB SWAP1 RETURN JUMPDEST PUSH2 0x19C PUSH2 0x435 JUMP JUMPDEST PUSH1 0x40 MLOAD PUSH2 0x1A9 SWAP2 SWAP1 PUSH2 0x750 JUMP JUMPDEST PUSH1 0x40 MLOAD DUP1 SWAP2 SUB SWAP1 RETURN JUMPDEST PUSH1 0x12 DUP2 DUP1 MLOAD PUSH1 0x20 DUP2 ADD DUP3 ADD DUP1 MLOAD DUP5 DUP3 MSTORE PUSH1 0x20 DUP4 ADD PUSH1 0x20 DUP6 ADD KECCAK256 DUP2 DUP4 MSTORE DUP1 SWAP6 POP POP POP POP POP POP PUSH0 SWAP2 POP SWAP1 POP DUP1 SLOAD PUSH2 0x1E6 SWAP1 PUSH2 0x83B JUMP JUMPDEST DUP1 PUSH1 0x1F ADD PUSH1 0x20 DUP1 SWAP2 DIV MUL PUSH1 0x20 ADD PUSH1 0x40 MLOAD SWAP1 DUP2 ADD PUSH1 0x40 MSTORE DUP1 SWAP3 SWAP2 SWAP1 DUP2 DUP2 MSTORE PUSH1 0x20 ADD DUP3 DUP1 SLOAD PUSH2 0x212 SWAP1 PUSH2 0x83B JUMP JUMPDEST DUP1 ISZERO PUSH2 0x25D JUMPI DUP1 PUSH1 0x1F LT PUSH2 0x234 JUMPI PUSH2 0x100 DUP1 DUP4 SLOAD DIV MUL DUP4 MSTORE SWAP2 PUSH1 0x20 ADD SWAP2 PUSH2 0x25D JUMP JUMPDEST DUP3 ADD SWAP2 SWAP1 PUSH0 MSTORE PUSH1 0x20 PUSH0 KECCAK256 SWAP1 JUMPDEST DUP2 SLOAD DUP2 MSTORE SWAP1 PUSH1 0x1 ADD SWAP1 PUSH1 0x20 ADD DUP1 DUP4 GT PUSH2 0x240 JUMPI DUP3 SWAP1 SUB PUSH1 0x1F AND DUP3 ADD SWAP2 JUMPDEST POP POP POP POP POP DUP2 JUMP JUMPDEST PUSH1 0x6 DUP2 DUP2 SLOAD DUP2 LT PUSH2 0x274 JUMPI PUSH0 DUP1 REVERT JUMPDEST SWAP1 PUSH0 MSTORE PUSH1 0x20 PUSH0 KECCAK256 ADD PUSH0 SWAP2 POP SWAP1 POP DUP1 SLOAD PUSH2 0x28C SWAP1 PUSH2 0x83B JUMP JUMPDEST DUP1 PUSH1 0x1F ADD PUSH1 0x20 DUP1 SWAP2 DIV MUL PUSH1 0x20 ADD PUSH1 0x40 MLOAD SWAP1 DUP2 ADD PUSH1 0x40 MSTORE DUP1 SWAP3 SWAP2 SWAP1 DUP2 DUP2 MSTORE PUSH1 0x20 ADD DUP3 DUP1 SLOAD PUSH2 0x2B8 SWAP1 PUSH2 0x83B JUMP JUMPDEST DUP1 ISZERO PUSH2 0x303 JUMPI DUP1 PUSH1 0x1F LT PUSH2 0x2DA JUMPI PUSH2 0x100 DUP1 DUP4 SLOAD DIV MUL DUP4 MSTORE SWAP2 PUSH1 0x20 ADD SWAP2 PUSH2 0x303 JUMP JUMPDEST DUP3 ADD SWAP2 SWAP1 PUSH0 MSTORE PUSH1 0x20 PUSH0 KECCAK256 SWAP1 JUMPDEST DUP2 SLOAD DUP2 MSTORE SWAP1 PUSH1 0x1 ADD SWAP1 PUSH1 0x20 ADD DUP1 DUP4 GT PUSH2 0x2E6 JUMPI DUP3 SWAP1 SUB PUSH1 0x1F AND DUP3 ADD SWAP2 JUMPDEST POP POP POP POP POP DUP2 JUMP JUMPDEST PUSH1 0x11 DUP2 DUP2 SLOAD DUP2 LT PUSH2 0x31A JUMPI PUSH0 DUP1 REVERT JUMPDEST SWAP1 PUSH0 MSTORE PUSH1 0x20 PUSH0 KECCAK256 SWAP1 PUSH1 0x3 MUL ADD PUSH0 SWAP2 POP SWAP1 POP DUP1 PUSH0 ADD PUSH0 SWAP1 SLOAD SWAP1 PUSH2 0x100 EXP SWAP1 DIV PUSH20 0xFFFFFFFFFFFFFFFFFFFFFFFFFFFFFFFFFFFFFFFF AND SWAP1 DUP1 PUSH1 0x1 ADD DUP1 SLOAD PUSH2 0x35E SWAP1 PUSH2 0x83B JUMP JUMPDEST DUP1 PUSH1 0x1F ADD PUSH1 0x20 DUP1 SWAP2 DIV MUL PUSH1 0x20 ADD PUSH1 0x40 MLOAD SWAP1 DUP2 ADD PUSH1 0x40 MSTORE DUP1 SWAP3 SWAP2 SWAP1 DUP2 DUP2 MSTORE PUSH1 0x20 ADD DUP3 DUP1 SLOAD PUSH2 0x38A SWAP1 PUSH2 0x83B JUMP JUMPDEST DUP1 ISZERO PUSH2 0x3D5 JUMPI DUP1 PUSH1 0x1F LT PUSH2 0x3AC JUMPI PUSH2 0x100 DUP1 DUP4 SLOAD DIV MUL DUP4 MSTORE SWAP2 PUSH1 0x20 ADD SWAP2 PUSH2 0x3D5 JUMP JUMPDEST DUP3 ADD SWAP2 SWAP1 PUSH0 MSTORE PUSH1 0x20 PUSH0 KECCAK256 SWAP1 JUMPDEST DUP2 SLOAD DUP2 MSTORE SWAP1 PUSH1 0x1 ADD SWAP1 PUSH1 0x20 ADD DUP1 DUP4 GT PUSH2 0x3B8 JUMPI DUP3 SWAP1 SUB PUSH1 0x1F AND DUP3 ADD SWAP2 JUMPDEST POP POP POP POP POP SWAP1 DUP1 PUSH1 0x2 ADD PUSH0 SWAP1 SLOAD SWAP1 PUSH2 0x100 EXP SWAP1 DIV PUSH1 0xFF AND SWAP1 POP DUP4 JUMP JUMPDEST PUSH1 0x4 SLOAD DUP2 JUMP JUMPDEST PUSH1 0x5 PUSH0 SWAP1 SLOAD SWAP1 PUSH2 0x100 EXP SWAP1 DIV PUSH20 0xFFFFFFFFFFFFFFFFFFFFFFFFFFFFFFFFFFFFFFFF AND DUP2 JUMP JUMPDEST PUSH1 0xF SLOAD DUP2 JUMP JUMPDEST PUSH1 0x14 PUSH1 0x1 SWAP1 SLOAD SWAP1 PUSH2 0x100 EXP SWAP1 DIV PUSH1 0xFF AND DUP2 JUMP JUMPDEST PUSH0 SLOAD DUP2 JUMP JUMPDEST PUSH0 PUSH1 0x40 MLOAD SWAP1 POP SWAP1 JUMP JUMPDEST PUSH0 PUSH0 REVERT JUMPDEST PUSH0 PUSH0 REVERT JUMPDEST PUSH0 PUSH0 REVERT JUMPDEST PUSH0 PUSH0 REVERT JUMPDEST PUSH0 PUSH1 0x1F NOT PUSH1 0x1F DUP4 ADD AND SWAP1 POP SWAP2 SWAP1 POP JUMP JUMPDEST PUSH32 0x4E487B7100000000000000000000000000000000000000000000000000000000 PUSH0 MSTORE PUSH1 0x41 PUSH1 0x4 MSTORE PUSH1 0x24 PUSH0 REVERT JUMPDEST PUSH2 0x499 DUP3 PUSH2 0x453 JUMP JUMPDEST DUP2 ADD DUP2 DUP2 LT PUSH8 0xFFFFFFFFFFFFFFFF DUP3 GT OR ISZERO PUSH2 0x4B8 JUMPI PUSH2 0x4B7 PUSH2 0x463 JUMP JUMPDEST JUMPDEST DUP1 PUSH1 0x40 MSTORE POP POP POP JUMP JUMPDEST PUSH0 PUSH2 0x4CA PUSH2 0x43A JUMP JUMPDEST SWAP1 POP PUSH2 0x4D6 DUP3 DUP3 PUSH2 0x490 JUMP JUMPDEST SWAP2 SWAP1 POP JUMP JUMPDEST PUSH0 PUSH8 0xFFFFFFFFFFFFFFFF DUP3 GT ISZERO PUSH2 0x4F5 JUMPI PUSH2 0x4F4 PUSH2 0x463 JUMP JUMPDEST JUMPDEST PUSH2 0x4FE DUP3 PUSH2 0x453 JUMP JUMPDEST SWAP1 POP PUSH1 0x20 DUP2 ADD SWAP1 POP SWAP2 SWAP1 POP JUMP JUMPDEST DUP3 DUP2 DUP4 CALLDATACOPY PUSH0 DUP4 DUP4 ADD MSTORE POP POP POP JUMP JUMPDEST PUSH0 PUSH2 0x52B PUSH2 0x526 DUP5 PUSH2 0x4DB JUMP JUMPDEST PUSH2 0x4C1 JUMP JUMPDEST SWAP1 POP DUP3 DUP2 MSTORE PUSH1 0x20 DUP2 ADD DUP5 DUP5 DUP5 ADD GT ISZERO PUSH2 0x547 JUMPI PUSH2 0x546 PUSH2 0x44F JUMP JUMPDEST JUMPDEST PUSH2 0x552 DUP5 DUP3 DUP6 PUSH2 0x50B JUMP JUMPDEST POP SWAP4 SWAP3 POP POP POP JUMP JUMPDEST PUSH0 DUP3 PUSH1 0x1F DUP4 ADD SLT PUSH2 0x56E JUMPI PUSH2 0x56D PUSH2 0x44B JUMP JUMPDEST JUMPDEST DUP2 CALLDATALOAD PUSH2 0x57E DUP5 DUP3 PUSH1 0x20 DUP7 ADD PUSH2 0x519 JUMP JUMPDEST SWAP2 POP POP SWAP3 SWAP2 POP POP JUMP JUMPDEST PUSH0 PUSH1 0x20 DUP3 DUP5 SUB SLT ISZERO PUSH2 0x59C JUMPI PUSH2 0x59B PUSH2 0x443 JUMP JUMPDEST JUMPDEST PUSH0 DUP3 ADD CALLDATALOAD PUSH8 0xFFFFFFFFFFFFFFFF DUP2 GT ISZERO PUSH2 0x5B9 JUMPI PUSH2 0x5B8 PUSH2 0x447 JUMP JUMPDEST JUMPDEST PUSH2 0x5C5 DUP5 DUP3 DUP6 ADD PUSH2 0x55A JUMP JUMPDEST SWAP2 POP POP SWAP3 SWAP2 POP POP JUMP JUMPDEST PUSH0 DUP2 MLOAD SWAP1 POP SWAP2 SWAP1 POP JUMP JUMPDEST PUSH0 DUP3 DUP3 MSTORE PUSH1 0x20 DUP3 ADD SWAP1 POP SWAP3 SWAP2 POP POP JUMP JUMPDEST DUP3 DUP2 DUP4 MCOPY PUSH0 DUP4 DUP4 ADD MSTORE POP POP POP JUMP JUMPDEST PUSH0 PUSH2 0x600 DUP3 PUSH2 0x5CE JUMP JUMPDEST PUSH2 0x60A DUP2 DUP6 PUSH2 0x5D8 JUMP JUMPDEST SWAP4 POP PUSH2 0x61A DUP2 DUP6 PUSH1 0x20 DUP7 ADD PUSH2 0x5E8 JUMP JUMPDEST PUSH2 0x623 DUP2 PUSH2 0x453 JUMP JUMPDEST DUP5 ADD SWAP2 POP POP SWAP3 SWAP2 POP POP JUMP JUMPDEST PUSH0 PUSH1 0x20 DUP3 ADD SWAP1 POP DUP2 DUP2 SUB PUSH0 DUP4 ADD MSTORE PUSH2 0x646 DUP2 DUP5 PUSH2 0x5F6 JUMP JUMPDEST SWAP1 POP SWAP3 SWAP2 POP POP JUMP JUMPDEST PUSH0 DUP2 SWAP1 POP SWAP2 SWAP1 POP JUMP JUMPDEST PUSH2 0x660 DUP2 PUSH2 0x64E JUMP JUMPDEST DUP2 EQ PUSH2 0x66A JUMPI PUSH0 PUSH0 REVERT JUMPDEST POP JUMP JUMPDEST PUSH0 DUP2 CALLDATALOAD SWAP1 POP PUSH2 0x67B DUP2 PUSH2 0x657 JUMP JUMPDEST SWAP3 SWAP2 POP POP JUMP JUMPDEST PUSH0 PUSH1 0x20 DUP3 DUP5 SUB SLT ISZERO PUSH2 0x696 JUMPI PUSH2 0x695 PUSH2 0x443 JUMP JUMPDEST JUMPDEST PUSH0 PUSH2 0x6A3 DUP5 DUP3 DUP6 ADD PUSH2 0x66D JUMP JUMPDEST SWAP2 POP POP SWAP3 SWAP2 POP POP JUMP JUMPDEST PUSH0 PUSH20 0xFFFFFFFFFFFFFFFFFFFFFFFFFFFFFFFFFFFFFFFF DUP3 AND SWAP1 POP SWAP2 SWAP1 POP JUMP JUMPDEST PUSH0 PUSH2 0x6D5 DUP3 PUSH2 0x6AC JUMP JUMPDEST SWAP1 POP SWAP2 SWAP1 POP JUMP JUMPDEST PUSH2 0x6E5 DUP2 PUSH2 0x6CB JUMP JUMPDEST DUP3 MSTORE POP POP JUMP JUMPDEST PUSH0 DUP2 ISZERO ISZERO SWAP1 POP SWAP2 SWAP1 POP JUMP JUMPDEST PUSH2 0x6FF DUP2 PUSH2 0x6EB JUMP JUMPDEST DUP3 MSTORE POP POP JUMP JUMPDEST PUSH0 PUSH1 0x60 DUP3 ADD SWAP1 POP PUSH2 0x718 PUSH0 DUP4 ADD DUP7 PUSH2 0x6DC JUMP JUMPDEST DUP2 DUP2 SUB PUSH1 0x20 DUP4 ADD MSTORE PUSH2 0x72A DUP2 DUP6 PUSH2 0x5F6 JUMP JUMPDEST SWAP1 POP PUSH2 0x739 PUSH1 0x40 DUP4 ADD DUP5 PUSH2 0x6F6 JUMP JUMPDEST SWAP5 SWAP4 POP POP POP POP JUMP JUMPDEST PUSH2 0x74A DUP2 PUSH2 0x64E JUMP JUMPDEST DUP3 MSTORE POP POP JUMP JUMPDEST PUSH0 PUSH1 0x20 DUP3 ADD SWAP1 POP PUSH2 0x763 PUSH0 DUP4 ADD DUP5 PUSH2 0x741 JUMP JUMPDEST SWAP3 SWAP2 POP POP JUMP JUMPDEST PUSH0 PUSH1 0x20 DUP3 ADD SWAP1 POP PUSH2 0x77C PUSH0 DUP4 ADD DUP5 PUSH2 0x6DC JUMP JUMPDEST SWAP3 SWAP2 POP POP JUMP JUMPDEST PUSH32 0x4E487B7100000000000000000000000000000000000000000000000000000000 PUSH0 MSTORE PUSH1 0x21 PUSH1 0x4 MSTORE PUSH1 0x24 PUSH0 REVERT JUMPDEST PUSH1 0x3 DUP2 LT PUSH2 0x7C0 JUMPI PUSH2 0x7BF PUSH2 0x782 JUMP JUMPDEST JUMPDEST POP JUMP JUMPDEST PUSH0 DUP2 SWAP1 POP PUSH2 0x7D0 DUP3 PUSH2 0x7AF JUMP JUMPDEST SWAP2 SWAP1 POP JUMP JUMPDEST PUSH0 PUSH2 0x7DF DUP3 PUSH2 0x7C3 JUMP JUMPDEST SWAP1 POP SWAP2 SWAP1 POP JUMP JUMPDEST PUSH2 0x7EF DUP2 PUSH2 0x7D5 JUMP JUMPDEST DUP3 MSTORE POP POP JUMP JUMPDEST PUSH0 PUSH1 0x20 DUP3 ADD SWAP1 POP PUSH2 0x808 PUSH0 DUP4 ADD DUP5 PUSH2 0x7E6 JUMP JUMPDEST SWAP3 SWAP2 POP POP JUMP JUMPDEST PUSH32 0x4E487B7100000000000000000000000000000000000000000000000000000000 PUSH0 MSTORE PUSH1 0x22 PUSH1 0x4 MSTORE PUSH1 0x24 PUSH0 REVERT JUMPDEST PUSH0 PUSH1 0x2 DUP3 DIV SWAP1 POP PUSH1 0x1 DUP3 AND DUP1 PUSH2 0x852 JUMPI PUSH1 0x7F DUP3 AND SWAP2 POP JUMPDEST PUSH1 0x20 DUP3 LT DUP2 SUB PUSH2 0x865 JUMPI PUSH2 0x864 PUSH2 0x80E JUMP JUMPDEST JUMPDEST POP SWAP2 SWAP1 POP JUMP INVALID LOG2 PUSH5 0x6970667358 0x22 SLT KECCAK256 0xAB LOG0 BALANCE 0xB0 LT 0x23 0xB8 PUSH14 0xD418F92A22F8C1D741EAB623EA6B LOG3 SSTORE DUP3 SWAP15 DUP2 DUPN 0x4D SWAP15 SSTORE SLT PUSH5 0x736F6C6343 STOP ADDMOD 0x1E STOP CALLER "
				},
				"gasEstimates": {
					"creation": {
						"codeDepositCost": "441800",
						"executionCost": "infinite",
						"totalCost": "infinite"
					},
					"external": {
						"accountNameMap(string)": "infinite",
						"blockTime()": "2492",
						"defaultTrustLevel()": "2649",
						"myBalance()": "2490",
						"sender()": "2508",
						"timeNowOneDay()": "2447",
						"tokenNames(uint256)": "infinite",
						"users(uint256)": "infinite"
					}
				},
				"methodIdentifiers": {
					"accountNameMap(string)": "0901ed86",
					"blockTime()": "48b15166",
					"defaultTrustLevel()": "c8d61089",
					"myBalance()": "c9116b69",
					"sender()": "67e404ce",
					"timeNowOneDay()": "9eaa4009",
					"tokenNames(uint256)": "310495ab",
					"users(uint256)": "365b98b2"
				}
			},
			"storageLayout": {
				"storage": [
					{
						"astId": 4,
						"contract": "contracts/Basics101.sol:Basics101",
						"label": "myBalance",
						"offset": 0,
						"slot": "0",
						"type": "t_uint256"
					},
					{
						"astId": 8,
						"contract": "contracts/Basics101.sol:Basics101",
						"label": "transactionAmount",
						"offset": 0,
						"slot": "1",
						"type": "t_int256"
					},
					{
						"astId": 11,
						"contract": "contracts/Basics101.sol:Basics101",
						"label": "coinName",
						"offset": 0,
						"slot": "2",
						"type": "t_string_storage"
					},
					{
						"astId": 14,
						"contract": "contracts/Basics101.sol:Basics101",
						"label": "isValid",
						"offset": 0,
						"slot": "3",
						"type": "t_bool"
					},
					{
						"astId": 18,
						"contract": "contracts/Basics101.sol:Basics101",
						"label": "blockTime",
						"offset": 0,
						"slot": "4",
						"type": "t_uint256"
					},
					{
						"astId": 22,
						"contract": "contracts/Basics101.sol:Basics101",
						"label": "sender",
						"offset": 0,
						"slot": "5",
						"type": "t_address"
					},
					{
						"astId": 29,
						"contract": "contracts/Basics101.sol:Basics101",
						"label": "tokenNames",
						"offset": 0,
						"slot": "6",
						"type": "t_array(t_string_storage)dyn_storage"
					},
					{
						"astId": 39,
						"contract": "contracts/Basics101.sol:Basics101",
						"label": "levels",
						"offset": 0,
						"slot": "7",
						"type": "t_array(t_uint256)5_storage"
					},
					{
						"astId": 42,
						"contract": "contracts/Basics101.sol:Basics101",
						"label": "timeNowOneSecond",
						"offset": 0,
						"slot": "12",
						"type": "t_uint256"
					},
					{
						"astId": 45,
						"contract": "contracts/Basics101.sol:Basics101",
						"label": "timeNowOneMinute",
						"offset": 0,
						"slot": "13",
						"type": "t_uint256"
					},
					{
						"astId": 48,
						"contract": "contracts/Basics101.sol:Basics101",
						"label": "timeNowOneHour",
						"offset": 0,
						"slot": "14",
						"type": "t_uint256"
					},
					{
						"astId": 51,
						"contract": "contracts/Basics101.sol:Basics101",
						"label": "timeNowOneDay",
						"offset": 0,
						"slot": "15",
						"type": "t_uint256"
					},
					{
						"astId": 54,
						"contract": "contracts/Basics101.sol:Basics101",
						"label": "timeNowOneWeek",
						"offset": 0,
						"slot": "16",
						"type": "t_uint256"
					},
					{
						"astId": 65,
						"contract": "contracts/Basics101.sol:Basics101",
						"label": "users",
						"offset": 0,
						"slot": "17",
						"type": "t_array(t_struct(User)61_storage)dyn_storage"
					},
					{
						"astId": 69,
						"contract": "contracts/Basics101.sol:Basics101",
						"label": "accountNameMap",
						"offset": 0,
						"slot": "18",
						"type": "t_mapping(t_string_memory_ptr,t_string_storage)"
					},
					{
						"astId": 76,
						"contract": "contracts/Basics101.sol:Basics101",
						"label": "userNestedMap",
						"offset": 0,
						"slot": "19",
						"type": "t_mapping(t_address,t_mapping(t_string_memory_ptr,t_struct(User)61_storage))"
					},
					{
						"astId": 83,
						"contract": "contracts/Basics101.sol:Basics101",
						"label": "trustLevel",
						"offset": 0,
						"slot": "20",
						"type": "t_enum(coinRanking)80"
					},
					{
						"astId": 88,
						"contract": "contracts/Basics101.sol:Basics101",
						"label": "defaultTrustLevel",
						"offset": 1,
						"slot": "20",
						"type": "t_enum(coinRanking)80"
					}
				],
				"types": {
					"t_address": {
						"encoding": "inplace",
						"label": "address",
						"numberOfBytes": "20"
					},
					"t_array(t_string_storage)dyn_storage": {
						"base": "t_string_storage",
						"encoding": "dynamic_array",
						"label": "string[]",
						"numberOfBytes": "32"
					},
					"t_array(t_struct(User)61_storage)dyn_storage": {
						"base": "t_struct(User)61_storage",
						"encoding": "dynamic_array",
						"label": "struct Basics101.User[]",
						"numberOfBytes": "32"
					},
					"t_array(t_uint256)5_storage": {
						"base": "t_uint256",
						"encoding": "inplace",
						"label": "uint256[5]",
						"numberOfBytes": "160"
					},
					"t_bool": {
						"encoding": "inplace",
						"label": "bool",
						"numberOfBytes": "1"
					},
					"t_enum(coinRanking)80": {
						"encoding": "inplace",
						"label": "enum Basics101.coinRanking",
						"numberOfBytes": "1"
					},
					"t_int256": {
						"encoding": "inplace",
						"label": "int256",
						"numberOfBytes": "32"
					},
					"t_mapping(t_address,t_mapping(t_string_memory_ptr,t_struct(User)61_storage))": {
						"encoding": "mapping",
						"key": "t_address",
						"label": "mapping(address => mapping(string => struct Basics101.User))",
						"numberOfBytes": "32",
						"value": "t_mapping(t_string_memory_ptr,t_struct(User)61_storage)"
					},
					"t_mapping(t_string_memory_ptr,t_string_storage)": {
						"encoding": "mapping",
						"key": "t_string_memory_ptr",
						"label": "mapping(string => string)",
						"numberOfBytes": "32",
						"value": "t_string_storage"
					},
					"t_mapping(t_string_memory_ptr,t_struct(User)61_storage)": {
						"encoding": "mapping",
						"key": "t_string_memory_ptr",
						"label": "mapping(string => struct Basics101.User)",
						"numberOfBytes": "32",
						"value": "t_struct(User)61_storage"
					},
					"t_string_memory_ptr": {
						"encoding": "bytes",
						"label": "string",
						"numberOfBytes": "32"
					},
					"t_string_storage": {
						"encoding": "bytes",
						"label": "string",
						"numberOfBytes": "32"
					},
					"t_struct(User)61_storage": {
						"encoding": "inplace",
						"label": "struct Basics101.User",
						"members": [
							{
								"astId": 56,
								"contract": "contracts/Basics101.sol:Basics101",
								"label": "userAddress",
								"offset": 0,
								"slot": "0",
								"type": "t_address"
							},
							{
								"astId": 58,
								"contract": "contracts/Basics101.sol:Basics101",
								"label": "name",
								"offset": 0,
								"slot": "1",
								"type": "t_string_storage"
							},
							{
								"astId": 60,
								"contract": "contracts/Basics101.sol:Basics101",
								"label": "hasTraded",
								"offset": 0,
								"slot": "2",
								"type": "t_bool"
							}
						],
						"numberOfBytes": "96"
					},
					"t_uint256": {
						"encoding": "inplace",
						"label": "uint256",
						"numberOfBytes": "32"
					}
				}
			},
			"userdoc": {
				"kind": "user",
				"methods": {},
				"version": 1
			}
		}
	}
}