{
	"contracts/BasicInheritance.sol": {
		"MyEpicToken": {
			"abi": [
				{
					"inputs": [
						{
							"internalType": "uint256",
							"name": "ss",
							"type": "uint256"
						},
						{
							"internalType": "uint256",
							"name": "ms",
							"type": "uint256"
						}
					],
					"stateMutability": "nonpayable",
					"type": "constructor"
				},
				{
					"inputs": [],
					"name": "getAvailableSupply",
					"outputs": [
						{
							"internalType": "uint256",
							"name": "",
							"type": "uint256"
						}
					],
					"stateMutability": "view",
					"type": "function"
				},
				{
					"inputs": [],
					"name": "getMaxSupply",
					"outputs": [
						{
							"internalType": "uint256",
							"name": "",
							"type": "uint256"
						}
					],
					"stateMutability": "view",
					"type": "function"
				}
			],
			"devdoc": {
				"kind": "dev",
				"methods": {},
				"version": 1
			},
			"evm": {
				"assembly": "    /* \"contracts/BasicInheritance.sol\":275:606  contract MyEpicToken is myEpicCoin { // is | is used to inherit another contract... */\n  mstore(0x40, 0x80)\n    /* \"contracts/BasicInheritance.sol\":360:412  constructor(uint ss, uint ms) myEpicCoin (ss, ms) {} */\n  callvalue\n  dup1\n  iszero\n  tag_1\n  jumpi\n  revert(0x00, 0x00)\ntag_1:\n  pop\n  mload(0x40)\n  sub(codesize, bytecodeSize)\n  dup1\n  bytecodeSize\n  dup4\n  codecopy\n  dup2\n  dup2\n  add\n  0x40\n  mstore\n  dup2\n  add\n  swap1\n  tag_2\n  swap2\n  swap1\n  tag_3\n  jump\t// in\ntag_2:\n    /* \"contracts/BasicInheritance.sol\":402:404  ss */\n  dup2\n    /* \"contracts/BasicInheritance.sol\":406:408  ms */\n  dup2\n    /* \"contracts/BasicInheritance.sol\":217:232  _startingSupply */\n  dup2\n    /* \"contracts/BasicInheritance.sol\":199:214  availableSupply */\n  0x00\n    /* \"contracts/BasicInheritance.sol\":199:232  availableSupply = _startingSupply */\n  dup2\n  swap1\n  sstore\n  pop\n    /* \"contracts/BasicInheritance.sol\":254:264  _maxSupply */\n  dup1\n    /* \"contracts/BasicInheritance.sol\":242:251  maxSupply */\n  0x01\n    /* \"contracts/BasicInheritance.sol\":242:264  maxSupply = _maxSupply */\n  dup2\n  swap1\n  sstore\n  pop\n    /* \"contracts/BasicInheritance.sol\":138:271  constructor(uint _startingSupply, uint _maxSupply) {... */\n  pop\n  pop\n    /* \"contracts/BasicInheritance.sol\":360:412  constructor(uint ss, uint ms) myEpicCoin (ss, ms) {} */\n  pop\n  pop\n    /* \"contracts/BasicInheritance.sol\":275:606  contract MyEpicToken is myEpicCoin { // is | is used to inherit another contract... */\n  jump(tag_8)\n    /* \"#utility.yul\":88:205   */\ntag_10:\n    /* \"#utility.yul\":197:198   */\n  0x00\n    /* \"#utility.yul\":194:195   */\n  0x00\n    /* \"#utility.yul\":187:199   */\n  revert\n    /* \"#utility.yul\":334:411   */\ntag_12:\n    /* \"#utility.yul\":371:378   */\n  0x00\n    /* \"#utility.yul\":400:405   */\n  dup2\n    /* \"#utility.yul\":389:405   */\n  swap1\n  pop\n    /* \"#utility.yul\":334:411   */\n  swap2\n  swap1\n  pop\n  jump\t// out\n    /* \"#utility.yul\":417:539   */\ntag_13:\n    /* \"#utility.yul\":490:514   */\n  tag_21\n    /* \"#utility.yul\":508:513   */\n  dup2\n    /* \"#utility.yul\":490:514   */\n  tag_12\n  jump\t// in\ntag_21:\n    /* \"#utility.yul\":483:488   */\n  dup2\n    /* \"#utility.yul\":480:515   */\n  eq\n    /* \"#utility.yul\":470:533   */\n  tag_22\n  jumpi\n    /* \"#utility.yul\":529:530   */\n  0x00\n    /* \"#utility.yul\":526:527   */\n  0x00\n    /* \"#utility.yul\":519:531   */\n  revert\n    /* \"#utility.yul\":470:533   */\ntag_22:\n    /* \"#utility.yul\":417:539   */\n  pop\n  jump\t// out\n    /* \"#utility.yul\":545:688   */\ntag_14:\n    /* \"#utility.yul\":602:607   */\n  0x00\n    /* \"#utility.yul\":633:639   */\n  dup2\n    /* \"#utility.yul\":627:640   */\n  mload\n    /* \"#utility.yul\":618:640   */\n  swap1\n  pop\n    /* \"#utility.yul\":649:682   */\n  tag_24\n    /* \"#utility.yul\":676:681   */\n  dup2\n    /* \"#utility.yul\":649:682   */\n  tag_13\n  jump\t// in\ntag_24:\n    /* \"#utility.yul\":545:688   */\n  swap3\n  swap2\n  pop\n  pop\n  jump\t// out\n    /* \"#utility.yul\":694:1201   */\ntag_3:\n    /* \"#utility.yul\":773:779   */\n  0x00\n    /* \"#utility.yul\":781:787   */\n  0x00\n    /* \"#utility.yul\":830:832   */\n  0x40\n    /* \"#utility.yul\":818:827   */\n  dup4\n    /* \"#utility.yul\":809:816   */\n  dup6\n    /* \"#utility.yul\":805:828   */\n  sub\n    /* \"#utility.yul\":801:833   */\n  slt\n    /* \"#utility.yul\":798:917   */\n  iszero\n  tag_26\n  jumpi\n    /* \"#utility.yul\":836:915   */\n  tag_27\n  tag_10\n  jump\t// in\ntag_27:\n    /* \"#utility.yul\":798:917   */\ntag_26:\n    /* \"#utility.yul\":956:957   */\n  0x00\n    /* \"#utility.yul\":981:1045   */\n  tag_28\n    /* \"#utility.yul\":1037:1044   */\n  dup6\n    /* \"#utility.yul\":1028:1034   */\n  dup3\n    /* \"#utility.yul\":1017:1026   */\n  dup7\n    /* \"#utility.yul\":1013:1035   */\n  add\n    /* \"#utility.yul\":981:1045   */\n  tag_14\n  jump\t// in\ntag_28:\n    /* \"#utility.yul\":971:1045   */\n  swap3\n  pop\n    /* \"#utility.yul\":927:1055   */\n  pop\n    /* \"#utility.yul\":1094:1096   */\n  0x20\n    /* \"#utility.yul\":1120:1184   */\n  tag_29\n    /* \"#utility.yul\":1176:1183   */\n  dup6\n    /* \"#utility.yul\":1167:1173   */\n  dup3\n    /* \"#utility.yul\":1156:1165   */\n  dup7\n    /* \"#utility.yul\":1152:1174   */\n  add\n    /* \"#utility.yul\":1120:1184   */\n  tag_14\n  jump\t// in\ntag_29:\n    /* \"#utility.yul\":1110:1184   */\n  swap2\n  pop\n    /* \"#utility.yul\":1065:1194   */\n  pop\n    /* \"#utility.yul\":694:1201   */\n  swap3\n  pop\n  swap3\n  swap1\n  pop\n  jump\t// out\n    /* \"contracts/BasicInheritance.sol\":275:606  contract MyEpicToken is myEpicCoin { // is | is used to inherit another contract... */\ntag_8:\n  dataSize(sub_0)\n  dup1\n  dataOffset(sub_0)\n  0x00\n  codecopy\n  0x00\n  return\nstop\n\nsub_0: assembly {\n        /* \"contracts/BasicInheritance.sol\":275:606  contract MyEpicToken is myEpicCoin { // is | is used to inherit another contract... */\n      mstore(0x40, 0x80)\n      callvalue\n      dup1\n      iszero\n      tag_1\n      jumpi\n      revert(0x00, 0x00)\n    tag_1:\n      pop\n      jumpi(tag_2, lt(calldatasize, 0x04))\n      shr(0xe0, calldataload(0x00))\n      dup1\n      0x4c0f38c2\n      eq\n      tag_3\n      jumpi\n      dup1\n      0xc167d1cd\n      eq\n      tag_4\n      jumpi\n    tag_2:\n      revert(0x00, 0x00)\n        /* \"contracts/BasicInheritance.sol\":520:604  function getMaxSupply() public view returns (uint) {... */\n    tag_3:\n      tag_5\n      tag_6\n      jump\t// in\n    tag_5:\n      mload(0x40)\n      tag_7\n      swap2\n      swap1\n      tag_8\n      jump\t// in\n    tag_7:\n      mload(0x40)\n      dup1\n      swap2\n      sub\n      swap1\n      return\n        /* \"contracts/BasicInheritance.sol\":418:514  function getAvailableSupply() public view returns (uint) {... */\n    tag_4:\n      tag_9\n      tag_10\n      jump\t// in\n    tag_9:\n      mload(0x40)\n      tag_11\n      swap2\n      swap1\n      tag_8\n      jump\t// in\n    tag_11:\n      mload(0x40)\n      dup1\n      swap2\n      sub\n      swap1\n      return\n        /* \"contracts/BasicInheritance.sol\":520:604  function getMaxSupply() public view returns (uint) {... */\n    tag_6:\n        /* \"contracts/BasicInheritance.sol\":565:569  uint */\n      0x00\n        /* \"contracts/BasicInheritance.sol\":588:597  maxSupply */\n      sload(0x01)\n        /* \"contracts/BasicInheritance.sol\":581:597  return maxSupply */\n      swap1\n      pop\n        /* \"contracts/BasicInheritance.sol\":520:604  function getMaxSupply() public view returns (uint) {... */\n      swap1\n      jump\t// out\n        /* \"contracts/BasicInheritance.sol\":418:514  function getAvailableSupply() public view returns (uint) {... */\n    tag_10:\n        /* \"contracts/BasicInheritance.sol\":469:473  uint */\n      0x00\n        /* \"contracts/BasicInheritance.sol\":492:507  availableSupply */\n      sload(0x00)\n        /* \"contracts/BasicInheritance.sol\":485:507  return availableSupply */\n      swap1\n      pop\n        /* \"contracts/BasicInheritance.sol\":418:514  function getAvailableSupply() public view returns (uint) {... */\n      swap1\n      jump\t// out\n        /* \"#utility.yul\":7:84   */\n    tag_14:\n        /* \"#utility.yul\":44:51   */\n      0x00\n        /* \"#utility.yul\":73:78   */\n      dup2\n        /* \"#utility.yul\":62:78   */\n      swap1\n      pop\n        /* \"#utility.yul\":7:84   */\n      swap2\n      swap1\n      pop\n      jump\t// out\n        /* \"#utility.yul\":90:208   */\n    tag_15:\n        /* \"#utility.yul\":177:201   */\n      tag_19\n        /* \"#utility.yul\":195:200   */\n      dup2\n        /* \"#utility.yul\":177:201   */\n      tag_14\n      jump\t// in\n    tag_19:\n        /* \"#utility.yul\":172:175   */\n      dup3\n        /* \"#utility.yul\":165:202   */\n      mstore\n        /* \"#utility.yul\":90:208   */\n      pop\n      pop\n      jump\t// out\n        /* \"#utility.yul\":214:436   */\n    tag_8:\n        /* \"#utility.yul\":307:311   */\n      0x00\n        /* \"#utility.yul\":345:347   */\n      0x20\n        /* \"#utility.yul\":334:343   */\n      dup3\n        /* \"#utility.yul\":330:348   */\n      add\n        /* \"#utility.yul\":322:348   */\n      swap1\n      pop\n        /* \"#utility.yul\":358:429   */\n      tag_21\n        /* \"#utility.yul\":426:427   */\n      0x00\n        /* \"#utility.yul\":415:424   */\n      dup4\n        /* \"#utility.yul\":411:428   */\n      add\n        /* \"#utility.yul\":402:408   */\n      dup5\n        /* \"#utility.yul\":358:429   */\n      tag_15\n      jump\t// in\n    tag_21:\n        /* \"#utility.yul\":214:436   */\n      swap3\n      swap2\n      pop\n      pop\n      jump\t// out\n\n    auxdata: 0xa26469706673582212202ecf6db51bacdcb72b9cd3282f7c3e3c02937749a205b5eb02304e071636603164736f6c634300081e0033\n}\n",
				"bytecode": {
					"linkReferences": {},
					"object": "6080604052348015600e575f5ffd5b506040516101963803806101968339818101604052810190602e91906077565b8181815f81905550806001819055505050505060ae565b5f5ffd5b5f819050919050565b6059816049565b81146062575f5ffd5b50565b5f815190506071816052565b92915050565b5f5f60408385031215608a5760896045565b5b5f6095858286016065565b925050602060a4858286016065565b9150509250929050565b60dc806100ba5f395ff3fe6080604052348015600e575f5ffd5b50600436106030575f3560e01c80634c0f38c2146034578063c167d1cd14604e575b5f5ffd5b603a6068565b60405160459190608f565b60405180910390f35b60546071565b604051605f9190608f565b60405180910390f35b5f600154905090565b5f5f54905090565b5f819050919050565b6089816079565b82525050565b5f60208201905060a05f8301846082565b9291505056fea26469706673582212202ecf6db51bacdcb72b9cd3282f7c3e3c02937749a205b5eb02304e071636603164736f6c634300081e0033",
					"opcodes": "PUSH1 0x80 PUSH1 0x40 MSTORE CALLVALUE DUP1 ISZERO PUSH1 0xE JUMPI PUSH0 PUSH0 REVERT JUMPDEST POP PUSH1 0x40 MLOAD PUSH2 0x196 CODESIZE SUB DUP1 PUSH2 0x196 DUP4 CODECOPY DUP2 DUP2 ADD PUSH1 0x40 MSTORE DUP2 ADD SWAP1 PUSH1 0x2E SWAP2 SWAP1 PUSH1 0x77 JUMP JUMPDEST DUP2 DUP2 DUP2 PUSH0 DUP2 SWAP1 SSTORE POP DUP1 PUSH1 0x1 DUP2 SWAP1 SSTORE POP POP POP POP POP PUSH1 0xAE JUMP JUMPDEST PUSH0 PUSH0 REVERT JUMPDEST PUSH0 DUP2 SWAP1 POP SWAP2 SWAP1 POP JUMP JUMPDEST PUSH1 0x59 DUP2 PUSH1 0x49 JUMP JUMPDEST DUP2 EQ PUSH1 0x62 JUMPI PUSH0 PUSH0 REVERT JUMPDEST POP JUMP JUMPDEST PUSH0 DUP2 MLOAD SWAP1 POP PUSH1 0x71 DUP2 PUSH1 0x52 JUMP JUMPDEST SWAP3 SWAP2 POP POP JUMP JUMPDEST PUSH0 PUSH0 PUSH1 0x40 DUP4 DUP6 SUB SLT ISZERO PUSH1 0x8A JUMPI PUSH1 0x89 PUSH1 0x45 JUMP JUMPDEST JUMPDEST PUSH0 PUSH1 0x95 DUP6 DUP3 DUP7 ADD PUSH1 0x65 JUMP JUMPDEST SWAP3 POP POP PUSH1 0x20 PUSH1 0xA4 DUP6 DUP3 DUP7 ADD PUSH1 0x65 JUMP JUMPDEST SWAP2 POP POP SWAP3 POP SWAP3 SWAP1 POP JUMP JUMPDEST PUSH1 0xDC DUP1 PUSH2 0xBA PUSH0 CODECOPY PUSH0 RETURN INVALID PUSH1 0x80 PUSH1 0x40 MSTORE CALLVALUE DUP1 ISZERO PUSH1 0xE JUMPI PUSH0 PUSH0 REVERT JUMPDEST POP PUSH1 0x4 CALLDATASIZE LT PUSH1 0x30 JUMPI PUSH0 CALLDATALOAD PUSH1 0xE0 SHR DUP1 PUSH4 0x4C0F38C2 EQ PUSH1 0x34 JUMPI DUP1 PUSH4 0xC167D1CD EQ PUSH1 0x4E JUMPI JUMPDEST PUSH0 PUSH0 REVERT JUMPDEST PUSH1 0x3A PUSH1 0x68 JUMP JUMPDEST PUSH1 0x40 MLOAD PUSH1 0x45 SWAP2 SWAP1 PUSH1 0x8F JUMP JUMPDEST PUSH1 0x40 MLOAD DUP1 SWAP2 SUB SWAP1 RETURN JUMPDEST PUSH1 0x54 PUSH1 0x71 JUMP JUMPDEST PUSH1 0x40 MLOAD PUSH1 0x5F SWAP2 SWAP1 PUSH1 0x8F JUMP JUMPDEST PUSH1 0x40 MLOAD DUP1 SWAP2 SUB SWAP1 RETURN JUMPDEST PUSH0 PUSH1 0x1 SLOAD SWAP1 POP SWAP1 JUMP JUMPDEST PUSH0 PUSH0 SLOAD SWAP1 POP SWAP1 JUMP JUMPDEST PUSH0 DUP2 SWAP1 POP SWAP2 SWAP1 POP JUMP JUMPDEST PUSH1 0x89 DUP2 PUSH1 0x79 JUMP JUMPDEST DUP3 MSTORE POP POP JUMP JUMPDEST PUSH0 PUSH1 0x20 DUP3 ADD SWAP1 POP PUSH1 0xA0 PUSH0 DUP4 ADD DUP5 PUSH1 0x82 JUMP JUMPDEST SWAP3 SWAP2 POP POP JUMP INVALID LOG2 PUSH5 0x6970667358 0x22 SLT KECCAK256 0x2E 0xCF PUSH14 0xB51BACDCB72B9CD3282F7C3E3C02 SWAP4 PUSH24 0x49A205B5EB02304E071636603164736F6C634300081E0033 "
				},
				"gasEstimates": {
					"creation": {
						"codeDepositCost": "44000",
						"executionCost": "infinite",
						"totalCost": "infinite"
					},
					"external": {
						"getAvailableSupply()": "2431",
						"getMaxSupply()": "2410"
					}
				},
				"methodIdentifiers": {
					"getAvailableSupply()": "c167d1cd",
					"getMaxSupply()": "4c0f38c2"
				}
			},
			"storageLayout": {
				"storage": [
					{
						"astId": 3,
						"contract": "contracts/BasicInheritance.sol:MyEpicToken",
						"label": "availableSupply",
						"offset": 0,
						"slot": "0",
						"type": "t_uint256"
					},
					{
						"astId": 5,
						"contract": "contracts/BasicInheritance.sol:MyEpicToken",
						"label": "maxSupply",
						"offset": 0,
						"slot": "1",
						"type": "t_uint256"
					}
				],
				"types": {
					"t_uint256": {
						"encoding": "inplace",
						"label": "uint256",
						"numberOfBytes": "32"
					}
				}
			},
			"userdoc": {
				"kind": "user",
				"methods": {},
				"version": 1
			}
		}
	}
}