{
	"contracts/BasicFunctions.sol": {
		"BasicFunctions": {
			"abi": [
				{
					"inputs": [
						{
							"internalType": "string[]",
							"name": "_myCoins",
							"type": "string[]"
						},
						{
							"internalType": "string",
							"name": "_find",
							"type": "string"
						},
						{
							"internalType": "uint256",
							"name": "_startFrom",
							"type": "uint256"
						}
					],
					"name": "findCoinIndex",
					"outputs": [
						{
							"internalType": "uint256",
							"name": "",
							"type": "uint256"
						}
					],
					"stateMutability": "pure",
					"type": "function"
				},
				{
					"inputs": [],
					"name": "getMyCoinName",
					"outputs": [
						{
							"internalType": "string",
							"name": "",
							"type": "string"
						}
					],
					"stateMutability": "view",
					"type": "function"
				},
				{
					"inputs": [
						{
							"internalType": "uint256",
							"name": "_guess",
							"type": "uint256"
						}
					],
					"name": "guessNumber",
					"outputs": [
						{
							"internalType": "bool",
							"name": "",
							"type": "bool"
						}
					],
					"stateMutability": "pure",
					"type": "function"
				},
				{
					"inputs": [
						{
							"internalType": "uint256",
							"name": "_multiplier",
							"type": "uint256"
						}
					],
					"name": "multiplyBalance",
					"outputs": [],
					"stateMutability": "nonpayable",
					"type": "function"
				},
				{
					"inputs": [],
					"name": "myBalance",
					"outputs": [
						{
							"internalType": "uint256",
							"name": "",
							"type": "uint256"
						}
					],
					"stateMutability": "view",
					"type": "function"
				}
			],
			"devdoc": {
				"kind": "dev",
				"methods": {},
				"version": 1
			},
			"evm": {
				"assembly": "    /* \"contracts/BasicFunctions.sol\":65:2585  contract BasicFunctions {... */\n  mstore(0x40, 0x80)\n    /* \"contracts/BasicFunctions.sol\":1292:1321  string coinName = \"Epic Coin\" */\n  mload(0x40)\n  dup1\n  0x40\n  add\n  0x40\n  mstore\n  dup1\n  0x09\n  dup2\n  mstore\n  0x20\n  add\n  0x4570696320436f696e0000000000000000000000000000000000000000000000\n  dup2\n  mstore\n  pop\n  0x00\n  swap1\n  dup2\n  tag_1\n  swap2\n  swap1\n  tag_2\n  jump\t// in\ntag_1:\n  pop\n    /* \"contracts/BasicFunctions.sol\":1351:1355  1000 */\n  0x03e8\n    /* \"contracts/BasicFunctions.sol\":1327:1355  uint public myBalance = 1000 */\n  0x01\n  sstore\n    /* \"contracts/BasicFunctions.sol\":65:2585  contract BasicFunctions {... */\n  callvalue\n  dup1\n  iszero\n  tag_3\n  jumpi\n  revert(0x00, 0x00)\ntag_3:\n  pop\n  jump(tag_4)\n    /* \"#utility.yul\":7:106   */\ntag_5:\n    /* \"#utility.yul\":59:65   */\n  0x00\n    /* \"#utility.yul\":93:98   */\n  dup2\n    /* \"#utility.yul\":87:99   */\n  mload\n    /* \"#utility.yul\":77:99   */\n  swap1\n  pop\n    /* \"#utility.yul\":7:106   */\n  swap2\n  swap1\n  pop\n  jump\t// out\n    /* \"#utility.yul\":112:292   */\ntag_6:\n    /* \"#utility.yul\":160:237   */\n  0x4e487b7100000000000000000000000000000000000000000000000000000000\n    /* \"#utility.yul\":157:158   */\n  0x00\n    /* \"#utility.yul\":150:238   */\n  mstore\n    /* \"#utility.yul\":257:261   */\n  0x41\n    /* \"#utility.yul\":254:255   */\n  0x04\n    /* \"#utility.yul\":247:262   */\n  mstore\n    /* \"#utility.yul\":281:285   */\n  0x24\n    /* \"#utility.yul\":278:279   */\n  0x00\n    /* \"#utility.yul\":271:286   */\n  revert\n    /* \"#utility.yul\":298:478   */\ntag_7:\n    /* \"#utility.yul\":346:423   */\n  0x4e487b7100000000000000000000000000000000000000000000000000000000\n    /* \"#utility.yul\":343:344   */\n  0x00\n    /* \"#utility.yul\":336:424   */\n  mstore\n    /* \"#utility.yul\":443:447   */\n  0x22\n    /* \"#utility.yul\":440:441   */\n  0x04\n    /* \"#utility.yul\":433:448   */\n  mstore\n    /* \"#utility.yul\":467:471   */\n  0x24\n    /* \"#utility.yul\":464:465   */\n  0x00\n    /* \"#utility.yul\":457:472   */\n  revert\n    /* \"#utility.yul\":484:804   */\ntag_8:\n    /* \"#utility.yul\":528:534   */\n  0x00\n    /* \"#utility.yul\":565:566   */\n  0x02\n    /* \"#utility.yul\":559:563   */\n  dup3\n    /* \"#utility.yul\":555:567   */\n  div\n    /* \"#utility.yul\":545:567   */\n  swap1\n  pop\n    /* \"#utility.yul\":612:613   */\n  0x01\n    /* \"#utility.yul\":606:610   */\n  dup3\n    /* \"#utility.yul\":602:614   */\n  and\n    /* \"#utility.yul\":633:651   */\n  dup1\n    /* \"#utility.yul\":623:704   */\n  tag_30\n  jumpi\n    /* \"#utility.yul\":689:693   */\n  0x7f\n    /* \"#utility.yul\":681:687   */\n  dup3\n    /* \"#utility.yul\":677:694   */\n  and\n    /* \"#utility.yul\":667:694   */\n  swap2\n  pop\n    /* \"#utility.yul\":623:704   */\ntag_30:\n    /* \"#utility.yul\":751:753   */\n  0x20\n    /* \"#utility.yul\":743:749   */\n  dup3\n    /* \"#utility.yul\":740:754   */\n  lt\n    /* \"#utility.yul\":720:738   */\n  dup2\n    /* \"#utility.yul\":717:755   */\n  sub\n    /* \"#utility.yul\":714:798   */\n  tag_31\n  jumpi\n    /* \"#utility.yul\":770:788   */\n  tag_32\n  tag_7\n  jump\t// in\ntag_32:\n    /* \"#utility.yul\":714:798   */\ntag_31:\n    /* \"#utility.yul\":535:804   */\n  pop\n    /* \"#utility.yul\":484:804   */\n  swap2\n  swap1\n  pop\n  jump\t// out\n    /* \"#utility.yul\":810:951   */\ntag_9:\n    /* \"#utility.yul\":859:863   */\n  0x00\n    /* \"#utility.yul\":882:885   */\n  dup2\n    /* \"#utility.yul\":874:885   */\n  swap1\n  pop\n    /* \"#utility.yul\":905:908   */\n  dup2\n    /* \"#utility.yul\":902:903   */\n  0x00\n    /* \"#utility.yul\":895:909   */\n  mstore\n    /* \"#utility.yul\":939:943   */\n  0x20\n    /* \"#utility.yul\":936:937   */\n  0x00\n    /* \"#utility.yul\":926:944   */\n  keccak256\n    /* \"#utility.yul\":918:944   */\n  swap1\n  pop\n    /* \"#utility.yul\":810:951   */\n  swap2\n  swap1\n  pop\n  jump\t// out\n    /* \"#utility.yul\":957:1050   */\ntag_10:\n    /* \"#utility.yul\":994:1000   */\n  0x00\n    /* \"#utility.yul\":1041:1043   */\n  0x20\n    /* \"#utility.yul\":1036:1038   */\n  0x1f\n    /* \"#utility.yul\":1029:1034   */\n  dup4\n    /* \"#utility.yul\":1025:1039   */\n  add\n    /* \"#utility.yul\":1021:1044   */\n  div\n    /* \"#utility.yul\":1011:1044   */\n  swap1\n  pop\n    /* \"#utility.yul\":957:1050   */\n  swap2\n  swap1\n  pop\n  jump\t// out\n    /* \"#utility.yul\":1056:1163   */\ntag_11:\n    /* \"#utility.yul\":1100:1108   */\n  0x00\n    /* \"#utility.yul\":1150:1155   */\n  dup3\n    /* \"#utility.yul\":1144:1148   */\n  dup3\n    /* \"#utility.yul\":1140:1156   */\n  shl\n    /* \"#utility.yul\":1119:1156   */\n  swap1\n  pop\n    /* \"#utility.yul\":1056:1163   */\n  swap3\n  swap2\n  pop\n  pop\n  jump\t// out\n    /* \"#utility.yul\":1169:1562   */\ntag_12:\n    /* \"#utility.yul\":1238:1244   */\n  0x00\n    /* \"#utility.yul\":1288:1289   */\n  0x08\n    /* \"#utility.yul\":1276:1286   */\n  dup4\n    /* \"#utility.yul\":1272:1290   */\n  mul\n    /* \"#utility.yul\":1311:1408   */\n  tag_37\n    /* \"#utility.yul\":1341:1407   */\n  0xffffffffffffffffffffffffffffffffffffffffffffffffffffffffffffffff\n    /* \"#utility.yul\":1330:1339   */\n  dup3\n    /* \"#utility.yul\":1311:1408   */\n  tag_11\n  jump\t// in\ntag_37:\n    /* \"#utility.yul\":1429:1468   */\n  tag_38\n    /* \"#utility.yul\":1459:1467   */\n  dup7\n    /* \"#utility.yul\":1448:1457   */\n  dup4\n    /* \"#utility.yul\":1429:1468   */\n  tag_11\n  jump\t// in\ntag_38:\n    /* \"#utility.yul\":1417:1468   */\n  swap6\n  pop\n    /* \"#utility.yul\":1501:1505   */\n  dup1\n    /* \"#utility.yul\":1497:1506   */\n  not\n    /* \"#utility.yul\":1490:1495   */\n  dup5\n    /* \"#utility.yul\":1486:1507   */\n  and\n    /* \"#utility.yul\":1477:1507   */\n  swap4\n  pop\n    /* \"#utility.yul\":1550:1554   */\n  dup1\n    /* \"#utility.yul\":1540:1548   */\n  dup7\n    /* \"#utility.yul\":1536:1555   */\n  and\n    /* \"#utility.yul\":1529:1534   */\n  dup5\n    /* \"#utility.yul\":1526:1556   */\n  or\n    /* \"#utility.yul\":1516:1556   */\n  swap3\n  pop\n    /* \"#utility.yul\":1245:1562   */\n  pop\n  pop\n    /* \"#utility.yul\":1169:1562   */\n  swap4\n  swap3\n  pop\n  pop\n  pop\n  jump\t// out\n    /* \"#utility.yul\":1568:1645   */\ntag_13:\n    /* \"#utility.yul\":1605:1612   */\n  0x00\n    /* \"#utility.yul\":1634:1639   */\n  dup2\n    /* \"#utility.yul\":1623:1639   */\n  swap1\n  pop\n    /* \"#utility.yul\":1568:1645   */\n  swap2\n  swap1\n  pop\n  jump\t// out\n    /* \"#utility.yul\":1651:1711   */\ntag_14:\n    /* \"#utility.yul\":1679:1682   */\n  0x00\n    /* \"#utility.yul\":1700:1705   */\n  dup2\n    /* \"#utility.yul\":1693:1705   */\n  swap1\n  pop\n    /* \"#utility.yul\":1651:1711   */\n  swap2\n  swap1\n  pop\n  jump\t// out\n    /* \"#utility.yul\":1717:1859   */\ntag_15:\n    /* \"#utility.yul\":1767:1776   */\n  0x00\n    /* \"#utility.yul\":1800:1853   */\n  tag_42\n    /* \"#utility.yul\":1818:1852   */\n  tag_43\n    /* \"#utility.yul\":1827:1851   */\n  tag_44\n    /* \"#utility.yul\":1845:1850   */\n  dup5\n    /* \"#utility.yul\":1827:1851   */\n  tag_13\n  jump\t// in\ntag_44:\n    /* \"#utility.yul\":1818:1852   */\n  tag_14\n  jump\t// in\ntag_43:\n    /* \"#utility.yul\":1800:1853   */\n  tag_13\n  jump\t// in\ntag_42:\n    /* \"#utility.yul\":1787:1853   */\n  swap1\n  pop\n    /* \"#utility.yul\":1717:1859   */\n  swap2\n  swap1\n  pop\n  jump\t// out\n    /* \"#utility.yul\":1865:1940   */\ntag_16:\n    /* \"#utility.yul\":1908:1911   */\n  0x00\n    /* \"#utility.yul\":1929:1934   */\n  dup2\n    /* \"#utility.yul\":1922:1934   */\n  swap1\n  pop\n    /* \"#utility.yul\":1865:1940   */\n  swap2\n  swap1\n  pop\n  jump\t// out\n    /* \"#utility.yul\":1946:2215   */\ntag_17:\n    /* \"#utility.yul\":2056:2095   */\n  tag_47\n    /* \"#utility.yul\":2087:2094   */\n  dup4\n    /* \"#utility.yul\":2056:2095   */\n  tag_15\n  jump\t// in\ntag_47:\n    /* \"#utility.yul\":2117:2208   */\n  tag_48\n    /* \"#utility.yul\":2166:2207   */\n  tag_49\n    /* \"#utility.yul\":2190:2206   */\n  dup3\n    /* \"#utility.yul\":2166:2207   */\n  tag_16\n  jump\t// in\ntag_49:\n    /* \"#utility.yul\":2158:2164   */\n  dup5\n    /* \"#utility.yul\":2151:2155   */\n  dup5\n    /* \"#utility.yul\":2145:2156   */\n  sload\n    /* \"#utility.yul\":2117:2208   */\n  tag_12\n  jump\t// in\ntag_48:\n    /* \"#utility.yul\":2111:2115   */\n  dup3\n    /* \"#utility.yul\":2104:2209   */\n  sstore\n    /* \"#utility.yul\":2022:2215   */\n  pop\n    /* \"#utility.yul\":1946:2215   */\n  pop\n  pop\n  pop\n  jump\t// out\n    /* \"#utility.yul\":2221:2294   */\ntag_18:\n    /* \"#utility.yul\":2266:2269   */\n  0x00\n    /* \"#utility.yul\":2287:2288   */\n  0x00\n    /* \"#utility.yul\":2280:2288   */\n  swap1\n  pop\n    /* \"#utility.yul\":2221:2294   */\n  swap1\n  jump\t// out\n    /* \"#utility.yul\":2300:2489   */\ntag_19:\n    /* \"#utility.yul\":2377:2409   */\n  tag_52\n  tag_18\n  jump\t// in\ntag_52:\n    /* \"#utility.yul\":2418:2483   */\n  tag_53\n    /* \"#utility.yul\":2476:2482   */\n  dup2\n    /* \"#utility.yul\":2468:2474   */\n  dup5\n    /* \"#utility.yul\":2462:2466   */\n  dup5\n    /* \"#utility.yul\":2418:2483   */\n  tag_17\n  jump\t// in\ntag_53:\n    /* \"#utility.yul\":2353:2489   */\n  pop\n    /* \"#utility.yul\":2300:2489   */\n  pop\n  pop\n  jump\t// out\n    /* \"#utility.yul\":2495:2681   */\ntag_20:\n    /* \"#utility.yul\":2555:2675   */\ntag_55:\n    /* \"#utility.yul\":2572:2575   */\n  dup2\n    /* \"#utility.yul\":2565:2570   */\n  dup2\n    /* \"#utility.yul\":2562:2576   */\n  lt\n    /* \"#utility.yul\":2555:2675   */\n  iszero\n  tag_57\n  jumpi\n    /* \"#utility.yul\":2626:2665   */\n  tag_58\n    /* \"#utility.yul\":2663:2664   */\n  0x00\n    /* \"#utility.yul\":2656:2661   */\n  dup3\n    /* \"#utility.yul\":2626:2665   */\n  tag_19\n  jump\t// in\ntag_58:\n    /* \"#utility.yul\":2599:2600   */\n  0x01\n    /* \"#utility.yul\":2592:2597   */\n  dup2\n    /* \"#utility.yul\":2588:2601   */\n  add\n    /* \"#utility.yul\":2579:2601   */\n  swap1\n  pop\n    /* \"#utility.yul\":2555:2675   */\n  jump(tag_55)\ntag_57:\n    /* \"#utility.yul\":2495:2681   */\n  pop\n  pop\n  jump\t// out\n    /* \"#utility.yul\":2687:3230   */\ntag_21:\n    /* \"#utility.yul\":2788:2790   */\n  0x1f\n    /* \"#utility.yul\":2783:2786   */\n  dup3\n    /* \"#utility.yul\":2780:2791   */\n  gt\n    /* \"#utility.yul\":2777:3223   */\n  iszero\n  tag_60\n  jumpi\n    /* \"#utility.yul\":2822:2860   */\n  tag_61\n    /* \"#utility.yul\":2854:2859   */\n  dup2\n    /* \"#utility.yul\":2822:2860   */\n  tag_9\n  jump\t// in\ntag_61:\n    /* \"#utility.yul\":2906:2935   */\n  tag_62\n    /* \"#utility.yul\":2924:2934   */\n  dup5\n    /* \"#utility.yul\":2906:2935   */\n  tag_10\n  jump\t// in\ntag_62:\n    /* \"#utility.yul\":2896:2904   */\n  dup2\n    /* \"#utility.yul\":2892:2936   */\n  add\n    /* \"#utility.yul\":3089:3091   */\n  0x20\n    /* \"#utility.yul\":3077:3087   */\n  dup6\n    /* \"#utility.yul\":3074:3092   */\n  lt\n    /* \"#utility.yul\":3071:3120   */\n  iszero\n  tag_63\n  jumpi\n    /* \"#utility.yul\":3110:3118   */\n  dup2\n    /* \"#utility.yul\":3095:3118   */\n  swap1\n  pop\n    /* \"#utility.yul\":3071:3120   */\ntag_63:\n    /* \"#utility.yul\":3133:3213   */\n  tag_64\n    /* \"#utility.yul\":3189:3211   */\n  tag_65\n    /* \"#utility.yul\":3207:3210   */\n  dup6\n    /* \"#utility.yul\":3189:3211   */\n  tag_10\n  jump\t// in\ntag_65:\n    /* \"#utility.yul\":3179:3187   */\n  dup4\n    /* \"#utility.yul\":3175:3212   */\n  add\n    /* \"#utility.yul\":3162:3173   */\n  dup3\n    /* \"#utility.yul\":3133:3213   */\n  tag_20\n  jump\t// in\ntag_64:\n    /* \"#utility.yul\":2792:3223   */\n  pop\n  pop\n    /* \"#utility.yul\":2777:3223   */\ntag_60:\n    /* \"#utility.yul\":2687:3230   */\n  pop\n  pop\n  pop\n  jump\t// out\n    /* \"#utility.yul\":3236:3353   */\ntag_22:\n    /* \"#utility.yul\":3290:3298   */\n  0x00\n    /* \"#utility.yul\":3340:3345   */\n  dup3\n    /* \"#utility.yul\":3334:3338   */\n  dup3\n    /* \"#utility.yul\":3330:3346   */\n  shr\n    /* \"#utility.yul\":3309:3346   */\n  swap1\n  pop\n    /* \"#utility.yul\":3236:3353   */\n  swap3\n  swap2\n  pop\n  pop\n  jump\t// out\n    /* \"#utility.yul\":3359:3528   */\ntag_23:\n    /* \"#utility.yul\":3403:3409   */\n  0x00\n    /* \"#utility.yul\":3436:3487   */\n  tag_68\n    /* \"#utility.yul\":3484:3485   */\n  0x00\n    /* \"#utility.yul\":3480:3486   */\n  not\n    /* \"#utility.yul\":3472:3477   */\n  dup5\n    /* \"#utility.yul\":3469:3470   */\n  0x08\n    /* \"#utility.yul\":3465:3478   */\n  mul\n    /* \"#utility.yul\":3436:3487   */\n  tag_22\n  jump\t// in\ntag_68:\n    /* \"#utility.yul\":3432:3488   */\n  not\n    /* \"#utility.yul\":3517:3521   */\n  dup1\n    /* \"#utility.yul\":3511:3515   */\n  dup4\n    /* \"#utility.yul\":3507:3522   */\n  and\n    /* \"#utility.yul\":3497:3522   */\n  swap2\n  pop\n    /* \"#utility.yul\":3410:3528   */\n  pop\n    /* \"#utility.yul\":3359:3528   */\n  swap3\n  swap2\n  pop\n  pop\n  jump\t// out\n    /* \"#utility.yul\":3533:3828   */\ntag_24:\n    /* \"#utility.yul\":3609:3613   */\n  0x00\n    /* \"#utility.yul\":3755:3784   */\n  tag_70\n    /* \"#utility.yul\":3780:3783   */\n  dup4\n    /* \"#utility.yul\":3774:3778   */\n  dup4\n    /* \"#utility.yul\":3755:3784   */\n  tag_23\n  jump\t// in\ntag_70:\n    /* \"#utility.yul\":3747:3784   */\n  swap2\n  pop\n    /* \"#utility.yul\":3817:3820   */\n  dup3\n    /* \"#utility.yul\":3814:3815   */\n  0x02\n    /* \"#utility.yul\":3810:3821   */\n  mul\n    /* \"#utility.yul\":3804:3808   */\n  dup3\n    /* \"#utility.yul\":3801:3822   */\n  or\n    /* \"#utility.yul\":3793:3822   */\n  swap1\n  pop\n    /* \"#utility.yul\":3533:3828   */\n  swap3\n  swap2\n  pop\n  pop\n  jump\t// out\n    /* \"#utility.yul\":3833:5228   */\ntag_2:\n    /* \"#utility.yul\":3950:3987   */\n  tag_72\n    /* \"#utility.yul\":3983:3986   */\n  dup3\n    /* \"#utility.yul\":3950:3987   */\n  tag_5\n  jump\t// in\ntag_72:\n    /* \"#utility.yul\":4052:4070   */\n  0xffffffffffffffff\n    /* \"#utility.yul\":4044:4050   */\n  dup2\n    /* \"#utility.yul\":4041:4071   */\n  gt\n    /* \"#utility.yul\":4038:4094   */\n  iszero\n  tag_73\n  jumpi\n    /* \"#utility.yul\":4074:4092   */\n  tag_74\n  tag_6\n  jump\t// in\ntag_74:\n    /* \"#utility.yul\":4038:4094   */\ntag_73:\n    /* \"#utility.yul\":4118:4156   */\n  tag_75\n    /* \"#utility.yul\":4150:4154   */\n  dup3\n    /* \"#utility.yul\":4144:4155   */\n  sload\n    /* \"#utility.yul\":4118:4156   */\n  tag_8\n  jump\t// in\ntag_75:\n    /* \"#utility.yul\":4203:4270   */\n  tag_76\n    /* \"#utility.yul\":4263:4269   */\n  dup3\n    /* \"#utility.yul\":4255:4261   */\n  dup3\n    /* \"#utility.yul\":4249:4253   */\n  dup6\n    /* \"#utility.yul\":4203:4270   */\n  tag_21\n  jump\t// in\ntag_76:\n    /* \"#utility.yul\":4297:4298   */\n  0x00\n    /* \"#utility.yul\":4321:4325   */\n  0x20\n    /* \"#utility.yul\":4308:4325   */\n  swap1\n  pop\n    /* \"#utility.yul\":4353:4355   */\n  0x1f\n    /* \"#utility.yul\":4345:4351   */\n  dup4\n    /* \"#utility.yul\":4342:4356   */\n  gt\n    /* \"#utility.yul\":4370:4371   */\n  0x01\n    /* \"#utility.yul\":4365:4983   */\n  dup2\n  eq\n  tag_78\n  jumpi\n    /* \"#utility.yul\":5027:5028   */\n  0x00\n    /* \"#utility.yul\":5044:5050   */\n  dup5\n    /* \"#utility.yul\":5041:5118   */\n  iszero\n  tag_79\n  jumpi\n    /* \"#utility.yul\":5093:5102   */\n  dup3\n    /* \"#utility.yul\":5088:5091   */\n  dup8\n    /* \"#utility.yul\":5084:5103   */\n  add\n    /* \"#utility.yul\":5078:5104   */\n  mload\n    /* \"#utility.yul\":5069:5104   */\n  swap1\n  pop\n    /* \"#utility.yul\":5041:5118   */\ntag_79:\n    /* \"#utility.yul\":5144:5211   */\n  tag_80\n    /* \"#utility.yul\":5204:5210   */\n  dup6\n    /* \"#utility.yul\":5197:5202   */\n  dup3\n    /* \"#utility.yul\":5144:5211   */\n  tag_24\n  jump\t// in\ntag_80:\n    /* \"#utility.yul\":5138:5142   */\n  dup7\n    /* \"#utility.yul\":5131:5212   */\n  sstore\n    /* \"#utility.yul\":5000:5222   */\n  pop\n    /* \"#utility.yul\":4335:5222   */\n  jump(tag_77)\n    /* \"#utility.yul\":4365:4983   */\ntag_78:\n    /* \"#utility.yul\":4417:4421   */\n  0x1f\n    /* \"#utility.yul\":4413:4422   */\n  not\n    /* \"#utility.yul\":4405:4411   */\n  dup5\n    /* \"#utility.yul\":4401:4423   */\n  and\n    /* \"#utility.yul\":4451:4488   */\n  tag_81\n    /* \"#utility.yul\":4483:4487   */\n  dup7\n    /* \"#utility.yul\":4451:4488   */\n  tag_9\n  jump\t// in\ntag_81:\n    /* \"#utility.yul\":4510:4511   */\n  0x00\n    /* \"#utility.yul\":4524:4732   */\ntag_82:\n    /* \"#utility.yul\":4538:4545   */\n  dup3\n    /* \"#utility.yul\":4535:4536   */\n  dup2\n    /* \"#utility.yul\":4532:4546   */\n  lt\n    /* \"#utility.yul\":4524:4732   */\n  iszero\n  tag_84\n  jumpi\n    /* \"#utility.yul\":4617:4626   */\n  dup5\n    /* \"#utility.yul\":4612:4615   */\n  dup10\n    /* \"#utility.yul\":4608:4627   */\n  add\n    /* \"#utility.yul\":4602:4628   */\n  mload\n    /* \"#utility.yul\":4594:4600   */\n  dup3\n    /* \"#utility.yul\":4587:4629   */\n  sstore\n    /* \"#utility.yul\":4668:4669   */\n  0x01\n    /* \"#utility.yul\":4660:4666   */\n  dup3\n    /* \"#utility.yul\":4656:4670   */\n  add\n    /* \"#utility.yul\":4646:4670   */\n  swap2\n  pop\n    /* \"#utility.yul\":4715:4717   */\n  0x20\n    /* \"#utility.yul\":4704:4713   */\n  dup6\n    /* \"#utility.yul\":4700:4718   */\n  add\n    /* \"#utility.yul\":4687:4718   */\n  swap5\n  pop\n    /* \"#utility.yul\":4561:4565   */\n  0x20\n    /* \"#utility.yul\":4558:4559   */\n  dup2\n    /* \"#utility.yul\":4554:4566   */\n  add\n    /* \"#utility.yul\":4549:4566   */\n  swap1\n  pop\n    /* \"#utility.yul\":4524:4732   */\n  jump(tag_82)\ntag_84:\n    /* \"#utility.yul\":4760:4766   */\n  dup7\n    /* \"#utility.yul\":4751:4758   */\n  dup4\n    /* \"#utility.yul\":4748:4767   */\n  lt\n    /* \"#utility.yul\":4745:4924   */\n  iszero\n  tag_85\n  jumpi\n    /* \"#utility.yul\":4818:4827   */\n  dup5\n    /* \"#utility.yul\":4813:4816   */\n  dup10\n    /* \"#utility.yul\":4809:4828   */\n  add\n    /* \"#utility.yul\":4803:4829   */\n  mload\n    /* \"#utility.yul\":4861:4909   */\n  tag_86\n    /* \"#utility.yul\":4903:4907   */\n  0x1f\n    /* \"#utility.yul\":4895:4901   */\n  dup10\n    /* \"#utility.yul\":4891:4908   */\n  and\n    /* \"#utility.yul\":4880:4889   */\n  dup3\n    /* \"#utility.yul\":4861:4909   */\n  tag_23\n  jump\t// in\ntag_86:\n    /* \"#utility.yul\":4853:4859   */\n  dup4\n    /* \"#utility.yul\":4846:4910   */\n  sstore\n    /* \"#utility.yul\":4768:4924   */\n  pop\n    /* \"#utility.yul\":4745:4924   */\ntag_85:\n    /* \"#utility.yul\":4970:4971   */\n  0x01\n    /* \"#utility.yul\":4966:4967   */\n  0x02\n    /* \"#utility.yul\":4958:4964   */\n  dup9\n    /* \"#utility.yul\":4954:4968   */\n  mul\n    /* \"#utility.yul\":4950:4972   */\n  add\n    /* \"#utility.yul\":4944:4948   */\n  dup9\n    /* \"#utility.yul\":4937:4973   */\n  sstore\n    /* \"#utility.yul\":4372:4983   */\n  pop\n  pop\n  pop\n    /* \"#utility.yul\":4335:5222   */\ntag_77:\n  pop\n    /* \"#utility.yul\":3925:5228   */\n  pop\n  pop\n  pop\n    /* \"#utility.yul\":3833:5228   */\n  pop\n  pop\n  jump\t// out\n    /* \"contracts/BasicFunctions.sol\":65:2585  contract BasicFunctions {... */\ntag_4:\n  dataSize(sub_0)\n  dup1\n  dataOffset(sub_0)\n  0x00\n  codecopy\n  0x00\n  return\nstop\n\nsub_0: assembly {\n        /* \"contracts/BasicFunctions.sol\":65:2585  contract BasicFunctions {... */\n      mstore(0x40, 0x80)\n      callvalue\n      dup1\n      iszero\n      tag_1\n      jumpi\n      revert(0x00, 0x00)\n    tag_1:\n      pop\n      jumpi(tag_2, lt(calldatasize, 0x04))\n      shr(0xe0, calldataload(0x00))\n      dup1\n      0x0ac543de\n      eq\n      tag_3\n      jumpi\n      dup1\n      0x8a9424b7\n      eq\n      tag_4\n      jumpi\n      dup1\n      0xb438d018\n      eq\n      tag_5\n      jumpi\n      dup1\n      0xc9116b69\n      eq\n      tag_6\n      jumpi\n      dup1\n      0xd0f7df40\n      eq\n      tag_7\n      jumpi\n    tag_2:\n      revert(0x00, 0x00)\n        /* \"contracts/BasicFunctions.sol\":1877:1981  function multiplyBalance(uint _multiplier) external {... */\n    tag_3:\n      tag_8\n      0x04\n      dup1\n      calldatasize\n      sub\n      dup2\n      add\n      swap1\n      tag_9\n      swap2\n      swap1\n      tag_10\n      jump\t// in\n    tag_9:\n      tag_11\n      jump\t// in\n    tag_8:\n      stop\n        /* \"contracts/BasicFunctions.sol\":2067:2583  function findCoinIndex(string[] memory _myCoins, string memory _find, uint _startFrom) public pure returns (uint) {... */\n    tag_4:\n      tag_12\n      0x04\n      dup1\n      calldatasize\n      sub\n      dup2\n      add\n      swap1\n      tag_13\n      swap2\n      swap1\n      tag_14\n      jump\t// in\n    tag_13:\n      tag_15\n      jump\t// in\n    tag_12:\n      mload(0x40)\n      tag_16\n      swap2\n      swap1\n      tag_17\n      jump\t// in\n    tag_16:\n      mload(0x40)\n      dup1\n      swap2\n      sub\n      swap1\n      return\n        /* \"contracts/BasicFunctions.sol\":1504:1680  function guessNumber(uint256 _guess) public pure returns (bool) {... */\n    tag_5:\n      tag_18\n      0x04\n      dup1\n      calldatasize\n      sub\n      dup2\n      add\n      swap1\n      tag_19\n      swap2\n      swap1\n      tag_10\n      jump\t// in\n    tag_19:\n      tag_20\n      jump\t// in\n    tag_18:\n      mload(0x40)\n      tag_21\n      swap2\n      swap1\n      tag_22\n      jump\t// in\n    tag_21:\n      mload(0x40)\n      dup1\n      swap2\n      sub\n      swap1\n      return\n        /* \"contracts/BasicFunctions.sol\":1327:1355  uint public myBalance = 1000 */\n    tag_6:\n      tag_23\n      tag_24\n      jump\t// in\n    tag_23:\n      mload(0x40)\n      tag_25\n      swap2\n      swap1\n      tag_17\n      jump\t// in\n    tag_25:\n      mload(0x40)\n      dup1\n      swap2\n      sub\n      swap1\n      return\n        /* \"contracts/BasicFunctions.sol\":1731:1824  function getMyCoinName() public view returns (string memory) {... */\n    tag_7:\n      tag_26\n      tag_27\n      jump\t// in\n    tag_26:\n      mload(0x40)\n      tag_28\n      swap2\n      swap1\n      tag_29\n      jump\t// in\n    tag_28:\n      mload(0x40)\n      dup1\n      swap2\n      sub\n      swap1\n      return\n        /* \"contracts/BasicFunctions.sol\":1877:1981  function multiplyBalance(uint _multiplier) external {... */\n    tag_11:\n        /* \"contracts/BasicFunctions.sol\":1963:1974  _multiplier */\n      dup1\n        /* \"contracts/BasicFunctions.sol\":1951:1960  myBalance */\n      sload(0x01)\n        /* \"contracts/BasicFunctions.sol\":1951:1974  myBalance * _multiplier */\n      tag_31\n      swap2\n      swap1\n      tag_32\n      jump\t// in\n    tag_31:\n        /* \"contracts/BasicFunctions.sol\":1939:1948  myBalance */\n      0x01\n        /* \"contracts/BasicFunctions.sol\":1939:1974  myBalance = myBalance * _multiplier */\n      dup2\n      swap1\n      sstore\n      pop\n        /* \"contracts/BasicFunctions.sol\":1877:1981  function multiplyBalance(uint _multiplier) external {... */\n      pop\n      jump\t// out\n        /* \"contracts/BasicFunctions.sol\":2067:2583  function findCoinIndex(string[] memory _myCoins, string memory _find, uint _startFrom) public pure returns (uint) {... */\n    tag_15:\n        /* \"contracts/BasicFunctions.sol\":2175:2179  uint */\n      0x00\n        /* \"contracts/BasicFunctions.sol\":2196:2202  uint i */\n      0x00\n        /* \"contracts/BasicFunctions.sol\":2205:2215  _startFrom */\n      dup3\n        /* \"contracts/BasicFunctions.sol\":2196:2215  uint i = _startFrom */\n      swap1\n      pop\n        /* \"contracts/BasicFunctions.sol\":2191:2555  for (uint i = _startFrom; i < _myCoins.length; i++) {... */\n    tag_34:\n        /* \"contracts/BasicFunctions.sol\":2221:2229  _myCoins */\n      dup5\n        /* \"contracts/BasicFunctions.sol\":2221:2236  _myCoins.length */\n      mload\n        /* \"contracts/BasicFunctions.sol\":2217:2218  i */\n      dup2\n        /* \"contracts/BasicFunctions.sol\":2217:2236  i < _myCoins.length */\n      lt\n        /* \"contracts/BasicFunctions.sol\":2191:2555  for (uint i = _startFrom; i < _myCoins.length; i++) {... */\n      iszero\n      tag_35\n      jumpi\n        /* \"contracts/BasicFunctions.sol\":2257:2275  string memory coin */\n      0x00\n        /* \"contracts/BasicFunctions.sol\":2278:2286  _myCoins */\n      dup6\n        /* \"contracts/BasicFunctions.sol\":2287:2288  i */\n      dup3\n        /* \"contracts/BasicFunctions.sol\":2278:2289  _myCoins[i] */\n      dup2\n      mload\n      dup2\n      lt\n      tag_37\n      jumpi\n      tag_38\n      tag_39\n      jump\t// in\n    tag_38:\n    tag_37:\n      0x20\n      mul\n      0x20\n      add\n      add\n      mload\n        /* \"contracts/BasicFunctions.sol\":2257:2289  string memory coin = _myCoins[i] */\n      swap1\n      pop\n        /* \"contracts/BasicFunctions.sol\":2495:2500  _find */\n      dup5\n        /* \"contracts/BasicFunctions.sol\":2478:2501  abi.encodePacked(_find) */\n      add(0x20, mload(0x40))\n      tag_40\n      swap2\n      swap1\n      tag_41\n      jump\t// in\n    tag_40:\n      mload(0x40)\n      0x20\n      dup2\n      dup4\n      sub\n      sub\n      dup2\n      mstore\n      swap1\n      0x40\n      mstore\n        /* \"contracts/BasicFunctions.sol\":2468:2502  keccak256(abi.encodePacked(_find)) */\n      dup1\n      mload\n      swap1\n      0x20\n      add\n      keccak256\n        /* \"contracts/BasicFunctions.sol\":2458:2462  coin */\n      dup2\n        /* \"contracts/BasicFunctions.sol\":2441:2463  abi.encodePacked(coin) */\n      add(0x20, mload(0x40))\n      tag_42\n      swap2\n      swap1\n      tag_41\n      jump\t// in\n    tag_42:\n      mload(0x40)\n      0x20\n      dup2\n      dup4\n      sub\n      sub\n      dup2\n      mstore\n      swap1\n      0x40\n      mstore\n        /* \"contracts/BasicFunctions.sol\":2431:2464  keccak256(abi.encodePacked(coin)) */\n      dup1\n      mload\n      swap1\n      0x20\n      add\n      keccak256\n        /* \"contracts/BasicFunctions.sol\":2431:2502  keccak256(abi.encodePacked(coin)) == keccak256(abi.encodePacked(_find)) */\n      sub\n        /* \"contracts/BasicFunctions.sol\":2427:2545  if (keccak256(abi.encodePacked(coin)) == keccak256(abi.encodePacked(_find))) {... */\n      tag_43\n      jumpi\n        /* \"contracts/BasicFunctions.sol\":2529:2530  i */\n      dup2\n        /* \"contracts/BasicFunctions.sol\":2522:2530  return i */\n      swap3\n      pop\n      pop\n      pop\n      jump(tag_33)\n        /* \"contracts/BasicFunctions.sol\":2427:2545  if (keccak256(abi.encodePacked(coin)) == keccak256(abi.encodePacked(_find))) {... */\n    tag_43:\n        /* \"contracts/BasicFunctions.sol\":2243:2555  {... */\n      pop\n        /* \"contracts/BasicFunctions.sol\":2238:2241  i++ */\n      dup1\n      dup1\n      0x01\n      add\n      swap2\n      pop\n      pop\n        /* \"contracts/BasicFunctions.sol\":2191:2555  for (uint i = _startFrom; i < _myCoins.length; i++) {... */\n      jump(tag_34)\n    tag_35:\n      pop\n        /* \"contracts/BasicFunctions.sol\":2572:2576  9999 */\n      0x270f\n        /* \"contracts/BasicFunctions.sol\":2565:2576  return 9999 */\n      swap1\n      pop\n        /* \"contracts/BasicFunctions.sol\":2067:2583  function findCoinIndex(string[] memory _myCoins, string memory _find, uint _startFrom) public pure returns (uint) {... */\n    tag_33:\n      swap4\n      swap3\n      pop\n      pop\n      pop\n      jump\t// out\n        /* \"contracts/BasicFunctions.sol\":1504:1680  function guessNumber(uint256 _guess) public pure returns (bool) {... */\n    tag_20:\n        /* \"contracts/BasicFunctions.sol\":1562:1566  bool */\n      0x00\n        /* \"contracts/BasicFunctions.sol\":1592:1593  5 */\n      0x05\n        /* \"contracts/BasicFunctions.sol\":1582:1588  _guess */\n      dup3\n        /* \"contracts/BasicFunctions.sol\":1582:1593  _guess == 5 */\n      sub\n        /* \"contracts/BasicFunctions.sol\":1578:1674  if (_guess == 5) {... */\n      tag_45\n      jumpi\n        /* \"contracts/BasicFunctions.sol\":1616:1620  true */\n      0x01\n        /* \"contracts/BasicFunctions.sol\":1609:1620  return true */\n      swap1\n      pop\n      jump(tag_44)\n        /* \"contracts/BasicFunctions.sol\":1578:1674  if (_guess == 5) {... */\n    tag_45:\n        /* \"contracts/BasicFunctions.sol\":1658:1663  false */\n      0x00\n        /* \"contracts/BasicFunctions.sol\":1651:1663  return false */\n      swap1\n      pop\n        /* \"contracts/BasicFunctions.sol\":1504:1680  function guessNumber(uint256 _guess) public pure returns (bool) {... */\n    tag_44:\n      swap2\n      swap1\n      pop\n      jump\t// out\n        /* \"contracts/BasicFunctions.sol\":1327:1355  uint public myBalance = 1000 */\n    tag_24:\n      sload(0x01)\n      dup2\n      jump\t// out\n        /* \"contracts/BasicFunctions.sol\":1731:1824  function getMyCoinName() public view returns (string memory) {... */\n    tag_27:\n        /* \"contracts/BasicFunctions.sol\":1777:1790  string memory */\n      0x60\n        /* \"contracts/BasicFunctions.sol\":1809:1817  coinName */\n      0x00\n        /* \"contracts/BasicFunctions.sol\":1802:1817  return coinName */\n      dup1\n      sload\n      tag_48\n      swap1\n      tag_49\n      jump\t// in\n    tag_48:\n      dup1\n      0x1f\n      add\n      0x20\n      dup1\n      swap2\n      div\n      mul\n      0x20\n      add\n      mload(0x40)\n      swap1\n      dup2\n      add\n      0x40\n      mstore\n      dup1\n      swap3\n      swap2\n      swap1\n      dup2\n      dup2\n      mstore\n      0x20\n      add\n      dup3\n      dup1\n      sload\n      tag_50\n      swap1\n      tag_49\n      jump\t// in\n    tag_50:\n      dup1\n      iszero\n      tag_51\n      jumpi\n      dup1\n      0x1f\n      lt\n      tag_52\n      jumpi\n      0x0100\n      dup1\n      dup4\n      sload\n      div\n      mul\n      dup4\n      mstore\n      swap2\n      0x20\n      add\n      swap2\n      jump(tag_51)\n    tag_52:\n      dup3\n      add\n      swap2\n      swap1\n      0x00\n      mstore\n      keccak256(0x00, 0x20)\n      swap1\n    tag_53:\n      dup2\n      sload\n      dup2\n      mstore\n      swap1\n      0x01\n      add\n      swap1\n      0x20\n      add\n      dup1\n      dup4\n      gt\n      tag_53\n      jumpi\n      dup3\n      swap1\n      sub\n      0x1f\n      and\n      dup3\n      add\n      swap2\n    tag_51:\n      pop\n      pop\n      pop\n      pop\n      pop\n      swap1\n      pop\n        /* \"contracts/BasicFunctions.sol\":1731:1824  function getMyCoinName() public view returns (string memory) {... */\n      swap1\n      jump\t// out\n        /* \"#utility.yul\":7:82   */\n    tag_54:\n        /* \"#utility.yul\":40:46   */\n      0x00\n        /* \"#utility.yul\":73:75   */\n      0x40\n        /* \"#utility.yul\":67:76   */\n      mload\n        /* \"#utility.yul\":57:76   */\n      swap1\n      pop\n        /* \"#utility.yul\":7:82   */\n      swap1\n      jump\t// out\n        /* \"#utility.yul\":88:205   */\n    tag_55:\n        /* \"#utility.yul\":197:198   */\n      0x00\n        /* \"#utility.yul\":194:195   */\n      0x00\n        /* \"#utility.yul\":187:199   */\n      revert\n        /* \"#utility.yul\":211:328   */\n    tag_56:\n        /* \"#utility.yul\":320:321   */\n      0x00\n        /* \"#utility.yul\":317:318   */\n      0x00\n        /* \"#utility.yul\":310:322   */\n      revert\n        /* \"#utility.yul\":334:411   */\n    tag_57:\n        /* \"#utility.yul\":371:378   */\n      0x00\n        /* \"#utility.yul\":400:405   */\n      dup2\n        /* \"#utility.yul\":389:405   */\n      swap1\n      pop\n        /* \"#utility.yul\":334:411   */\n      swap2\n      swap1\n      pop\n      jump\t// out\n        /* \"#utility.yul\":417:539   */\n    tag_58:\n        /* \"#utility.yul\":490:514   */\n      tag_91\n        /* \"#utility.yul\":508:513   */\n      dup2\n        /* \"#utility.yul\":490:514   */\n      tag_57\n      jump\t// in\n    tag_91:\n        /* \"#utility.yul\":483:488   */\n      dup2\n        /* \"#utility.yul\":480:515   */\n      eq\n        /* \"#utility.yul\":470:533   */\n      tag_92\n      jumpi\n        /* \"#utility.yul\":529:530   */\n      0x00\n        /* \"#utility.yul\":526:527   */\n      0x00\n        /* \"#utility.yul\":519:531   */\n      revert\n        /* \"#utility.yul\":470:533   */\n    tag_92:\n        /* \"#utility.yul\":417:539   */\n      pop\n      jump\t// out\n        /* \"#utility.yul\":545:684   */\n    tag_59:\n        /* \"#utility.yul\":591:596   */\n      0x00\n        /* \"#utility.yul\":629:635   */\n      dup2\n        /* \"#utility.yul\":616:636   */\n      calldataload\n        /* \"#utility.yul\":607:636   */\n      swap1\n      pop\n        /* \"#utility.yul\":645:678   */\n      tag_94\n        /* \"#utility.yul\":672:677   */\n      dup2\n        /* \"#utility.yul\":645:678   */\n      tag_58\n      jump\t// in\n    tag_94:\n        /* \"#utility.yul\":545:684   */\n      swap3\n      swap2\n      pop\n      pop\n      jump\t// out\n        /* \"#utility.yul\":690:1019   */\n    tag_10:\n        /* \"#utility.yul\":749:755   */\n      0x00\n        /* \"#utility.yul\":798:800   */\n      0x20\n        /* \"#utility.yul\":786:795   */\n      dup3\n        /* \"#utility.yul\":777:784   */\n      dup5\n        /* \"#utility.yul\":773:796   */\n      sub\n        /* \"#utility.yul\":769:801   */\n      slt\n        /* \"#utility.yul\":766:885   */\n      iszero\n      tag_96\n      jumpi\n        /* \"#utility.yul\":804:883   */\n      tag_97\n      tag_55\n      jump\t// in\n    tag_97:\n        /* \"#utility.yul\":766:885   */\n    tag_96:\n        /* \"#utility.yul\":924:925   */\n      0x00\n        /* \"#utility.yul\":949:1002   */\n      tag_98\n        /* \"#utility.yul\":994:1001   */\n      dup5\n        /* \"#utility.yul\":985:991   */\n      dup3\n        /* \"#utility.yul\":974:983   */\n      dup6\n        /* \"#utility.yul\":970:992   */\n      add\n        /* \"#utility.yul\":949:1002   */\n      tag_59\n      jump\t// in\n    tag_98:\n        /* \"#utility.yul\":939:1002   */\n      swap2\n      pop\n        /* \"#utility.yul\":895:1012   */\n      pop\n        /* \"#utility.yul\":690:1019   */\n      swap3\n      swap2\n      pop\n      pop\n      jump\t// out\n        /* \"#utility.yul\":1025:1142   */\n    tag_60:\n        /* \"#utility.yul\":1134:1135   */\n      0x00\n        /* \"#utility.yul\":1131:1132   */\n      0x00\n        /* \"#utility.yul\":1124:1136   */\n      revert\n        /* \"#utility.yul\":1148:1250   */\n    tag_61:\n        /* \"#utility.yul\":1189:1195   */\n      0x00\n        /* \"#utility.yul\":1240:1242   */\n      0x1f\n        /* \"#utility.yul\":1236:1243   */\n      not\n        /* \"#utility.yul\":1231:1233   */\n      0x1f\n        /* \"#utility.yul\":1224:1229   */\n      dup4\n        /* \"#utility.yul\":1220:1234   */\n      add\n        /* \"#utility.yul\":1216:1244   */\n      and\n        /* \"#utility.yul\":1206:1244   */\n      swap1\n      pop\n        /* \"#utility.yul\":1148:1250   */\n      swap2\n      swap1\n      pop\n      jump\t// out\n        /* \"#utility.yul\":1256:1436   */\n    tag_62:\n        /* \"#utility.yul\":1304:1381   */\n      0x4e487b7100000000000000000000000000000000000000000000000000000000\n        /* \"#utility.yul\":1301:1302   */\n      0x00\n        /* \"#utility.yul\":1294:1382   */\n      mstore\n        /* \"#utility.yul\":1401:1405   */\n      0x41\n        /* \"#utility.yul\":1398:1399   */\n      0x04\n        /* \"#utility.yul\":1391:1406   */\n      mstore\n        /* \"#utility.yul\":1425:1429   */\n      0x24\n        /* \"#utility.yul\":1422:1423   */\n      0x00\n        /* \"#utility.yul\":1415:1430   */\n      revert\n        /* \"#utility.yul\":1442:1723   */\n    tag_63:\n        /* \"#utility.yul\":1525:1552   */\n      tag_103\n        /* \"#utility.yul\":1547:1551   */\n      dup3\n        /* \"#utility.yul\":1525:1552   */\n      tag_61\n      jump\t// in\n    tag_103:\n        /* \"#utility.yul\":1517:1523   */\n      dup2\n        /* \"#utility.yul\":1513:1553   */\n      add\n        /* \"#utility.yul\":1655:1661   */\n      dup2\n        /* \"#utility.yul\":1643:1653   */\n      dup2\n        /* \"#utility.yul\":1640:1662   */\n      lt\n        /* \"#utility.yul\":1619:1637   */\n      0xffffffffffffffff\n        /* \"#utility.yul\":1607:1617   */\n      dup3\n        /* \"#utility.yul\":1604:1638   */\n      gt\n        /* \"#utility.yul\":1601:1663   */\n      or\n        /* \"#utility.yul\":1598:1686   */\n      iszero\n      tag_104\n      jumpi\n        /* \"#utility.yul\":1666:1684   */\n      tag_105\n      tag_62\n      jump\t// in\n    tag_105:\n        /* \"#utility.yul\":1598:1686   */\n    tag_104:\n        /* \"#utility.yul\":1706:1716   */\n      dup1\n        /* \"#utility.yul\":1702:1704   */\n      0x40\n        /* \"#utility.yul\":1695:1717   */\n      mstore\n        /* \"#utility.yul\":1485:1723   */\n      pop\n        /* \"#utility.yul\":1442:1723   */\n      pop\n      pop\n      jump\t// out\n        /* \"#utility.yul\":1729:1858   */\n    tag_64:\n        /* \"#utility.yul\":1763:1769   */\n      0x00\n        /* \"#utility.yul\":1790:1810   */\n      tag_107\n      tag_54\n      jump\t// in\n    tag_107:\n        /* \"#utility.yul\":1780:1810   */\n      swap1\n      pop\n        /* \"#utility.yul\":1819:1852   */\n      tag_108\n        /* \"#utility.yul\":1847:1851   */\n      dup3\n        /* \"#utility.yul\":1839:1845   */\n      dup3\n        /* \"#utility.yul\":1819:1852   */\n      tag_63\n      jump\t// in\n    tag_108:\n        /* \"#utility.yul\":1729:1858   */\n      swap2\n      swap1\n      pop\n      jump\t// out\n        /* \"#utility.yul\":1864:2185   */\n    tag_65:\n        /* \"#utility.yul\":1951:1955   */\n      0x00\n        /* \"#utility.yul\":2041:2059   */\n      0xffffffffffffffff\n        /* \"#utility.yul\":2033:2039   */\n      dup3\n        /* \"#utility.yul\":2030:2060   */\n      gt\n        /* \"#utility.yul\":2027:2083   */\n      iszero\n      tag_110\n      jumpi\n        /* \"#utility.yul\":2063:2081   */\n      tag_111\n      tag_62\n      jump\t// in\n    tag_111:\n        /* \"#utility.yul\":2027:2083   */\n    tag_110:\n        /* \"#utility.yul\":2113:2117   */\n      0x20\n        /* \"#utility.yul\":2105:2111   */\n      dup3\n        /* \"#utility.yul\":2101:2118   */\n      mul\n        /* \"#utility.yul\":2093:2118   */\n      swap1\n      pop\n        /* \"#utility.yul\":2173:2177   */\n      0x20\n        /* \"#utility.yul\":2167:2171   */\n      dup2\n        /* \"#utility.yul\":2163:2178   */\n      add\n        /* \"#utility.yul\":2155:2178   */\n      swap1\n      pop\n        /* \"#utility.yul\":1864:2185   */\n      swap2\n      swap1\n      pop\n      jump\t// out\n        /* \"#utility.yul\":2191:2308   */\n    tag_66:\n        /* \"#utility.yul\":2300:2301   */\n      0x00\n        /* \"#utility.yul\":2297:2298   */\n      0x00\n        /* \"#utility.yul\":2290:2302   */\n      revert\n        /* \"#utility.yul\":2314:2431   */\n    tag_67:\n        /* \"#utility.yul\":2423:2424   */\n      0x00\n        /* \"#utility.yul\":2420:2421   */\n      0x00\n        /* \"#utility.yul\":2413:2425   */\n      revert\n        /* \"#utility.yul\":2437:2745   */\n    tag_68:\n        /* \"#utility.yul\":2499:2503   */\n      0x00\n        /* \"#utility.yul\":2589:2607   */\n      0xffffffffffffffff\n        /* \"#utility.yul\":2581:2587   */\n      dup3\n        /* \"#utility.yul\":2578:2608   */\n      gt\n        /* \"#utility.yul\":2575:2631   */\n      iszero\n      tag_115\n      jumpi\n        /* \"#utility.yul\":2611:2629   */\n      tag_116\n      tag_62\n      jump\t// in\n    tag_116:\n        /* \"#utility.yul\":2575:2631   */\n    tag_115:\n        /* \"#utility.yul\":2649:2678   */\n      tag_117\n        /* \"#utility.yul\":2671:2677   */\n      dup3\n        /* \"#utility.yul\":2649:2678   */\n      tag_61\n      jump\t// in\n    tag_117:\n        /* \"#utility.yul\":2641:2678   */\n      swap1\n      pop\n        /* \"#utility.yul\":2733:2737   */\n      0x20\n        /* \"#utility.yul\":2727:2731   */\n      dup2\n        /* \"#utility.yul\":2723:2738   */\n      add\n        /* \"#utility.yul\":2715:2738   */\n      swap1\n      pop\n        /* \"#utility.yul\":2437:2745   */\n      swap2\n      swap1\n      pop\n      jump\t// out\n        /* \"#utility.yul\":2751:2899   */\n    tag_69:\n        /* \"#utility.yul\":2849:2855   */\n      dup3\n        /* \"#utility.yul\":2844:2847   */\n      dup2\n        /* \"#utility.yul\":2839:2842   */\n      dup4\n        /* \"#utility.yul\":2826:2856   */\n      calldatacopy\n        /* \"#utility.yul\":2890:2891   */\n      0x00\n        /* \"#utility.yul\":2881:2887   */\n      dup4\n        /* \"#utility.yul\":2876:2879   */\n      dup4\n        /* \"#utility.yul\":2872:2888   */\n      add\n        /* \"#utility.yul\":2865:2892   */\n      mstore\n        /* \"#utility.yul\":2751:2899   */\n      pop\n      pop\n      pop\n      jump\t// out\n        /* \"#utility.yul\":2905:3330   */\n    tag_70:\n        /* \"#utility.yul\":2983:2988   */\n      0x00\n        /* \"#utility.yul\":3008:3074   */\n      tag_120\n        /* \"#utility.yul\":3024:3073   */\n      tag_121\n        /* \"#utility.yul\":3066:3072   */\n      dup5\n        /* \"#utility.yul\":3024:3073   */\n      tag_68\n      jump\t// in\n    tag_121:\n        /* \"#utility.yul\":3008:3074   */\n      tag_64\n      jump\t// in\n    tag_120:\n        /* \"#utility.yul\":2999:3074   */\n      swap1\n      pop\n        /* \"#utility.yul\":3097:3103   */\n      dup3\n        /* \"#utility.yul\":3090:3095   */\n      dup2\n        /* \"#utility.yul\":3083:3104   */\n      mstore\n        /* \"#utility.yul\":3135:3139   */\n      0x20\n        /* \"#utility.yul\":3128:3133   */\n      dup2\n        /* \"#utility.yul\":3124:3140   */\n      add\n        /* \"#utility.yul\":3173:3176   */\n      dup5\n        /* \"#utility.yul\":3164:3170   */\n      dup5\n        /* \"#utility.yul\":3159:3162   */\n      dup5\n        /* \"#utility.yul\":3155:3171   */\n      add\n        /* \"#utility.yul\":3152:3177   */\n      gt\n        /* \"#utility.yul\":3149:3261   */\n      iszero\n      tag_122\n      jumpi\n        /* \"#utility.yul\":3180:3259   */\n      tag_123\n      tag_67\n      jump\t// in\n    tag_123:\n        /* \"#utility.yul\":3149:3261   */\n    tag_122:\n        /* \"#utility.yul\":3270:3324   */\n      tag_124\n        /* \"#utility.yul\":3317:3323   */\n      dup5\n        /* \"#utility.yul\":3312:3315   */\n      dup3\n        /* \"#utility.yul\":3307:3310   */\n      dup6\n        /* \"#utility.yul\":3270:3324   */\n      tag_69\n      jump\t// in\n    tag_124:\n        /* \"#utility.yul\":2989:3330   */\n      pop\n        /* \"#utility.yul\":2905:3330   */\n      swap4\n      swap3\n      pop\n      pop\n      pop\n      jump\t// out\n        /* \"#utility.yul\":3350:3690   */\n    tag_71:\n        /* \"#utility.yul\":3406:3411   */\n      0x00\n        /* \"#utility.yul\":3455:3458   */\n      dup3\n        /* \"#utility.yul\":3448:3452   */\n      0x1f\n        /* \"#utility.yul\":3440:3446   */\n      dup4\n        /* \"#utility.yul\":3436:3453   */\n      add\n        /* \"#utility.yul\":3432:3459   */\n      slt\n        /* \"#utility.yul\":3422:3544   */\n      tag_126\n      jumpi\n        /* \"#utility.yul\":3463:3542   */\n      tag_127\n      tag_60\n      jump\t// in\n    tag_127:\n        /* \"#utility.yul\":3422:3544   */\n    tag_126:\n        /* \"#utility.yul\":3580:3586   */\n      dup2\n        /* \"#utility.yul\":3567:3587   */\n      calldataload\n        /* \"#utility.yul\":3605:3684   */\n      tag_128\n        /* \"#utility.yul\":3680:3683   */\n      dup5\n        /* \"#utility.yul\":3672:3678   */\n      dup3\n        /* \"#utility.yul\":3665:3669   */\n      0x20\n        /* \"#utility.yul\":3657:3663   */\n      dup7\n        /* \"#utility.yul\":3653:3670   */\n      add\n        /* \"#utility.yul\":3605:3684   */\n      tag_70\n      jump\t// in\n    tag_128:\n        /* \"#utility.yul\":3596:3684   */\n      swap2\n      pop\n        /* \"#utility.yul\":3412:3690   */\n      pop\n        /* \"#utility.yul\":3350:3690   */\n      swap3\n      swap2\n      pop\n      pop\n      jump\t// out\n        /* \"#utility.yul\":3712:4657   */\n    tag_72:\n        /* \"#utility.yul\":3818:3823   */\n      0x00\n        /* \"#utility.yul\":3843:3934   */\n      tag_130\n        /* \"#utility.yul\":3859:3933   */\n      tag_131\n        /* \"#utility.yul\":3926:3932   */\n      dup5\n        /* \"#utility.yul\":3859:3933   */\n      tag_65\n      jump\t// in\n    tag_131:\n        /* \"#utility.yul\":3843:3934   */\n      tag_64\n      jump\t// in\n    tag_130:\n        /* \"#utility.yul\":3834:3934   */\n      swap1\n      pop\n        /* \"#utility.yul\":3954:3959   */\n      dup1\n        /* \"#utility.yul\":3983:3989   */\n      dup4\n        /* \"#utility.yul\":3976:3981   */\n      dup3\n        /* \"#utility.yul\":3969:3990   */\n      mstore\n        /* \"#utility.yul\":4017:4021   */\n      0x20\n        /* \"#utility.yul\":4010:4015   */\n      dup3\n        /* \"#utility.yul\":4006:4022   */\n      add\n        /* \"#utility.yul\":3999:4022   */\n      swap1\n      pop\n        /* \"#utility.yul\":4070:4074   */\n      0x20\n        /* \"#utility.yul\":4062:4068   */\n      dup5\n        /* \"#utility.yul\":4058:4075   */\n      mul\n        /* \"#utility.yul\":4050:4056   */\n      dup4\n        /* \"#utility.yul\":4046:4076   */\n      add\n        /* \"#utility.yul\":4099:4102   */\n      dup6\n        /* \"#utility.yul\":4091:4097   */\n      dup2\n        /* \"#utility.yul\":4088:4103   */\n      gt\n        /* \"#utility.yul\":4085:4207   */\n      iszero\n      tag_132\n      jumpi\n        /* \"#utility.yul\":4118:4197   */\n      tag_133\n      tag_66\n      jump\t// in\n    tag_133:\n        /* \"#utility.yul\":4085:4207   */\n    tag_132:\n        /* \"#utility.yul\":4233:4239   */\n      dup4\n        /* \"#utility.yul\":4216:4651   */\n    tag_134:\n        /* \"#utility.yul\":4250:4256   */\n      dup2\n        /* \"#utility.yul\":4245:4248   */\n      dup2\n        /* \"#utility.yul\":4242:4257   */\n      lt\n        /* \"#utility.yul\":4216:4651   */\n      iszero\n      tag_136\n      jumpi\n        /* \"#utility.yul\":4339:4342   */\n      dup1\n        /* \"#utility.yul\":4326:4343   */\n      calldataload\n        /* \"#utility.yul\":4375:4393   */\n      0xffffffffffffffff\n        /* \"#utility.yul\":4362:4373   */\n      dup2\n        /* \"#utility.yul\":4359:4394   */\n      gt\n        /* \"#utility.yul\":4356:4478   */\n      iszero\n      tag_137\n      jumpi\n        /* \"#utility.yul\":4397:4476   */\n      tag_138\n      tag_60\n      jump\t// in\n    tag_138:\n        /* \"#utility.yul\":4356:4478   */\n    tag_137:\n        /* \"#utility.yul\":4521:4532   */\n      dup1\n        /* \"#utility.yul\":4513:4519   */\n      dup7\n        /* \"#utility.yul\":4509:4533   */\n      add\n        /* \"#utility.yul\":4559:4606   */\n      tag_139\n        /* \"#utility.yul\":4602:4605   */\n      dup10\n        /* \"#utility.yul\":4590:4600   */\n      dup3\n        /* \"#utility.yul\":4559:4606   */\n      tag_71\n      jump\t// in\n    tag_139:\n        /* \"#utility.yul\":4554:4557   */\n      dup6\n        /* \"#utility.yul\":4547:4607   */\n      mstore\n        /* \"#utility.yul\":4636:4640   */\n      0x20\n        /* \"#utility.yul\":4631:4634   */\n      dup6\n        /* \"#utility.yul\":4627:4641   */\n      add\n        /* \"#utility.yul\":4620:4641   */\n      swap5\n      pop\n        /* \"#utility.yul\":4292:4651   */\n      pop\n      pop\n        /* \"#utility.yul\":4276:4280   */\n      0x20\n        /* \"#utility.yul\":4271:4274   */\n      dup2\n        /* \"#utility.yul\":4267:4281   */\n      add\n        /* \"#utility.yul\":4260:4281   */\n      swap1\n      pop\n        /* \"#utility.yul\":4216:4651   */\n      jump(tag_134)\n    tag_136:\n        /* \"#utility.yul\":4220:4241   */\n      pop\n        /* \"#utility.yul\":3824:4657   */\n      pop\n      pop\n        /* \"#utility.yul\":3712:4657   */\n      swap4\n      swap3\n      pop\n      pop\n      pop\n      jump\t// out\n        /* \"#utility.yul\":4679:5069   */\n    tag_73:\n        /* \"#utility.yul\":4760:4765   */\n      0x00\n        /* \"#utility.yul\":4809:4812   */\n      dup3\n        /* \"#utility.yul\":4802:4806   */\n      0x1f\n        /* \"#utility.yul\":4794:4800   */\n      dup4\n        /* \"#utility.yul\":4790:4807   */\n      add\n        /* \"#utility.yul\":4786:4813   */\n      slt\n        /* \"#utility.yul\":4776:4898   */\n      tag_141\n      jumpi\n        /* \"#utility.yul\":4817:4896   */\n      tag_142\n      tag_60\n      jump\t// in\n    tag_142:\n        /* \"#utility.yul\":4776:4898   */\n    tag_141:\n        /* \"#utility.yul\":4934:4940   */\n      dup2\n        /* \"#utility.yul\":4921:4941   */\n      calldataload\n        /* \"#utility.yul\":4959:5063   */\n      tag_143\n        /* \"#utility.yul\":5059:5062   */\n      dup5\n        /* \"#utility.yul\":5051:5057   */\n      dup3\n        /* \"#utility.yul\":5044:5048   */\n      0x20\n        /* \"#utility.yul\":5036:5042   */\n      dup7\n        /* \"#utility.yul\":5032:5049   */\n      add\n        /* \"#utility.yul\":4959:5063   */\n      tag_72\n      jump\t// in\n    tag_143:\n        /* \"#utility.yul\":4950:5063   */\n      swap2\n      pop\n        /* \"#utility.yul\":4766:5069   */\n      pop\n        /* \"#utility.yul\":4679:5069   */\n      swap3\n      swap2\n      pop\n      pop\n      jump\t// out\n        /* \"#utility.yul\":5075:6104   */\n    tag_14:\n        /* \"#utility.yul\":5197:5203   */\n      0x00\n        /* \"#utility.yul\":5205:5211   */\n      0x00\n        /* \"#utility.yul\":5213:5219   */\n      0x00\n        /* \"#utility.yul\":5262:5264   */\n      0x60\n        /* \"#utility.yul\":5250:5259   */\n      dup5\n        /* \"#utility.yul\":5241:5248   */\n      dup7\n        /* \"#utility.yul\":5237:5260   */\n      sub\n        /* \"#utility.yul\":5233:5265   */\n      slt\n        /* \"#utility.yul\":5230:5349   */\n      iszero\n      tag_145\n      jumpi\n        /* \"#utility.yul\":5268:5347   */\n      tag_146\n      tag_55\n      jump\t// in\n    tag_146:\n        /* \"#utility.yul\":5230:5349   */\n    tag_145:\n        /* \"#utility.yul\":5416:5417   */\n      0x00\n        /* \"#utility.yul\":5405:5414   */\n      dup5\n        /* \"#utility.yul\":5401:5418   */\n      add\n        /* \"#utility.yul\":5388:5419   */\n      calldataload\n        /* \"#utility.yul\":5446:5464   */\n      0xffffffffffffffff\n        /* \"#utility.yul\":5438:5444   */\n      dup2\n        /* \"#utility.yul\":5435:5465   */\n      gt\n        /* \"#utility.yul\":5432:5549   */\n      iszero\n      tag_147\n      jumpi\n        /* \"#utility.yul\":5468:5547   */\n      tag_148\n      tag_56\n      jump\t// in\n    tag_148:\n        /* \"#utility.yul\":5432:5549   */\n    tag_147:\n        /* \"#utility.yul\":5573:5661   */\n      tag_149\n        /* \"#utility.yul\":5653:5660   */\n      dup7\n        /* \"#utility.yul\":5644:5650   */\n      dup3\n        /* \"#utility.yul\":5633:5642   */\n      dup8\n        /* \"#utility.yul\":5629:5651   */\n      add\n        /* \"#utility.yul\":5573:5661   */\n      tag_73\n      jump\t// in\n    tag_149:\n        /* \"#utility.yul\":5563:5661   */\n      swap4\n      pop\n        /* \"#utility.yul\":5359:5671   */\n      pop\n        /* \"#utility.yul\":5738:5740   */\n      0x20\n        /* \"#utility.yul\":5727:5736   */\n      dup5\n        /* \"#utility.yul\":5723:5741   */\n      add\n        /* \"#utility.yul\":5710:5742   */\n      calldataload\n        /* \"#utility.yul\":5769:5787   */\n      0xffffffffffffffff\n        /* \"#utility.yul\":5761:5767   */\n      dup2\n        /* \"#utility.yul\":5758:5788   */\n      gt\n        /* \"#utility.yul\":5755:5872   */\n      iszero\n      tag_150\n      jumpi\n        /* \"#utility.yul\":5791:5870   */\n      tag_151\n      tag_56\n      jump\t// in\n    tag_151:\n        /* \"#utility.yul\":5755:5872   */\n    tag_150:\n        /* \"#utility.yul\":5896:5959   */\n      tag_152\n        /* \"#utility.yul\":5951:5958   */\n      dup7\n        /* \"#utility.yul\":5942:5948   */\n      dup3\n        /* \"#utility.yul\":5931:5940   */\n      dup8\n        /* \"#utility.yul\":5927:5949   */\n      add\n        /* \"#utility.yul\":5896:5959   */\n      tag_71\n      jump\t// in\n    tag_152:\n        /* \"#utility.yul\":5886:5959   */\n      swap3\n      pop\n        /* \"#utility.yul\":5681:5969   */\n      pop\n        /* \"#utility.yul\":6008:6010   */\n      0x40\n        /* \"#utility.yul\":6034:6087   */\n      tag_153\n        /* \"#utility.yul\":6079:6086   */\n      dup7\n        /* \"#utility.yul\":6070:6076   */\n      dup3\n        /* \"#utility.yul\":6059:6068   */\n      dup8\n        /* \"#utility.yul\":6055:6077   */\n      add\n        /* \"#utility.yul\":6034:6087   */\n      tag_59\n      jump\t// in\n    tag_153:\n        /* \"#utility.yul\":6024:6087   */\n      swap2\n      pop\n        /* \"#utility.yul\":5979:6097   */\n      pop\n        /* \"#utility.yul\":5075:6104   */\n      swap3\n      pop\n      swap3\n      pop\n      swap3\n      jump\t// out\n        /* \"#utility.yul\":6110:6228   */\n    tag_74:\n        /* \"#utility.yul\":6197:6221   */\n      tag_155\n        /* \"#utility.yul\":6215:6220   */\n      dup2\n        /* \"#utility.yul\":6197:6221   */\n      tag_57\n      jump\t// in\n    tag_155:\n        /* \"#utility.yul\":6192:6195   */\n      dup3\n        /* \"#utility.yul\":6185:6222   */\n      mstore\n        /* \"#utility.yul\":6110:6228   */\n      pop\n      pop\n      jump\t// out\n        /* \"#utility.yul\":6234:6456   */\n    tag_17:\n        /* \"#utility.yul\":6327:6331   */\n      0x00\n        /* \"#utility.yul\":6365:6367   */\n      0x20\n        /* \"#utility.yul\":6354:6363   */\n      dup3\n        /* \"#utility.yul\":6350:6368   */\n      add\n        /* \"#utility.yul\":6342:6368   */\n      swap1\n      pop\n        /* \"#utility.yul\":6378:6449   */\n      tag_157\n        /* \"#utility.yul\":6446:6447   */\n      0x00\n        /* \"#utility.yul\":6435:6444   */\n      dup4\n        /* \"#utility.yul\":6431:6448   */\n      add\n        /* \"#utility.yul\":6422:6428   */\n      dup5\n        /* \"#utility.yul\":6378:6449   */\n      tag_74\n      jump\t// in\n    tag_157:\n        /* \"#utility.yul\":6234:6456   */\n      swap3\n      swap2\n      pop\n      pop\n      jump\t// out\n        /* \"#utility.yul\":6462:6552   */\n    tag_75:\n        /* \"#utility.yul\":6496:6503   */\n      0x00\n        /* \"#utility.yul\":6539:6544   */\n      dup2\n        /* \"#utility.yul\":6532:6545   */\n      iszero\n        /* \"#utility.yul\":6525:6546   */\n      iszero\n        /* \"#utility.yul\":6514:6546   */\n      swap1\n      pop\n        /* \"#utility.yul\":6462:6552   */\n      swap2\n      swap1\n      pop\n      jump\t// out\n        /* \"#utility.yul\":6558:6667   */\n    tag_76:\n        /* \"#utility.yul\":6639:6660   */\n      tag_160\n        /* \"#utility.yul\":6654:6659   */\n      dup2\n        /* \"#utility.yul\":6639:6660   */\n      tag_75\n      jump\t// in\n    tag_160:\n        /* \"#utility.yul\":6634:6637   */\n      dup3\n        /* \"#utility.yul\":6627:6661   */\n      mstore\n        /* \"#utility.yul\":6558:6667   */\n      pop\n      pop\n      jump\t// out\n        /* \"#utility.yul\":6673:6883   */\n    tag_22:\n        /* \"#utility.yul\":6760:6764   */\n      0x00\n        /* \"#utility.yul\":6798:6800   */\n      0x20\n        /* \"#utility.yul\":6787:6796   */\n      dup3\n        /* \"#utility.yul\":6783:6801   */\n      add\n        /* \"#utility.yul\":6775:6801   */\n      swap1\n      pop\n        /* \"#utility.yul\":6811:6876   */\n      tag_162\n        /* \"#utility.yul\":6873:6874   */\n      0x00\n        /* \"#utility.yul\":6862:6871   */\n      dup4\n        /* \"#utility.yul\":6858:6875   */\n      add\n        /* \"#utility.yul\":6849:6855   */\n      dup5\n        /* \"#utility.yul\":6811:6876   */\n      tag_76\n      jump\t// in\n    tag_162:\n        /* \"#utility.yul\":6673:6883   */\n      swap3\n      swap2\n      pop\n      pop\n      jump\t// out\n        /* \"#utility.yul\":6889:6988   */\n    tag_77:\n        /* \"#utility.yul\":6941:6947   */\n      0x00\n        /* \"#utility.yul\":6975:6980   */\n      dup2\n        /* \"#utility.yul\":6969:6981   */\n      mload\n        /* \"#utility.yul\":6959:6981   */\n      swap1\n      pop\n        /* \"#utility.yul\":6889:6988   */\n      swap2\n      swap1\n      pop\n      jump\t// out\n        /* \"#utility.yul\":6994:7163   */\n    tag_78:\n        /* \"#utility.yul\":7078:7089   */\n      0x00\n        /* \"#utility.yul\":7112:7118   */\n      dup3\n        /* \"#utility.yul\":7107:7110   */\n      dup3\n        /* \"#utility.yul\":7100:7119   */\n      mstore\n        /* \"#utility.yul\":7152:7156   */\n      0x20\n        /* \"#utility.yul\":7147:7150   */\n      dup3\n        /* \"#utility.yul\":7143:7157   */\n      add\n        /* \"#utility.yul\":7128:7157   */\n      swap1\n      pop\n        /* \"#utility.yul\":6994:7163   */\n      swap3\n      swap2\n      pop\n      pop\n      jump\t// out\n        /* \"#utility.yul\":7169:7308   */\n    tag_79:\n        /* \"#utility.yul\":7258:7264   */\n      dup3\n        /* \"#utility.yul\":7253:7256   */\n      dup2\n        /* \"#utility.yul\":7248:7251   */\n      dup4\n        /* \"#utility.yul\":7242:7265   */\n      mcopy\n        /* \"#utility.yul\":7299:7300   */\n      0x00\n        /* \"#utility.yul\":7290:7296   */\n      dup4\n        /* \"#utility.yul\":7285:7288   */\n      dup4\n        /* \"#utility.yul\":7281:7297   */\n      add\n        /* \"#utility.yul\":7274:7301   */\n      mstore\n        /* \"#utility.yul\":7169:7308   */\n      pop\n      pop\n      pop\n      jump\t// out\n        /* \"#utility.yul\":7314:7691   */\n    tag_80:\n        /* \"#utility.yul\":7402:7405   */\n      0x00\n        /* \"#utility.yul\":7430:7469   */\n      tag_167\n        /* \"#utility.yul\":7463:7468   */\n      dup3\n        /* \"#utility.yul\":7430:7469   */\n      tag_77\n      jump\t// in\n    tag_167:\n        /* \"#utility.yul\":7485:7556   */\n      tag_168\n        /* \"#utility.yul\":7549:7555   */\n      dup2\n        /* \"#utility.yul\":7544:7547   */\n      dup6\n        /* \"#utility.yul\":7485:7556   */\n      tag_78\n      jump\t// in\n    tag_168:\n        /* \"#utility.yul\":7478:7556   */\n      swap4\n      pop\n        /* \"#utility.yul\":7565:7630   */\n      tag_169\n        /* \"#utility.yul\":7623:7629   */\n      dup2\n        /* \"#utility.yul\":7618:7621   */\n      dup6\n        /* \"#utility.yul\":7611:7615   */\n      0x20\n        /* \"#utility.yul\":7604:7609   */\n      dup7\n        /* \"#utility.yul\":7600:7616   */\n      add\n        /* \"#utility.yul\":7565:7630   */\n      tag_79\n      jump\t// in\n    tag_169:\n        /* \"#utility.yul\":7655:7684   */\n      tag_170\n        /* \"#utility.yul\":7677:7683   */\n      dup2\n        /* \"#utility.yul\":7655:7684   */\n      tag_61\n      jump\t// in\n    tag_170:\n        /* \"#utility.yul\":7650:7653   */\n      dup5\n        /* \"#utility.yul\":7646:7685   */\n      add\n        /* \"#utility.yul\":7639:7685   */\n      swap2\n      pop\n        /* \"#utility.yul\":7406:7691   */\n      pop\n        /* \"#utility.yul\":7314:7691   */\n      swap3\n      swap2\n      pop\n      pop\n      jump\t// out\n        /* \"#utility.yul\":7697:8010   */\n    tag_29:\n        /* \"#utility.yul\":7810:7814   */\n      0x00\n        /* \"#utility.yul\":7848:7850   */\n      0x20\n        /* \"#utility.yul\":7837:7846   */\n      dup3\n        /* \"#utility.yul\":7833:7851   */\n      add\n        /* \"#utility.yul\":7825:7851   */\n      swap1\n      pop\n        /* \"#utility.yul\":7897:7906   */\n      dup2\n        /* \"#utility.yul\":7891:7895   */\n      dup2\n        /* \"#utility.yul\":7887:7907   */\n      sub\n        /* \"#utility.yul\":7883:7884   */\n      0x00\n        /* \"#utility.yul\":7872:7881   */\n      dup4\n        /* \"#utility.yul\":7868:7885   */\n      add\n        /* \"#utility.yul\":7861:7908   */\n      mstore\n        /* \"#utility.yul\":7925:8003   */\n      tag_172\n        /* \"#utility.yul\":7998:8002   */\n      dup2\n        /* \"#utility.yul\":7989:7995   */\n      dup5\n        /* \"#utility.yul\":7925:8003   */\n      tag_80\n      jump\t// in\n    tag_172:\n        /* \"#utility.yul\":7917:8003   */\n      swap1\n      pop\n        /* \"#utility.yul\":7697:8010   */\n      swap3\n      swap2\n      pop\n      pop\n      jump\t// out\n        /* \"#utility.yul\":8016:8196   */\n    tag_81:\n        /* \"#utility.yul\":8064:8141   */\n      0x4e487b7100000000000000000000000000000000000000000000000000000000\n        /* \"#utility.yul\":8061:8062   */\n      0x00\n        /* \"#utility.yul\":8054:8142   */\n      mstore\n        /* \"#utility.yul\":8161:8165   */\n      0x11\n        /* \"#utility.yul\":8158:8159   */\n      0x04\n        /* \"#utility.yul\":8151:8166   */\n      mstore\n        /* \"#utility.yul\":8185:8189   */\n      0x24\n        /* \"#utility.yul\":8182:8183   */\n      0x00\n        /* \"#utility.yul\":8175:8190   */\n      revert\n        /* \"#utility.yul\":8202:8612   */\n    tag_32:\n        /* \"#utility.yul\":8242:8249   */\n      0x00\n        /* \"#utility.yul\":8265:8285   */\n      tag_175\n        /* \"#utility.yul\":8283:8284   */\n      dup3\n        /* \"#utility.yul\":8265:8285   */\n      tag_57\n      jump\t// in\n    tag_175:\n        /* \"#utility.yul\":8260:8285   */\n      swap2\n      pop\n        /* \"#utility.yul\":8299:8319   */\n      tag_176\n        /* \"#utility.yul\":8317:8318   */\n      dup4\n        /* \"#utility.yul\":8299:8319   */\n      tag_57\n      jump\t// in\n    tag_176:\n        /* \"#utility.yul\":8294:8319   */\n      swap3\n      pop\n        /* \"#utility.yul\":8354:8355   */\n      dup3\n        /* \"#utility.yul\":8351:8352   */\n      dup3\n        /* \"#utility.yul\":8347:8356   */\n      mul\n        /* \"#utility.yul\":8376:8406   */\n      tag_177\n        /* \"#utility.yul\":8394:8405   */\n      dup2\n        /* \"#utility.yul\":8376:8406   */\n      tag_57\n      jump\t// in\n    tag_177:\n        /* \"#utility.yul\":8365:8406   */\n      swap2\n      pop\n        /* \"#utility.yul\":8555:8556   */\n      dup3\n        /* \"#utility.yul\":8546:8553   */\n      dup3\n        /* \"#utility.yul\":8542:8557   */\n      div\n        /* \"#utility.yul\":8539:8540   */\n      dup5\n        /* \"#utility.yul\":8536:8558   */\n      eq\n        /* \"#utility.yul\":8516:8517   */\n      dup4\n        /* \"#utility.yul\":8509:8518   */\n      iszero\n        /* \"#utility.yul\":8489:8572   */\n      or\n        /* \"#utility.yul\":8466:8605   */\n      tag_178\n      jumpi\n        /* \"#utility.yul\":8585:8603   */\n      tag_179\n      tag_81\n      jump\t// in\n    tag_179:\n        /* \"#utility.yul\":8466:8605   */\n    tag_178:\n        /* \"#utility.yul\":8250:8612   */\n      pop\n        /* \"#utility.yul\":8202:8612   */\n      swap3\n      swap2\n      pop\n      pop\n      jump\t// out\n        /* \"#utility.yul\":8618:8798   */\n    tag_39:\n        /* \"#utility.yul\":8666:8743   */\n      0x4e487b7100000000000000000000000000000000000000000000000000000000\n        /* \"#utility.yul\":8663:8664   */\n      0x00\n        /* \"#utility.yul\":8656:8744   */\n      mstore\n        /* \"#utility.yul\":8763:8767   */\n      0x32\n        /* \"#utility.yul\":8760:8761   */\n      0x04\n        /* \"#utility.yul\":8753:8768   */\n      mstore\n        /* \"#utility.yul\":8787:8791   */\n      0x24\n        /* \"#utility.yul\":8784:8785   */\n      0x00\n        /* \"#utility.yul\":8777:8792   */\n      revert\n        /* \"#utility.yul\":8804:8952   */\n    tag_82:\n        /* \"#utility.yul\":8906:8917   */\n      0x00\n        /* \"#utility.yul\":8943:8946   */\n      dup2\n        /* \"#utility.yul\":8928:8946   */\n      swap1\n      pop\n        /* \"#utility.yul\":8804:8952   */\n      swap3\n      swap2\n      pop\n      pop\n      jump\t// out\n        /* \"#utility.yul\":8958:9348   */\n    tag_83:\n        /* \"#utility.yul\":9064:9067   */\n      0x00\n        /* \"#utility.yul\":9092:9131   */\n      tag_183\n        /* \"#utility.yul\":9125:9130   */\n      dup3\n        /* \"#utility.yul\":9092:9131   */\n      tag_77\n      jump\t// in\n    tag_183:\n        /* \"#utility.yul\":9147:9236   */\n      tag_184\n        /* \"#utility.yul\":9229:9235   */\n      dup2\n        /* \"#utility.yul\":9224:9227   */\n      dup6\n        /* \"#utility.yul\":9147:9236   */\n      tag_82\n      jump\t// in\n    tag_184:\n        /* \"#utility.yul\":9140:9236   */\n      swap4\n      pop\n        /* \"#utility.yul\":9245:9310   */\n      tag_185\n        /* \"#utility.yul\":9303:9309   */\n      dup2\n        /* \"#utility.yul\":9298:9301   */\n      dup6\n        /* \"#utility.yul\":9291:9295   */\n      0x20\n        /* \"#utility.yul\":9284:9289   */\n      dup7\n        /* \"#utility.yul\":9280:9296   */\n      add\n        /* \"#utility.yul\":9245:9310   */\n      tag_79\n      jump\t// in\n    tag_185:\n        /* \"#utility.yul\":9335:9341   */\n      dup1\n        /* \"#utility.yul\":9330:9333   */\n      dup5\n        /* \"#utility.yul\":9326:9342   */\n      add\n        /* \"#utility.yul\":9319:9342   */\n      swap2\n      pop\n        /* \"#utility.yul\":9068:9348   */\n      pop\n        /* \"#utility.yul\":8958:9348   */\n      swap3\n      swap2\n      pop\n      pop\n      jump\t// out\n        /* \"#utility.yul\":9354:9629   */\n    tag_41:\n        /* \"#utility.yul\":9486:9489   */\n      0x00\n        /* \"#utility.yul\":9508:9603   */\n      tag_187\n        /* \"#utility.yul\":9599:9602   */\n      dup3\n        /* \"#utility.yul\":9590:9596   */\n      dup5\n        /* \"#utility.yul\":9508:9603   */\n      tag_83\n      jump\t// in\n    tag_187:\n        /* \"#utility.yul\":9501:9603   */\n      swap2\n      pop\n        /* \"#utility.yul\":9620:9623   */\n      dup2\n        /* \"#utility.yul\":9613:9623   */\n      swap1\n      pop\n        /* \"#utility.yul\":9354:9629   */\n      swap3\n      swap2\n      pop\n      pop\n      jump\t// out\n        /* \"#utility.yul\":9635:9815   */\n    tag_84:\n        /* \"#utility.yul\":9683:9760   */\n      0x4e487b7100000000000000000000000000000000000000000000000000000000\n        /* \"#utility.yul\":9680:9681   */\n      0x00\n        /* \"#utility.yul\":9673:9761   */\n      mstore\n        /* \"#utility.yul\":9780:9784   */\n      0x22\n        /* \"#utility.yul\":9777:9778   */\n      0x04\n        /* \"#utility.yul\":9770:9785   */\n      mstore\n        /* \"#utility.yul\":9804:9808   */\n      0x24\n        /* \"#utility.yul\":9801:9802   */\n      0x00\n        /* \"#utility.yul\":9794:9809   */\n      revert\n        /* \"#utility.yul\":9821:10141   */\n    tag_49:\n        /* \"#utility.yul\":9865:9871   */\n      0x00\n        /* \"#utility.yul\":9902:9903   */\n      0x02\n        /* \"#utility.yul\":9896:9900   */\n      dup3\n        /* \"#utility.yul\":9892:9904   */\n      div\n        /* \"#utility.yul\":9882:9904   */\n      swap1\n      pop\n        /* \"#utility.yul\":9949:9950   */\n      0x01\n        /* \"#utility.yul\":9943:9947   */\n      dup3\n        /* \"#utility.yul\":9939:9951   */\n      and\n        /* \"#utility.yul\":9970:9988   */\n      dup1\n        /* \"#utility.yul\":9960:10041   */\n      tag_190\n      jumpi\n        /* \"#utility.yul\":10026:10030   */\n      0x7f\n        /* \"#utility.yul\":10018:10024   */\n      dup3\n        /* \"#utility.yul\":10014:10031   */\n      and\n        /* \"#utility.yul\":10004:10031   */\n      swap2\n      pop\n        /* \"#utility.yul\":9960:10041   */\n    tag_190:\n        /* \"#utility.yul\":10088:10090   */\n      0x20\n        /* \"#utility.yul\":10080:10086   */\n      dup3\n        /* \"#utility.yul\":10077:10091   */\n      lt\n        /* \"#utility.yul\":10057:10075   */\n      dup2\n        /* \"#utility.yul\":10054:10092   */\n      sub\n        /* \"#utility.yul\":10051:10135   */\n      tag_191\n      jumpi\n        /* \"#utility.yul\":10107:10125   */\n      tag_192\n      tag_84\n      jump\t// in\n    tag_192:\n        /* \"#utility.yul\":10051:10135   */\n    tag_191:\n        /* \"#utility.yul\":9872:10141   */\n      pop\n        /* \"#utility.yul\":9821:10141   */\n      swap2\n      swap1\n      pop\n      jump\t// out\n\n    auxdata: 0xa2646970667358221220c846a9260187c2c4260286d7f13ad70095cb6cc72e1bb67610142ec2e57a229b64736f6c634300081e0033\n}\n",
				"bytecode": {
					"linkReferences": {},
					"object": "60806040526040518060400160405280600981526020017f4570696320436f696e00000000000000000000000000000000000000000000008152505f9081610047919061029c565b506103e8600155348015610059575f5ffd5b5061036b565b5f81519050919050565b7f4e487b71000000000000000000000000000000000000000000000000000000005f52604160045260245ffd5b7f4e487b71000000000000000000000000000000000000000000000000000000005f52602260045260245ffd5b5f60028204905060018216806100da57607f821691505b6020821081036100ed576100ec610096565b5b50919050565b5f819050815f5260205f209050919050565b5f6020601f8301049050919050565b5f82821b905092915050565b5f6008830261014f7fffffffffffffffffffffffffffffffffffffffffffffffffffffffffffffffff82610114565b6101598683610114565b95508019841693508086168417925050509392505050565b5f819050919050565b5f819050919050565b5f61019d61019861019384610171565b61017a565b610171565b9050919050565b5f819050919050565b6101b683610183565b6101ca6101c2826101a4565b848454610120565b825550505050565b5f5f905090565b6101e16101d2565b6101ec8184846101ad565b505050565b5b8181101561020f576102045f826101d9565b6001810190506101f2565b5050565b601f82111561025457610225816100f3565b61022e84610105565b8101602085101561023d578190505b61025161024985610105565b8301826101f1565b50505b505050565b5f82821c905092915050565b5f6102745f1984600802610259565b1980831691505092915050565b5f61028c8383610265565b9150826002028217905092915050565b6102a58261005f565b67ffffffffffffffff8111156102be576102bd610069565b5b6102c882546100c3565b6102d3828285610213565b5f60209050601f831160018114610304575f84156102f2578287015190505b6102fc8582610281565b865550610363565b601f198416610312866100f3565b5f5b8281101561033957848901518255600182019150602085019450602081019050610314565b868310156103565784890151610352601f891682610265565b8355505b6001600288020188555050505b505050505050565b6107ec806103785f395ff3fe608060405234801561000f575f5ffd5b5060043610610055575f3560e01c80630ac543de146100595780638a9424b714610075578063b438d018146100a5578063c9116b69146100d5578063d0f7df40146100f3575b5f5ffd5b610073600480360381019061006e91906102c2565b610111565b005b61008f600480360381019061008a919061050b565b610128565b60405161009c91906105a2565b60405180910390f35b6100bf60048036038101906100ba91906102c2565b6101ce565b6040516100cc91906105d5565b60405180910390f35b6100dd6101e9565b6040516100ea91906105a2565b60405180910390f35b6100fb6101ef565b604051610108919061064e565b60405180910390f35b8060015461011f919061069b565b60018190555050565b5f5f8290505b84518110156101c0575f85828151811061014b5761014a6106dc565b5b60200260200101519050846040516020016101669190610743565b604051602081830303815290604052805190602001208160405160200161018d9190610743565b60405160208183030381529060405280519060200120036101b25781925050506101c7565b50808060010191505061012e565b5061270f90505b9392505050565b5f600582036101e057600190506101e4565b5f90505b919050565b60015481565b60605f80546101fd90610786565b80601f016020809104026020016040519081016040528092919081815260200182805461022990610786565b80156102745780601f1061024b57610100808354040283529160200191610274565b820191905f5260205f20905b81548152906001019060200180831161025757829003601f168201915b5050505050905090565b5f604051905090565b5f5ffd5b5f5ffd5b5f819050919050565b6102a18161028f565b81146102ab575f5ffd5b50565b5f813590506102bc81610298565b92915050565b5f602082840312156102d7576102d6610287565b5b5f6102e4848285016102ae565b91505092915050565b5f5ffd5b5f601f19601f8301169050919050565b7f4e487b71000000000000000000000000000000000000000000000000000000005f52604160045260245ffd5b610337826102f1565b810181811067ffffffffffffffff8211171561035657610355610301565b5b80604052505050565b5f61036861027e565b9050610374828261032e565b919050565b5f67ffffffffffffffff82111561039357610392610301565b5b602082029050602081019050919050565b5f5ffd5b5f5ffd5b5f67ffffffffffffffff8211156103c6576103c5610301565b5b6103cf826102f1565b9050602081019050919050565b828183375f83830152505050565b5f6103fc6103f7846103ac565b61035f565b905082815260208101848484011115610418576104176103a8565b5b6104238482856103dc565b509392505050565b5f82601f83011261043f5761043e6102ed565b5b813561044f8482602086016103ea565b91505092915050565b5f61046a61046584610379565b61035f565b9050808382526020820190506020840283018581111561048d5761048c6103a4565b5b835b818110156104d457803567ffffffffffffffff8111156104b2576104b16102ed565b5b8086016104bf898261042b565b8552602085019450505060208101905061048f565b5050509392505050565b5f82601f8301126104f2576104f16102ed565b5b8135610502848260208601610458565b91505092915050565b5f5f5f6060848603121561052257610521610287565b5b5f84013567ffffffffffffffff81111561053f5761053e61028b565b5b61054b868287016104de565b935050602084013567ffffffffffffffff81111561056c5761056b61028b565b5b6105788682870161042b565b9250506040610589868287016102ae565b9150509250925092565b61059c8161028f565b82525050565b5f6020820190506105b55f830184610593565b92915050565b5f8115159050919050565b6105cf816105bb565b82525050565b5f6020820190506105e85f8301846105c6565b92915050565b5f81519050919050565b5f82825260208201905092915050565b8281835e5f83830152505050565b5f610620826105ee565b61062a81856105f8565b935061063a818560208601610608565b610643816102f1565b840191505092915050565b5f6020820190508181035f8301526106668184610616565b905092915050565b7f4e487b71000000000000000000000000000000000000000000000000000000005f52601160045260245ffd5b5f6106a58261028f565b91506106b08361028f565b92508282026106be8161028f565b915082820484148315176106d5576106d461066e565b5b5092915050565b7f4e487b71000000000000000000000000000000000000000000000000000000005f52603260045260245ffd5b5f81905092915050565b5f61071d826105ee565b6107278185610709565b9350610737818560208601610608565b80840191505092915050565b5f61074e8284610713565b915081905092915050565b7f4e487b71000000000000000000000000000000000000000000000000000000005f52602260045260245ffd5b5f600282049050600182168061079d57607f821691505b6020821081036107b0576107af610759565b5b5091905056fea2646970667358221220c846a9260187c2c4260286d7f13ad70095cb6cc72e1bb67610142ec2e57a229b64736f6c634300081e0033",
					"opcodes": "PUSH1 0x80 PUSH1 0x40 MSTORE PUSH1 0x40 MLOAD DUP1 PUSH1 0x40 ADD PUSH1 0x40 MSTORE DUP1 PUSH1 0x9 DUP2 MSTORE PUSH1 0x20 ADD PUSH32 0x4570696320436F696E0000000000000000000000000000000000000000000000 DUP2 MSTORE POP PUSH0 SWAP1 DUP2 PUSH2 0x47 SWAP2 SWAP1 PUSH2 0x29C JUMP JUMPDEST POP PUSH2 0x3E8 PUSH1 0x1 SSTORE CALLVALUE DUP1 ISZERO PUSH2 0x59 JUMPI PUSH0 PUSH0 REVERT JUMPDEST POP PUSH2 0x36B JUMP JUMPDEST PUSH0 DUP2 MLOAD SWAP1 POP SWAP2 SWAP1 POP JUMP JUMPDEST PUSH32 0x4E487B7100000000000000000000000000000000000000000000000000000000 PUSH0 MSTORE PUSH1 0x41 PUSH1 0x4 MSTORE PUSH1 0x24 PUSH0 REVERT JUMPDEST PUSH32 0x4E487B7100000000000000000000000000000000000000000000000000000000 PUSH0 MSTORE PUSH1 0x22 PUSH1 0x4 MSTORE PUSH1 0x24 PUSH0 REVERT JUMPDEST PUSH0 PUSH1 0x2 DUP3 DIV SWAP1 POP PUSH1 0x1 DUP3 AND DUP1 PUSH2 0xDA JUMPI PUSH1 0x7F DUP3 AND SWAP2 POP JUMPDEST PUSH1 0x20 DUP3 LT DUP2 SUB PUSH2 0xED JUMPI PUSH2 0xEC PUSH2 0x96 JUMP JUMPDEST JUMPDEST POP SWAP2 SWAP1 POP JUMP JUMPDEST PUSH0 DUP2 SWAP1 POP DUP2 PUSH0 MSTORE PUSH1 0x20 PUSH0 KECCAK256 SWAP1 POP SWAP2 SWAP1 POP JUMP JUMPDEST PUSH0 PUSH1 0x20 PUSH1 0x1F DUP4 ADD DIV SWAP1 POP SWAP2 SWAP1 POP JUMP JUMPDEST PUSH0 DUP3 DUP3 SHL SWAP1 POP SWAP3 SWAP2 POP POP JUMP JUMPDEST PUSH0 PUSH1 0x8 DUP4 MUL PUSH2 0x14F PUSH32 0xFFFFFFFFFFFFFFFFFFFFFFFFFFFFFFFFFFFFFFFFFFFFFFFFFFFFFFFFFFFFFFFF DUP3 PUSH2 0x114 JUMP JUMPDEST PUSH2 0x159 DUP7 DUP4 PUSH2 0x114 JUMP JUMPDEST SWAP6 POP DUP1 NOT DUP5 AND SWAP4 POP DUP1 DUP7 AND DUP5 OR SWAP3 POP POP POP SWAP4 SWAP3 POP POP POP JUMP JUMPDEST PUSH0 DUP2 SWAP1 POP SWAP2 SWAP1 POP JUMP JUMPDEST PUSH0 DUP2 SWAP1 POP SWAP2 SWAP1 POP JUMP JUMPDEST PUSH0 PUSH2 0x19D PUSH2 0x198 PUSH2 0x193 DUP5 PUSH2 0x171 JUMP JUMPDEST PUSH2 0x17A JUMP JUMPDEST PUSH2 0x171 JUMP JUMPDEST SWAP1 POP SWAP2 SWAP1 POP JUMP JUMPDEST PUSH0 DUP2 SWAP1 POP SWAP2 SWAP1 POP JUMP JUMPDEST PUSH2 0x1B6 DUP4 PUSH2 0x183 JUMP JUMPDEST PUSH2 0x1CA PUSH2 0x1C2 DUP3 PUSH2 0x1A4 JUMP JUMPDEST DUP5 DUP5 SLOAD PUSH2 0x120 JUMP JUMPDEST DUP3 SSTORE POP POP POP POP JUMP JUMPDEST PUSH0 PUSH0 SWAP1 POP SWAP1 JUMP JUMPDEST PUSH2 0x1E1 PUSH2 0x1D2 JUMP JUMPDEST PUSH2 0x1EC DUP2 DUP5 DUP5 PUSH2 0x1AD JUMP JUMPDEST POP POP POP JUMP JUMPDEST JUMPDEST DUP2 DUP2 LT ISZERO PUSH2 0x20F JUMPI PUSH2 0x204 PUSH0 DUP3 PUSH2 0x1D9 JUMP JUMPDEST PUSH1 0x1 DUP2 ADD SWAP1 POP PUSH2 0x1F2 JUMP JUMPDEST POP POP JUMP JUMPDEST PUSH1 0x1F DUP3 GT ISZERO PUSH2 0x254 JUMPI PUSH2 0x225 DUP2 PUSH2 0xF3 JUMP JUMPDEST PUSH2 0x22E DUP5 PUSH2 0x105 JUMP JUMPDEST DUP2 ADD PUSH1 0x20 DUP6 LT ISZERO PUSH2 0x23D JUMPI DUP2 SWAP1 POP JUMPDEST PUSH2 0x251 PUSH2 0x249 DUP6 PUSH2 0x105 JUMP JUMPDEST DUP4 ADD DUP3 PUSH2 0x1F1 JUMP JUMPDEST POP POP JUMPDEST POP POP POP JUMP JUMPDEST PUSH0 DUP3 DUP3 SHR SWAP1 POP SWAP3 SWAP2 POP POP JUMP JUMPDEST PUSH0 PUSH2 0x274 PUSH0 NOT DUP5 PUSH1 0x8 MUL PUSH2 0x259 JUMP JUMPDEST NOT DUP1 DUP4 AND SWAP2 POP POP SWAP3 SWAP2 POP POP JUMP JUMPDEST PUSH0 PUSH2 0x28C DUP4 DUP4 PUSH2 0x265 JUMP JUMPDEST SWAP2 POP DUP3 PUSH1 0x2 MUL DUP3 OR SWAP1 POP SWAP3 SWAP2 POP POP JUMP JUMPDEST PUSH2 0x2A5 DUP3 PUSH2 0x5F JUMP JUMPDEST PUSH8 0xFFFFFFFFFFFFFFFF DUP2 GT ISZERO PUSH2 0x2BE JUMPI PUSH2 0x2BD PUSH2 0x69 JUMP JUMPDEST JUMPDEST PUSH2 0x2C8 DUP3 SLOAD PUSH2 0xC3 JUMP JUMPDEST PUSH2 0x2D3 DUP3 DUP3 DUP6 PUSH2 0x213 JUMP JUMPDEST PUSH0 PUSH1 0x20 SWAP1 POP PUSH1 0x1F DUP4 GT PUSH1 0x1 DUP2 EQ PUSH2 0x304 JUMPI PUSH0 DUP5 ISZERO PUSH2 0x2F2 JUMPI DUP3 DUP8 ADD MLOAD SWAP1 POP JUMPDEST PUSH2 0x2FC DUP6 DUP3 PUSH2 0x281 JUMP JUMPDEST DUP7 SSTORE POP PUSH2 0x363 JUMP JUMPDEST PUSH1 0x1F NOT DUP5 AND PUSH2 0x312 DUP7 PUSH2 0xF3 JUMP JUMPDEST PUSH0 JUMPDEST DUP3 DUP2 LT ISZERO PUSH2 0x339 JUMPI DUP5 DUP10 ADD MLOAD DUP3 SSTORE PUSH1 0x1 DUP3 ADD SWAP2 POP PUSH1 0x20 DUP6 ADD SWAP5 POP PUSH1 0x20 DUP2 ADD SWAP1 POP PUSH2 0x314 JUMP JUMPDEST DUP7 DUP4 LT ISZERO PUSH2 0x356 JUMPI DUP5 DUP10 ADD MLOAD PUSH2 0x352 PUSH1 0x1F DUP10 AND DUP3 PUSH2 0x265 JUMP JUMPDEST DUP4 SSTORE POP JUMPDEST PUSH1 0x1 PUSH1 0x2 DUP9 MUL ADD DUP9 SSTORE POP POP POP JUMPDEST POP POP POP POP POP POP JUMP JUMPDEST PUSH2 0x7EC DUP1 PUSH2 0x378 PUSH0 CODECOPY PUSH0 RETURN INVALID PUSH1 0x80 PUSH1 0x40 MSTORE CALLVALUE DUP1 ISZERO PUSH2 0xF JUMPI PUSH0 PUSH0 REVERT JUMPDEST POP PUSH1 0x4 CALLDATASIZE LT PUSH2 0x55 JUMPI PUSH0 CALLDATALOAD PUSH1 0xE0 SHR DUP1 PUSH4 0xAC543DE EQ PUSH2 0x59 JUMPI DUP1 PUSH4 0x8A9424B7 EQ PUSH2 0x75 JUMPI DUP1 PUSH4 0xB438D018 EQ PUSH2 0xA5 JUMPI DUP1 PUSH4 0xC9116B69 EQ PUSH2 0xD5 JUMPI DUP1 PUSH4 0xD0F7DF40 EQ PUSH2 0xF3 JUMPI JUMPDEST PUSH0 PUSH0 REVERT JUMPDEST PUSH2 0x73 PUSH1 0x4 DUP1 CALLDATASIZE SUB DUP2 ADD SWAP1 PUSH2 0x6E SWAP2 SWAP1 PUSH2 0x2C2 JUMP JUMPDEST PUSH2 0x111 JUMP JUMPDEST STOP JUMPDEST PUSH2 0x8F PUSH1 0x4 DUP1 CALLDATASIZE SUB DUP2 ADD SWAP1 PUSH2 0x8A SWAP2 SWAP1 PUSH2 0x50B JUMP JUMPDEST PUSH2 0x128 JUMP JUMPDEST PUSH1 0x40 MLOAD PUSH2 0x9C SWAP2 SWAP1 PUSH2 0x5A2 JUMP JUMPDEST PUSH1 0x40 MLOAD DUP1 SWAP2 SUB SWAP1 RETURN JUMPDEST PUSH2 0xBF PUSH1 0x4 DUP1 CALLDATASIZE SUB DUP2 ADD SWAP1 PUSH2 0xBA SWAP2 SWAP1 PUSH2 0x2C2 JUMP JUMPDEST PUSH2 0x1CE JUMP JUMPDEST PUSH1 0x40 MLOAD PUSH2 0xCC SWAP2 SWAP1 PUSH2 0x5D5 JUMP JUMPDEST PUSH1 0x40 MLOAD DUP1 SWAP2 SUB SWAP1 RETURN JUMPDEST PUSH2 0xDD PUSH2 0x1E9 JUMP JUMPDEST PUSH1 0x40 MLOAD PUSH2 0xEA SWAP2 SWAP1 PUSH2 0x5A2 JUMP JUMPDEST PUSH1 0x40 MLOAD DUP1 SWAP2 SUB SWAP1 RETURN JUMPDEST PUSH2 0xFB PUSH2 0x1EF JUMP JUMPDEST PUSH1 0x40 MLOAD PUSH2 0x108 SWAP2 SWAP1 PUSH2 0x64E JUMP JUMPDEST PUSH1 0x40 MLOAD DUP1 SWAP2 SUB SWAP1 RETURN JUMPDEST DUP1 PUSH1 0x1 SLOAD PUSH2 0x11F SWAP2 SWAP1 PUSH2 0x69B JUMP JUMPDEST PUSH1 0x1 DUP2 SWAP1 SSTORE POP POP JUMP JUMPDEST PUSH0 PUSH0 DUP3 SWAP1 POP JUMPDEST DUP5 MLOAD DUP2 LT ISZERO PUSH2 0x1C0 JUMPI PUSH0 DUP6 DUP3 DUP2 MLOAD DUP2 LT PUSH2 0x14B JUMPI PUSH2 0x14A PUSH2 0x6DC JUMP JUMPDEST JUMPDEST PUSH1 0x20 MUL PUSH1 0x20 ADD ADD MLOAD SWAP1 POP DUP5 PUSH1 0x40 MLOAD PUSH1 0x20 ADD PUSH2 0x166 SWAP2 SWAP1 PUSH2 0x743 JUMP JUMPDEST PUSH1 0x40 MLOAD PUSH1 0x20 DUP2 DUP4 SUB SUB DUP2 MSTORE SWAP1 PUSH1 0x40 MSTORE DUP1 MLOAD SWAP1 PUSH1 0x20 ADD KECCAK256 DUP2 PUSH1 0x40 MLOAD PUSH1 0x20 ADD PUSH2 0x18D SWAP2 SWAP1 PUSH2 0x743 JUMP JUMPDEST PUSH1 0x40 MLOAD PUSH1 0x20 DUP2 DUP4 SUB SUB DUP2 MSTORE SWAP1 PUSH1 0x40 MSTORE DUP1 MLOAD SWAP1 PUSH1 0x20 ADD KECCAK256 SUB PUSH2 0x1B2 JUMPI DUP2 SWAP3 POP POP POP PUSH2 0x1C7 JUMP JUMPDEST POP DUP1 DUP1 PUSH1 0x1 ADD SWAP2 POP POP PUSH2 0x12E JUMP JUMPDEST POP PUSH2 0x270F SWAP1 POP JUMPDEST SWAP4 SWAP3 POP POP POP JUMP JUMPDEST PUSH0 PUSH1 0x5 DUP3 SUB PUSH2 0x1E0 JUMPI PUSH1 0x1 SWAP1 POP PUSH2 0x1E4 JUMP JUMPDEST PUSH0 SWAP1 POP JUMPDEST SWAP2 SWAP1 POP JUMP JUMPDEST PUSH1 0x1 SLOAD DUP2 JUMP JUMPDEST PUSH1 0x60 PUSH0 DUP1 SLOAD PUSH2 0x1FD SWAP1 PUSH2 0x786 JUMP JUMPDEST DUP1 PUSH1 0x1F ADD PUSH1 0x20 DUP1 SWAP2 DIV MUL PUSH1 0x20 ADD PUSH1 0x40 MLOAD SWAP1 DUP2 ADD PUSH1 0x40 MSTORE DUP1 SWAP3 SWAP2 SWAP1 DUP2 DUP2 MSTORE PUSH1 0x20 ADD DUP3 DUP1 SLOAD PUSH2 0x229 SWAP1 PUSH2 0x786 JUMP JUMPDEST DUP1 ISZERO PUSH2 0x274 JUMPI DUP1 PUSH1 0x1F LT PUSH2 0x24B JUMPI PUSH2 0x100 DUP1 DUP4 SLOAD DIV MUL DUP4 MSTORE SWAP2 PUSH1 0x20 ADD SWAP2 PUSH2 0x274 JUMP JUMPDEST DUP3 ADD SWAP2 SWAP1 PUSH0 MSTORE PUSH1 0x20 PUSH0 KECCAK256 SWAP1 JUMPDEST DUP2 SLOAD DUP2 MSTORE SWAP1 PUSH1 0x1 ADD SWAP1 PUSH1 0x20 ADD DUP1 DUP4 GT PUSH2 0x257 JUMPI DUP3 SWAP1 SUB PUSH1 0x1F AND DUP3 ADD SWAP2 JUMPDEST POP POP POP POP POP SWAP1 POP SWAP1 JUMP JUMPDEST PUSH0 PUSH1 0x40 MLOAD SWAP1 POP SWAP1 JUMP JUMPDEST PUSH0 PUSH0 REVERT JUMPDEST PUSH0 PUSH0 REVERT JUMPDEST PUSH0 DUP2 SWAP1 POP SWAP2 SWAP1 POP JUMP JUMPDEST PUSH2 0x2A1 DUP2 PUSH2 0x28F JUMP JUMPDEST DUP2 EQ PUSH2 0x2AB JUMPI PUSH0 PUSH0 REVERT JUMPDEST POP JUMP JUMPDEST PUSH0 DUP2 CALLDATALOAD SWAP1 POP PUSH2 0x2BC DUP2 PUSH2 0x298 JUMP JUMPDEST SWAP3 SWAP2 POP POP JUMP JUMPDEST PUSH0 PUSH1 0x20 DUP3 DUP5 SUB SLT ISZERO PUSH2 0x2D7 JUMPI PUSH2 0x2D6 PUSH2 0x287 JUMP JUMPDEST JUMPDEST PUSH0 PUSH2 0x2E4 DUP5 DUP3 DUP6 ADD PUSH2 0x2AE JUMP JUMPDEST SWAP2 POP POP SWAP3 SWAP2 POP POP JUMP JUMPDEST PUSH0 PUSH0 REVERT JUMPDEST PUSH0 PUSH1 0x1F NOT PUSH1 0x1F DUP4 ADD AND SWAP1 POP SWAP2 SWAP1 POP JUMP JUMPDEST PUSH32 0x4E487B7100000000000000000000000000000000000000000000000000000000 PUSH0 MSTORE PUSH1 0x41 PUSH1 0x4 MSTORE PUSH1 0x24 PUSH0 REVERT JUMPDEST PUSH2 0x337 DUP3 PUSH2 0x2F1 JUMP JUMPDEST DUP2 ADD DUP2 DUP2 LT PUSH8 0xFFFFFFFFFFFFFFFF DUP3 GT OR ISZERO PUSH2 0x356 JUMPI PUSH2 0x355 PUSH2 0x301 JUMP JUMPDEST JUMPDEST DUP1 PUSH1 0x40 MSTORE POP POP POP JUMP JUMPDEST PUSH0 PUSH2 0x368 PUSH2 0x27E JUMP JUMPDEST SWAP1 POP PUSH2 0x374 DUP3 DUP3 PUSH2 0x32E JUMP JUMPDEST SWAP2 SWAP1 POP JUMP JUMPDEST PUSH0 PUSH8 0xFFFFFFFFFFFFFFFF DUP3 GT ISZERO PUSH2 0x393 JUMPI PUSH2 0x392 PUSH2 0x301 JUMP JUMPDEST JUMPDEST PUSH1 0x20 DUP3 MUL SWAP1 POP PUSH1 0x20 DUP2 ADD SWAP1 POP SWAP2 SWAP1 POP JUMP JUMPDEST PUSH0 PUSH0 REVERT JUMPDEST PUSH0 PUSH0 REVERT JUMPDEST PUSH0 PUSH8 0xFFFFFFFFFFFFFFFF DUP3 GT ISZERO PUSH2 0x3C6 JUMPI PUSH2 0x3C5 PUSH2 0x301 JUMP JUMPDEST JUMPDEST PUSH2 0x3CF DUP3 PUSH2 0x2F1 JUMP JUMPDEST SWAP1 POP PUSH1 0x20 DUP2 ADD SWAP1 POP SWAP2 SWAP1 POP JUMP JUMPDEST DUP3 DUP2 DUP4 CALLDATACOPY PUSH0 DUP4 DUP4 ADD MSTORE POP POP POP JUMP JUMPDEST PUSH0 PUSH2 0x3FC PUSH2 0x3F7 DUP5 PUSH2 0x3AC JUMP JUMPDEST PUSH2 0x35F JUMP JUMPDEST SWAP1 POP DUP3 DUP2 MSTORE PUSH1 0x20 DUP2 ADD DUP5 DUP5 DUP5 ADD GT ISZERO PUSH2 0x418 JUMPI PUSH2 0x417 PUSH2 0x3A8 JUMP JUMPDEST JUMPDEST PUSH2 0x423 DUP5 DUP3 DUP6 PUSH2 0x3DC JUMP JUMPDEST POP SWAP4 SWAP3 POP POP POP JUMP JUMPDEST PUSH0 DUP3 PUSH1 0x1F DUP4 ADD SLT PUSH2 0x43F JUMPI PUSH2 0x43E PUSH2 0x2ED JUMP JUMPDEST JUMPDEST DUP2 CALLDATALOAD PUSH2 0x44F DUP5 DUP3 PUSH1 0x20 DUP7 ADD PUSH2 0x3EA JUMP JUMPDEST SWAP2 POP POP SWAP3 SWAP2 POP POP JUMP JUMPDEST PUSH0 PUSH2 0x46A PUSH2 0x465 DUP5 PUSH2 0x379 JUMP JUMPDEST PUSH2 0x35F JUMP JUMPDEST SWAP1 POP DUP1 DUP4 DUP3 MSTORE PUSH1 0x20 DUP3 ADD SWAP1 POP PUSH1 0x20 DUP5 MUL DUP4 ADD DUP6 DUP2 GT ISZERO PUSH2 0x48D JUMPI PUSH2 0x48C PUSH2 0x3A4 JUMP JUMPDEST JUMPDEST DUP4 JUMPDEST DUP2 DUP2 LT ISZERO PUSH2 0x4D4 JUMPI DUP1 CALLDATALOAD PUSH8 0xFFFFFFFFFFFFFFFF DUP2 GT ISZERO PUSH2 0x4B2 JUMPI PUSH2 0x4B1 PUSH2 0x2ED JUMP JUMPDEST JUMPDEST DUP1 DUP7 ADD PUSH2 0x4BF DUP10 DUP3 PUSH2 0x42B JUMP JUMPDEST DUP6 MSTORE PUSH1 0x20 DUP6 ADD SWAP5 POP POP POP PUSH1 0x20 DUP2 ADD SWAP1 POP PUSH2 0x48F JUMP JUMPDEST POP POP POP SWAP4 SWAP3 POP POP POP JUMP JUMPDEST PUSH0 DUP3 PUSH1 0x1F DUP4 ADD SLT PUSH2 0x4F2 JUMPI PUSH2 0x4F1 PUSH2 0x2ED JUMP JUMPDEST JUMPDEST DUP2 CALLDATALOAD PUSH2 0x502 DUP5 DUP3 PUSH1 0x20 DUP7 ADD PUSH2 0x458 JUMP JUMPDEST SWAP2 POP POP SWAP3 SWAP2 POP POP JUMP JUMPDEST PUSH0 PUSH0 PUSH0 PUSH1 0x60 DUP5 DUP7 SUB SLT ISZERO PUSH2 0x522 JUMPI PUSH2 0x521 PUSH2 0x287 JUMP JUMPDEST JUMPDEST PUSH0 DUP5 ADD CALLDATALOAD PUSH8 0xFFFFFFFFFFFFFFFF DUP2 GT ISZERO PUSH2 0x53F JUMPI PUSH2 0x53E PUSH2 0x28B JUMP JUMPDEST JUMPDEST PUSH2 0x54B DUP7 DUP3 DUP8 ADD PUSH2 0x4DE JUMP JUMPDEST SWAP4 POP POP PUSH1 0x20 DUP5 ADD CALLDATALOAD PUSH8 0xFFFFFFFFFFFFFFFF DUP2 GT ISZERO PUSH2 0x56C JUMPI PUSH2 0x56B PUSH2 0x28B JUMP JUMPDEST JUMPDEST PUSH2 0x578 DUP7 DUP3 DUP8 ADD PUSH2 0x42B JUMP JUMPDEST SWAP3 POP POP PUSH1 0x40 PUSH2 0x589 DUP7 DUP3 DUP8 ADD PUSH2 0x2AE JUMP JUMPDEST SWAP2 POP POP SWAP3 POP SWAP3 POP SWAP3 JUMP JUMPDEST PUSH2 0x59C DUP2 PUSH2 0x28F JUMP JUMPDEST DUP3 MSTORE POP POP JUMP JUMPDEST PUSH0 PUSH1 0x20 DUP3 ADD SWAP1 POP PUSH2 0x5B5 PUSH0 DUP4 ADD DUP5 PUSH2 0x593 JUMP JUMPDEST SWAP3 SWAP2 POP POP JUMP JUMPDEST PUSH0 DUP2 ISZERO ISZERO SWAP1 POP SWAP2 SWAP1 POP JUMP JUMPDEST PUSH2 0x5CF DUP2 PUSH2 0x5BB JUMP JUMPDEST DUP3 MSTORE POP POP JUMP JUMPDEST PUSH0 PUSH1 0x20 DUP3 ADD SWAP1 POP PUSH2 0x5E8 PUSH0 DUP4 ADD DUP5 PUSH2 0x5C6 JUMP JUMPDEST SWAP3 SWAP2 POP POP JUMP JUMPDEST PUSH0 DUP2 MLOAD SWAP1 POP SWAP2 SWAP1 POP JUMP JUMPDEST PUSH0 DUP3 DUP3 MSTORE PUSH1 0x20 DUP3 ADD SWAP1 POP SWAP3 SWAP2 POP POP JUMP JUMPDEST DUP3 DUP2 DUP4 MCOPY PUSH0 DUP4 DUP4 ADD MSTORE POP POP POP JUMP JUMPDEST PUSH0 PUSH2 0x620 DUP3 PUSH2 0x5EE JUMP JUMPDEST PUSH2 0x62A DUP2 DUP6 PUSH2 0x5F8 JUMP JUMPDEST SWAP4 POP PUSH2 0x63A DUP2 DUP6 PUSH1 0x20 DUP7 ADD PUSH2 0x608 JUMP JUMPDEST PUSH2 0x643 DUP2 PUSH2 0x2F1 JUMP JUMPDEST DUP5 ADD SWAP2 POP POP SWAP3 SWAP2 POP POP JUMP JUMPDEST PUSH0 PUSH1 0x20 DUP3 ADD SWAP1 POP DUP2 DUP2 SUB PUSH0 DUP4 ADD MSTORE PUSH2 0x666 DUP2 DUP5 PUSH2 0x616 JUMP JUMPDEST SWAP1 POP SWAP3 SWAP2 POP POP JUMP JUMPDEST PUSH32 0x4E487B7100000000000000000000000000000000000000000000000000000000 PUSH0 MSTORE PUSH1 0x11 PUSH1 0x4 MSTORE PUSH1 0x24 PUSH0 REVERT JUMPDEST PUSH0 PUSH2 0x6A5 DUP3 PUSH2 0x28F JUMP JUMPDEST SWAP2 POP PUSH2 0x6B0 DUP4 PUSH2 0x28F JUMP JUMPDEST SWAP3 POP DUP3 DUP3 MUL PUSH2 0x6BE DUP2 PUSH2 0x28F JUMP JUMPDEST SWAP2 POP DUP3 DUP3 DIV DUP5 EQ DUP4 ISZERO OR PUSH2 0x6D5 JUMPI PUSH2 0x6D4 PUSH2 0x66E JUMP JUMPDEST JUMPDEST POP SWAP3 SWAP2 POP POP JUMP JUMPDEST PUSH32 0x4E487B7100000000000000000000000000000000000000000000000000000000 PUSH0 MSTORE PUSH1 0x32 PUSH1 0x4 MSTORE PUSH1 0x24 PUSH0 REVERT JUMPDEST PUSH0 DUP2 SWAP1 POP SWAP3 SWAP2 POP POP JUMP JUMPDEST PUSH0 PUSH2 0x71D DUP3 PUSH2 0x5EE JUMP JUMPDEST PUSH2 0x727 DUP2 DUP6 PUSH2 0x709 JUMP JUMPDEST SWAP4 POP PUSH2 0x737 DUP2 DUP6 PUSH1 0x20 DUP7 ADD PUSH2 0x608 JUMP JUMPDEST DUP1 DUP5 ADD SWAP2 POP POP SWAP3 SWAP2 POP POP JUMP JUMPDEST PUSH0 PUSH2 0x74E DUP3 DUP5 PUSH2 0x713 JUMP JUMPDEST SWAP2 POP DUP2 SWAP1 POP SWAP3 SWAP2 POP POP JUMP JUMPDEST PUSH32 0x4E487B7100000000000000000000000000000000000000000000000000000000 PUSH0 MSTORE PUSH1 0x22 PUSH1 0x4 MSTORE PUSH1 0x24 PUSH0 REVERT JUMPDEST PUSH0 PUSH1 0x2 DUP3 DIV SWAP1 POP PUSH1 0x1 DUP3 AND DUP1 PUSH2 0x79D JUMPI PUSH1 0x7F DUP3 AND SWAP2 POP JUMPDEST PUSH1 0x20 DUP3 LT DUP2 SUB PUSH2 0x7B0 JUMPI PUSH2 0x7AF PUSH2 0x759 JUMP JUMPDEST JUMPDEST POP SWAP2 SWAP1 POP JUMP INVALID LOG2 PUSH5 0x6970667358 0x22 SLT KECCAK256 0xC8 CHAINID 0xA9 0x26 ADD DUP8 0xC2 0xC4 0x26 MUL DUP7 0xD7 CALL GASPRICE 0xD7 STOP SWAP6 0xCB PUSH13 0xC72E1BB67610142EC2E57A229B PUSH5 0x736F6C6343 STOP ADDMOD 0x1E STOP CALLER "
				},
				"gasEstimates": {
					"creation": {
						"codeDepositCost": "405600",
						"executionCost": "infinite",
						"totalCost": "infinite"
					},
					"external": {
						"findCoinIndex(string[],string,uint256)": "infinite",
						"getMyCoinName()": "infinite",
						"guessNumber(uint256)": "655",
						"multiplyBalance(uint256)": "infinite",
						"myBalance()": "2469"
					}
				},
				"methodIdentifiers": {
					"findCoinIndex(string[],string,uint256)": "8a9424b7",
					"getMyCoinName()": "d0f7df40",
					"guessNumber(uint256)": "b438d018",
					"multiplyBalance(uint256)": "0ac543de",
					"myBalance()": "c9116b69"
				}
			},
			"storageLayout": {
				"storage": [
					{
						"astId": 4,
						"contract": "contracts/BasicFunctions.sol:BasicFunctions",
						"label": "coinName",
						"offset": 0,
						"slot": "0",
						"type": "t_string_storage"
					},
					{
						"astId": 7,
						"contract": "contracts/BasicFunctions.sol:BasicFunctions",
						"label": "myBalance",
						"offset": 0,
						"slot": "1",
						"type": "t_uint256"
					},
					{
						"astId": 19,
						"contract": "contracts/BasicFunctions.sol:BasicFunctions",
						"label": "myCoins",
						"offset": 0,
						"slot": "2",
						"type": "t_mapping(t_address,t_struct(Coin)14_storage)"
					}
				],
				"types": {
					"t_address": {
						"encoding": "inplace",
						"label": "address",
						"numberOfBytes": "20"
					},
					"t_mapping(t_address,t_struct(Coin)14_storage)": {
						"encoding": "mapping",
						"key": "t_address",
						"label": "mapping(address => struct BasicFunctions.Coin)",
						"numberOfBytes": "32",
						"value": "t_struct(Coin)14_storage"
					},
					"t_string_storage": {
						"encoding": "bytes",
						"label": "string",
						"numberOfBytes": "32"
					},
					"t_struct(Coin)14_storage": {
						"encoding": "inplace",
						"label": "struct BasicFunctions.Coin",
						"members": [
							{
								"astId": 9,
								"contract": "contracts/BasicFunctions.sol:BasicFunctions",
								"label": "name",
								"offset": 0,
								"slot": "0",
								"type": "t_string_storage"
							},
							{
								"astId": 11,
								"contract": "contracts/BasicFunctions.sol:BasicFunctions",
								"label": "symbol",
								"offset": 0,
								"slot": "1",
								"type": "t_string_storage"
							},
							{
								"astId": 13,
								"contract": "contracts/BasicFunctions.sol:BasicFunctions",
								"label": "supply",
								"offset": 0,
								"slot": "2",
								"type": "t_uint256"
							}
						],
						"numberOfBytes": "96"
					},
					"t_uint256": {
						"encoding": "inplace",
						"label": "uint256",
						"numberOfBytes": "32"
					}
				}
			},
			"userdoc": {
				"kind": "user",
				"methods": {},
				"version": 1
			}
		}
	}
}