{
	"data": {
		"bytecode": {
			"linkReferences": {},
			"object": "60806040526040518060400160405280600981526020017f4570696320436f696e00000000000000000000000000000000000000000000008152505f9081610047919061029c565b506103e8600155348015610059575f5ffd5b5061036b565b5f81519050919050565b7f4e487b71000000000000000000000000000000000000000000000000000000005f52604160045260245ffd5b7f4e487b71000000000000000000000000000000000000000000000000000000005f52602260045260245ffd5b5f60028204905060018216806100da57607f821691505b6020821081036100ed576100ec610096565b5b50919050565b5f819050815f5260205f209050919050565b5f6020601f8301049050919050565b5f82821b905092915050565b5f6008830261014f7fffffffffffffffffffffffffffffffffffffffffffffffffffffffffffffffff82610114565b6101598683610114565b95508019841693508086168417925050509392505050565b5f819050919050565b5f819050919050565b5f61019d61019861019384610171565b61017a565b610171565b9050919050565b5f819050919050565b6101b683610183565b6101ca6101c2826101a4565b848454610120565b825550505050565b5f5f905090565b6101e16101d2565b6101ec8184846101ad565b505050565b5b8181101561020f576102045f826101d9565b6001810190506101f2565b5050565b601f82111561025457610225816100f3565b61022e84610105565b8101602085101561023d578190505b61025161024985610105565b8301826101f1565b50505b505050565b5f82821c905092915050565b5f6102745f1984600802610259565b1980831691505092915050565b5f61028c8383610265565b9150826002028217905092915050565b6102a58261005f565b67ffffffffffffffff8111156102be576102bd610069565b5b6102c882546100c3565b6102d3828285610213565b5f60209050601f831160018114610304575f84156102f2578287015190505b6102fc8582610281565b865550610363565b601f198416610312866100f3565b5f5b8281101561033957848901518255600182019150602085019450602081019050610314565b868310156103565784890151610352601f891682610265565b8355505b6001600288020188555050505b505050505050565b610e40806103785f395ff3fe608060405234801561000f575f5ffd5b506004361061007b575f3560e01c8063b438d01811610059578063b438d018146100e9578063c55636b314610119578063c9116b6914610135578063d0f7df40146101535761007b565b80630ac543de1461007f5780634593e2231461009b5780638a9424b7146100b9575b5f5ffd5b61009960048036038101906100949190610554565b610171565b005b6100a3610188565b6040516100b09190610652565b60405180910390f35b6100d360048036038101906100ce9190610880565b610306565b6040516100e09190610917565b60405180910390f35b61010360048036038101906100fe9190610554565b6103ac565b604051610110919061094a565b60405180910390f35b610133600480360381019061012e9190610963565b6103c7565b005b61013d61045b565b60405161014a9190610917565b60405180910390f35b61015b610461565b6040516101689190610a33565b60405180910390f35b8060015461017f9190610a80565b60018190555050565b6101906104f0565b60025f3373ffffffffffffffffffffffffffffffffffffffff1673ffffffffffffffffffffffffffffffffffffffff1681526020019081526020015f206040518060600160405290815f820180546101e790610aee565b80601f016020809104026020016040519081016040528092919081815260200182805461021390610aee565b801561025e5780601f106102355761010080835404028352916020019161025e565b820191905f5260205f20905b81548152906001019060200180831161024157829003601f168201915b5050505050815260200160018201805461027790610aee565b80601f01602080910402602001604051908101604052809291908181526020018280546102a390610aee565b80156102ee5780601f106102c5576101008083540402835291602001916102ee565b820191905f5260205f20905b8154815290600101906020018083116102d157829003601f168201915b50505050508152602001600282015481525050905090565b5f5f8290505b845181101561039e575f85828151811061032957610328610b1e565b5b60200260200101519050846040516020016103449190610b85565b604051602081830303815290604052805190602001208160405160200161036b9190610b85565b60405160208183030381529060405280519060200120036103905781925050506103a5565b50808060010191505061030c565b5061270f90505b9392505050565b5f600582036103be57600190506103c2565b5f90505b919050565b60405180606001604052808481526020018381526020018281525060025f3373ffffffffffffffffffffffffffffffffffffffff1673ffffffffffffffffffffffffffffffffffffffff1681526020019081526020015f205f820151815f0190816104329190610d3b565b5060208201518160010190816104489190610d3b565b5060408201518160020155905050505050565b60015481565b60605f805461046f90610aee565b80601f016020809104026020016040519081016040528092919081815260200182805461049b90610aee565b80156104e65780601f106104bd576101008083540402835291602001916104e6565b820191905f5260205f20905b8154815290600101906020018083116104c957829003601f168201915b5050505050905090565b604051806060016040528060608152602001606081526020015f81525090565b5f604051905090565b5f5ffd5b5f5ffd5b5f819050919050565b61053381610521565b811461053d575f5ffd5b50565b5f8135905061054e8161052a565b92915050565b5f6020828403121561056957610568610519565b5b5f61057684828501610540565b91505092915050565b5f81519050919050565b5f82825260208201905092915050565b8281835e5f83830152505050565b5f601f19601f8301169050919050565b5f6105c18261057f565b6105cb8185610589565b93506105db818560208601610599565b6105e4816105a7565b840191505092915050565b6105f881610521565b82525050565b5f606083015f8301518482035f86015261061882826105b7565b9150506020830151848203602086015261063282826105b7565b915050604083015161064760408601826105ef565b508091505092915050565b5f6020820190508181035f83015261066a81846105fe565b905092915050565b5f5ffd5b7f4e487b71000000000000000000000000000000000000000000000000000000005f52604160045260245ffd5b6106ac826105a7565b810181811067ffffffffffffffff821117156106cb576106ca610676565b5b80604052505050565b5f6106dd610510565b90506106e982826106a3565b919050565b5f67ffffffffffffffff82111561070857610707610676565b5b602082029050602081019050919050565b5f5ffd5b5f5ffd5b5f67ffffffffffffffff82111561073b5761073a610676565b5b610744826105a7565b9050602081019050919050565b828183375f83830152505050565b5f61077161076c84610721565b6106d4565b90508281526020810184848401111561078d5761078c61071d565b5b610798848285610751565b509392505050565b5f82601f8301126107b4576107b3610672565b5b81356107c484826020860161075f565b91505092915050565b5f6107df6107da846106ee565b6106d4565b9050808382526020820190506020840283018581111561080257610801610719565b5b835b8181101561084957803567ffffffffffffffff81111561082757610826610672565b5b80860161083489826107a0565b85526020850194505050602081019050610804565b5050509392505050565b5f82601f83011261086757610866610672565b5b81356108778482602086016107cd565b91505092915050565b5f5f5f6060848603121561089757610896610519565b5b5f84013567ffffffffffffffff8111156108b4576108b361051d565b5b6108c086828701610853565b935050602084013567ffffffffffffffff8111156108e1576108e061051d565b5b6108ed868287016107a0565b92505060406108fe86828701610540565b9150509250925092565b61091181610521565b82525050565b5f60208201905061092a5f830184610908565b92915050565b5f8115159050919050565b61094481610930565b82525050565b5f60208201905061095d5f83018461093b565b92915050565b5f5f5f6060848603121561097a57610979610519565b5b5f84013567ffffffffffffffff8111156109975761099661051d565b5b6109a3868287016107a0565b935050602084013567ffffffffffffffff8111156109c4576109c361051d565b5b6109d0868287016107a0565b92505060406109e186828701610540565b9150509250925092565b5f82825260208201905092915050565b5f610a058261057f565b610a0f81856109eb565b9350610a1f818560208601610599565b610a28816105a7565b840191505092915050565b5f6020820190508181035f830152610a4b81846109fb565b905092915050565b7f4e487b71000000000000000000000000000000000000000000000000000000005f52601160045260245ffd5b5f610a8a82610521565b9150610a9583610521565b9250828202610aa381610521565b91508282048414831517610aba57610ab9610a53565b5b5092915050565b7f4e487b71000000000000000000000000000000000000000000000000000000005f52602260045260245ffd5b5f6002820490506001821680610b0557607f821691505b602082108103610b1857610b17610ac1565b5b50919050565b7f4e487b71000000000000000000000000000000000000000000000000000000005f52603260045260245ffd5b5f81905092915050565b5f610b5f8261057f565b610b698185610b4b565b9350610b79818560208601610599565b80840191505092915050565b5f610b908284610b55565b915081905092915050565b5f819050815f5260205f209050919050565b5f6020601f8301049050919050565b5f82821b905092915050565b5f60088302610bf77fffffffffffffffffffffffffffffffffffffffffffffffffffffffffffffffff82610bbc565b610c018683610bbc565b95508019841693508086168417925050509392505050565b5f819050919050565b5f610c3c610c37610c3284610521565b610c19565b610521565b9050919050565b5f819050919050565b610c5583610c22565b610c69610c6182610c43565b848454610bc8565b825550505050565b5f5f905090565b610c80610c71565b610c8b818484610c4c565b505050565b5b81811015610cae57610ca35f82610c78565b600181019050610c91565b5050565b601f821115610cf357610cc481610b9b565b610ccd84610bad565b81016020851015610cdc578190505b610cf0610ce885610bad565b830182610c90565b50505b505050565b5f82821c905092915050565b5f610d135f1984600802610cf8565b1980831691505092915050565b5f610d2b8383610d04565b9150826002028217905092915050565b610d448261057f565b67ffffffffffffffff811115610d5d57610d5c610676565b5b610d678254610aee565b610d72828285610cb2565b5f60209050601f831160018114610da3575f8415610d91578287015190505b610d9b8582610d20565b865550610e02565b601f198416610db186610b9b565b5f5b82811015610dd857848901518255600182019150602085019450602081019050610db3565b86831015610df55784890151610df1601f891682610d04565b8355505b6001600288020188555050505b50505050505056fea26469706673582212206bbebe98ae2de03ca2868f74a6b510cc4e153f42d976f1b1da144a5b92541e2964736f6c634300081e0033",
			"opcodes": "PUSH1 0x80 PUSH1 0x40 MSTORE PUSH1 0x40 MLOAD DUP1 PUSH1 0x40 ADD PUSH1 0x40 MSTORE DUP1 PUSH1 0x9 DUP2 MSTORE PUSH1 0x20 ADD PUSH32 0x4570696320436F696E0000000000000000000000000000000000000000000000 DUP2 MSTORE POP PUSH0 SWAP1 DUP2 PUSH2 0x47 SWAP2 SWAP1 PUSH2 0x29C JUMP JUMPDEST POP PUSH2 0x3E8 PUSH1 0x1 SSTORE CALLVALUE DUP1 ISZERO PUSH2 0x59 JUMPI PUSH0 PUSH0 REVERT JUMPDEST POP PUSH2 0x36B JUMP JUMPDEST PUSH0 DUP2 MLOAD SWAP1 POP SWAP2 SWAP1 POP JUMP JUMPDEST PUSH32 0x4E487B7100000000000000000000000000000000000000000000000000000000 PUSH0 MSTORE PUSH1 0x41 PUSH1 0x4 MSTORE PUSH1 0x24 PUSH0 REVERT JUMPDEST PUSH32 0x4E487B7100000000000000000000000000000000000000000000000000000000 PUSH0 MSTORE PUSH1 0x22 PUSH1 0x4 MSTORE PUSH1 0x24 PUSH0 REVERT JUMPDEST PUSH0 PUSH1 0x2 DUP3 DIV SWAP1 POP PUSH1 0x1 DUP3 AND DUP1 PUSH2 0xDA JUMPI PUSH1 0x7F DUP3 AND SWAP2 POP JUMPDEST PUSH1 0x20 DUP3 LT DUP2 SUB PUSH2 0xED JUMPI PUSH2 0xEC PUSH2 0x96 JUMP JUMPDEST JUMPDEST POP SWAP2 SWAP1 POP JUMP JUMPDEST PUSH0 DUP2 SWAP1 POP DUP2 PUSH0 MSTORE PUSH1 0x20 PUSH0 KECCAK256 SWAP1 POP SWAP2 SWAP1 POP JUMP JUMPDEST PUSH0 PUSH1 0x20 PUSH1 0x1F DUP4 ADD DIV SWAP1 POP SWAP2 SWAP1 POP JUMP JUMPDEST PUSH0 DUP3 DUP3 SHL SWAP1 POP SWAP3 SWAP2 POP POP JUMP JUMPDEST PUSH0 PUSH1 0x8 DUP4 MUL PUSH2 0x14F PUSH32 0xFFFFFFFFFFFFFFFFFFFFFFFFFFFFFFFFFFFFFFFFFFFFFFFFFFFFFFFFFFFFFFFF DUP3 PUSH2 0x114 JUMP JUMPDEST PUSH2 0x159 DUP7 DUP4 PUSH2 0x114 JUMP JUMPDEST SWAP6 POP DUP1 NOT DUP5 AND SWAP4 POP DUP1 DUP7 AND DUP5 OR SWAP3 POP POP POP SWAP4 SWAP3 POP POP POP JUMP JUMPDEST PUSH0 DUP2 SWAP1 POP SWAP2 SWAP1 POP JUMP JUMPDEST PUSH0 DUP2 SWAP1 POP SWAP2 SWAP1 POP JUMP JUMPDEST PUSH0 PUSH2 0x19D PUSH2 0x198 PUSH2 0x193 DUP5 PUSH2 0x171 JUMP JUMPDEST PUSH2 0x17A JUMP JUMPDEST PUSH2 0x171 JUMP JUMPDEST SWAP1 POP SWAP2 SWAP1 POP JUMP JUMPDEST PUSH0 DUP2 SWAP1 POP SWAP2 SWAP1 POP JUMP JUMPDEST PUSH2 0x1B6 DUP4 PUSH2 0x183 JUMP JUMPDEST PUSH2 0x1CA PUSH2 0x1C2 DUP3 PUSH2 0x1A4 JUMP JUMPDEST DUP5 DUP5 SLOAD PUSH2 0x120 JUMP JUMPDEST DUP3 SSTORE POP POP POP POP JUMP JUMPDEST PUSH0 PUSH0 SWAP1 POP SWAP1 JUMP JUMPDEST PUSH2 0x1E1 PUSH2 0x1D2 JUMP JUMPDEST PUSH2 0x1EC DUP2 DUP5 DUP5 PUSH2 0x1AD JUMP JUMPDEST POP POP POP JUMP JUMPDEST JUMPDEST DUP2 DUP2 LT ISZERO PUSH2 0x20F JUMPI PUSH2 0x204 PUSH0 DUP3 PUSH2 0x1D9 JUMP JUMPDEST PUSH1 0x1 DUP2 ADD SWAP1 POP PUSH2 0x1F2 JUMP JUMPDEST POP POP JUMP JUMPDEST PUSH1 0x1F DUP3 GT ISZERO PUSH2 0x254 JUMPI PUSH2 0x225 DUP2 PUSH2 0xF3 JUMP JUMPDEST PUSH2 0x22E DUP5 PUSH2 0x105 JUMP JUMPDEST DUP2 ADD PUSH1 0x20 DUP6 LT ISZERO PUSH2 0x23D JUMPI DUP2 SWAP1 POP JUMPDEST PUSH2 0x251 PUSH2 0x249 DUP6 PUSH2 0x105 JUMP JUMPDEST DUP4 ADD DUP3 PUSH2 0x1F1 JUMP JUMPDEST POP POP JUMPDEST POP POP POP JUMP JUMPDEST PUSH0 DUP3 DUP3 SHR SWAP1 POP SWAP3 SWAP2 POP POP JUMP JUMPDEST PUSH0 PUSH2 0x274 PUSH0 NOT DUP5 PUSH1 0x8 MUL PUSH2 0x259 JUMP JUMPDEST NOT DUP1 DUP4 AND SWAP2 POP POP SWAP3 SWAP2 POP POP JUMP JUMPDEST PUSH0 PUSH2 0x28C DUP4 DUP4 PUSH2 0x265 JUMP JUMPDEST SWAP2 POP DUP3 PUSH1 0x2 MUL DUP3 OR SWAP1 POP SWAP3 SWAP2 POP POP JUMP JUMPDEST PUSH2 0x2A5 DUP3 PUSH2 0x5F JUMP JUMPDEST PUSH8 0xFFFFFFFFFFFFFFFF DUP2 GT ISZERO PUSH2 0x2BE JUMPI PUSH2 0x2BD PUSH2 0x69 JUMP JUMPDEST JUMPDEST PUSH2 0x2C8 DUP3 SLOAD PUSH2 0xC3 JUMP JUMPDEST PUSH2 0x2D3 DUP3 DUP3 DUP6 PUSH2 0x213 JUMP JUMPDEST PUSH0 PUSH1 0x20 SWAP1 POP PUSH1 0x1F DUP4 GT PUSH1 0x1 DUP2 EQ PUSH2 0x304 JUMPI PUSH0 DUP5 ISZERO PUSH2 0x2F2 JUMPI DUP3 DUP8 ADD MLOAD SWAP1 POP JUMPDEST PUSH2 0x2FC DUP6 DUP3 PUSH2 0x281 JUMP JUMPDEST DUP7 SSTORE POP PUSH2 0x363 JUMP JUMPDEST PUSH1 0x1F NOT DUP5 AND PUSH2 0x312 DUP7 PUSH2 0xF3 JUMP JUMPDEST PUSH0 JUMPDEST DUP3 DUP2 LT ISZERO PUSH2 0x339 JUMPI DUP5 DUP10 ADD MLOAD DUP3 SSTORE PUSH1 0x1 DUP3 ADD SWAP2 POP PUSH1 0x20 DUP6 ADD SWAP5 POP PUSH1 0x20 DUP2 ADD SWAP1 POP PUSH2 0x314 JUMP JUMPDEST DUP7 DUP4 LT ISZERO PUSH2 0x356 JUMPI DUP5 DUP10 ADD MLOAD PUSH2 0x352 PUSH1 0x1F DUP10 AND DUP3 PUSH2 0x265 JUMP JUMPDEST DUP4 SSTORE POP JUMPDEST PUSH1 0x1 PUSH1 0x2 DUP9 MUL ADD DUP9 SSTORE POP POP POP JUMPDEST POP POP POP POP POP POP JUMP JUMPDEST PUSH2 0xE40 DUP1 PUSH2 0x378 PUSH0 CODECOPY PUSH0 RETURN INVALID PUSH1 0x80 PUSH1 0x40 MSTORE CALLVALUE DUP1 ISZERO PUSH2 0xF JUMPI PUSH0 PUSH0 REVERT JUMPDEST POP PUSH1 0x4 CALLDATASIZE LT PUSH2 0x7B JUMPI PUSH0 CALLDATALOAD PUSH1 0xE0 SHR DUP1 PUSH4 0xB438D018 GT PUSH2 0x59 JUMPI DUP1 PUSH4 0xB438D018 EQ PUSH2 0xE9 JUMPI DUP1 PUSH4 0xC55636B3 EQ PUSH2 0x119 JUMPI DUP1 PUSH4 0xC9116B69 EQ PUSH2 0x135 JUMPI DUP1 PUSH4 0xD0F7DF40 EQ PUSH2 0x153 JUMPI PUSH2 0x7B JUMP JUMPDEST DUP1 PUSH4 0xAC543DE EQ PUSH2 0x7F JUMPI DUP1 PUSH4 0x4593E223 EQ PUSH2 0x9B JUMPI DUP1 PUSH4 0x8A9424B7 EQ PUSH2 0xB9 JUMPI JUMPDEST PUSH0 PUSH0 REVERT JUMPDEST PUSH2 0x99 PUSH1 0x4 DUP1 CALLDATASIZE SUB DUP2 ADD SWAP1 PUSH2 0x94 SWAP2 SWAP1 PUSH2 0x554 JUMP JUMPDEST PUSH2 0x171 JUMP JUMPDEST STOP JUMPDEST PUSH2 0xA3 PUSH2 0x188 JUMP JUMPDEST PUSH1 0x40 MLOAD PUSH2 0xB0 SWAP2 SWAP1 PUSH2 0x652 JUMP JUMPDEST PUSH1 0x40 MLOAD DUP1 SWAP2 SUB SWAP1 RETURN JUMPDEST PUSH2 0xD3 PUSH1 0x4 DUP1 CALLDATASIZE SUB DUP2 ADD SWAP1 PUSH2 0xCE SWAP2 SWAP1 PUSH2 0x880 JUMP JUMPDEST PUSH2 0x306 JUMP JUMPDEST PUSH1 0x40 MLOAD PUSH2 0xE0 SWAP2 SWAP1 PUSH2 0x917 JUMP JUMPDEST PUSH1 0x40 MLOAD DUP1 SWAP2 SUB SWAP1 RETURN JUMPDEST PUSH2 0x103 PUSH1 0x4 DUP1 CALLDATASIZE SUB DUP2 ADD SWAP1 PUSH2 0xFE SWAP2 SWAP1 PUSH2 0x554 JUMP JUMPDEST PUSH2 0x3AC JUMP JUMPDEST PUSH1 0x40 MLOAD PUSH2 0x110 SWAP2 SWAP1 PUSH2 0x94A JUMP JUMPDEST PUSH1 0x40 MLOAD DUP1 SWAP2 SUB SWAP1 RETURN JUMPDEST PUSH2 0x133 PUSH1 0x4 DUP1 CALLDATASIZE SUB DUP2 ADD SWAP1 PUSH2 0x12E SWAP2 SWAP1 PUSH2 0x963 JUMP JUMPDEST PUSH2 0x3C7 JUMP JUMPDEST STOP JUMPDEST PUSH2 0x13D PUSH2 0x45B JUMP JUMPDEST PUSH1 0x40 MLOAD PUSH2 0x14A SWAP2 SWAP1 PUSH2 0x917 JUMP JUMPDEST PUSH1 0x40 MLOAD DUP1 SWAP2 SUB SWAP1 RETURN JUMPDEST PUSH2 0x15B PUSH2 0x461 JUMP JUMPDEST PUSH1 0x40 MLOAD PUSH2 0x168 SWAP2 SWAP1 PUSH2 0xA33 JUMP JUMPDEST PUSH1 0x40 MLOAD DUP1 SWAP2 SUB SWAP1 RETURN JUMPDEST DUP1 PUSH1 0x1 SLOAD PUSH2 0x17F SWAP2 SWAP1 PUSH2 0xA80 JUMP JUMPDEST PUSH1 0x1 DUP2 SWAP1 SSTORE POP POP JUMP JUMPDEST PUSH2 0x190 PUSH2 0x4F0 JUMP JUMPDEST PUSH1 0x2 PUSH0 CALLER PUSH20 0xFFFFFFFFFFFFFFFFFFFFFFFFFFFFFFFFFFFFFFFF AND PUSH20 0xFFFFFFFFFFFFFFFFFFFFFFFFFFFFFFFFFFFFFFFF AND DUP2 MSTORE PUSH1 0x20 ADD SWAP1 DUP2 MSTORE PUSH1 0x20 ADD PUSH0 KECCAK256 PUSH1 0x40 MLOAD DUP1 PUSH1 0x60 ADD PUSH1 0x40 MSTORE SWAP1 DUP2 PUSH0 DUP3 ADD DUP1 SLOAD PUSH2 0x1E7 SWAP1 PUSH2 0xAEE JUMP JUMPDEST DUP1 PUSH1 0x1F ADD PUSH1 0x20 DUP1 SWAP2 DIV MUL PUSH1 0x20 ADD PUSH1 0x40 MLOAD SWAP1 DUP2 ADD PUSH1 0x40 MSTORE DUP1 SWAP3 SWAP2 SWAP1 DUP2 DUP2 MSTORE PUSH1 0x20 ADD DUP3 DUP1 SLOAD PUSH2 0x213 SWAP1 PUSH2 0xAEE JUMP JUMPDEST DUP1 ISZERO PUSH2 0x25E JUMPI DUP1 PUSH1 0x1F LT PUSH2 0x235 JUMPI PUSH2 0x100 DUP1 DUP4 SLOAD DIV MUL DUP4 MSTORE SWAP2 PUSH1 0x20 ADD SWAP2 PUSH2 0x25E JUMP JUMPDEST DUP3 ADD SWAP2 SWAP1 PUSH0 MSTORE PUSH1 0x20 PUSH0 KECCAK256 SWAP1 JUMPDEST DUP2 SLOAD DUP2 MSTORE SWAP1 PUSH1 0x1 ADD SWAP1 PUSH1 0x20 ADD DUP1 DUP4 GT PUSH2 0x241 JUMPI DUP3 SWAP1 SUB PUSH1 0x1F AND DUP3 ADD SWAP2 JUMPDEST POP POP POP POP POP DUP2 MSTORE PUSH1 0x20 ADD PUSH1 0x1 DUP3 ADD DUP1 SLOAD PUSH2 0x277 SWAP1 PUSH2 0xAEE JUMP JUMPDEST DUP1 PUSH1 0x1F ADD PUSH1 0x20 DUP1 SWAP2 DIV MUL PUSH1 0x20 ADD PUSH1 0x40 MLOAD SWAP1 DUP2 ADD PUSH1 0x40 MSTORE DUP1 SWAP3 SWAP2 SWAP1 DUP2 DUP2 MSTORE PUSH1 0x20 ADD DUP3 DUP1 SLOAD PUSH2 0x2A3 SWAP1 PUSH2 0xAEE JUMP JUMPDEST DUP1 ISZERO PUSH2 0x2EE JUMPI DUP1 PUSH1 0x1F LT PUSH2 0x2C5 JUMPI PUSH2 0x100 DUP1 DUP4 SLOAD DIV MUL DUP4 MSTORE SWAP2 PUSH1 0x20 ADD SWAP2 PUSH2 0x2EE JUMP JUMPDEST DUP3 ADD SWAP2 SWAP1 PUSH0 MSTORE PUSH1 0x20 PUSH0 KECCAK256 SWAP1 JUMPDEST DUP2 SLOAD DUP2 MSTORE SWAP1 PUSH1 0x1 ADD SWAP1 PUSH1 0x20 ADD DUP1 DUP4 GT PUSH2 0x2D1 JUMPI DUP3 SWAP1 SUB PUSH1 0x1F AND DUP3 ADD SWAP2 JUMPDEST POP POP POP POP POP DUP2 MSTORE PUSH1 0x20 ADD PUSH1 0x2 DUP3 ADD SLOAD DUP2 MSTORE POP POP SWAP1 POP SWAP1 JUMP JUMPDEST PUSH0 PUSH0 DUP3 SWAP1 POP JUMPDEST DUP5 MLOAD DUP2 LT ISZERO PUSH2 0x39E JUMPI PUSH0 DUP6 DUP3 DUP2 MLOAD DUP2 LT PUSH2 0x329 JUMPI PUSH2 0x328 PUSH2 0xB1E JUMP JUMPDEST JUMPDEST PUSH1 0x20 MUL PUSH1 0x20 ADD ADD MLOAD SWAP1 POP DUP5 PUSH1 0x40 MLOAD PUSH1 0x20 ADD PUSH2 0x344 SWAP2 SWAP1 PUSH2 0xB85 JUMP JUMPDEST PUSH1 0x40 MLOAD PUSH1 0x20 DUP2 DUP4 SUB SUB DUP2 MSTORE SWAP1 PUSH1 0x40 MSTORE DUP1 MLOAD SWAP1 PUSH1 0x20 ADD KECCAK256 DUP2 PUSH1 0x40 MLOAD PUSH1 0x20 ADD PUSH2 0x36B SWAP2 SWAP1 PUSH2 0xB85 JUMP JUMPDEST PUSH1 0x40 MLOAD PUSH1 0x20 DUP2 DUP4 SUB SUB DUP2 MSTORE SWAP1 PUSH1 0x40 MSTORE DUP1 MLOAD SWAP1 PUSH1 0x20 ADD KECCAK256 SUB PUSH2 0x390 JUMPI DUP2 SWAP3 POP POP POP PUSH2 0x3A5 JUMP JUMPDEST POP DUP1 DUP1 PUSH1 0x1 ADD SWAP2 POP POP PUSH2 0x30C JUMP JUMPDEST POP PUSH2 0x270F SWAP1 POP JUMPDEST SWAP4 SWAP3 POP POP POP JUMP JUMPDEST PUSH0 PUSH1 0x5 DUP3 SUB PUSH2 0x3BE JUMPI PUSH1 0x1 SWAP1 POP PUSH2 0x3C2 JUMP JUMPDEST PUSH0 SWAP1 POP JUMPDEST SWAP2 SWAP1 POP JUMP JUMPDEST PUSH1 0x40 MLOAD DUP1 PUSH1 0x60 ADD PUSH1 0x40 MSTORE DUP1 DUP5 DUP2 MSTORE PUSH1 0x20 ADD DUP4 DUP2 MSTORE PUSH1 0x20 ADD DUP3 DUP2 MSTORE POP PUSH1 0x2 PUSH0 CALLER PUSH20 0xFFFFFFFFFFFFFFFFFFFFFFFFFFFFFFFFFFFFFFFF AND PUSH20 0xFFFFFFFFFFFFFFFFFFFFFFFFFFFFFFFFFFFFFFFF AND DUP2 MSTORE PUSH1 0x20 ADD SWAP1 DUP2 MSTORE PUSH1 0x20 ADD PUSH0 KECCAK256 PUSH0 DUP3 ADD MLOAD DUP2 PUSH0 ADD SWAP1 DUP2 PUSH2 0x432 SWAP2 SWAP1 PUSH2 0xD3B JUMP JUMPDEST POP PUSH1 0x20 DUP3 ADD MLOAD DUP2 PUSH1 0x1 ADD SWAP1 DUP2 PUSH2 0x448 SWAP2 SWAP1 PUSH2 0xD3B JUMP JUMPDEST POP PUSH1 0x40 DUP3 ADD MLOAD DUP2 PUSH1 0x2 ADD SSTORE SWAP1 POP POP POP POP POP JUMP JUMPDEST PUSH1 0x1 SLOAD DUP2 JUMP JUMPDEST PUSH1 0x60 PUSH0 DUP1 SLOAD PUSH2 0x46F SWAP1 PUSH2 0xAEE JUMP JUMPDEST DUP1 PUSH1 0x1F ADD PUSH1 0x20 DUP1 SWAP2 DIV MUL PUSH1 0x20 ADD PUSH1 0x40 MLOAD SWAP1 DUP2 ADD PUSH1 0x40 MSTORE DUP1 SWAP3 SWAP2 SWAP1 DUP2 DUP2 MSTORE PUSH1 0x20 ADD DUP3 DUP1 SLOAD PUSH2 0x49B SWAP1 PUSH2 0xAEE JUMP JUMPDEST DUP1 ISZERO PUSH2 0x4E6 JUMPI DUP1 PUSH1 0x1F LT PUSH2 0x4BD JUMPI PUSH2 0x100 DUP1 DUP4 SLOAD DIV MUL DUP4 MSTORE SWAP2 PUSH1 0x20 ADD SWAP2 PUSH2 0x4E6 JUMP JUMPDEST DUP3 ADD SWAP2 SWAP1 PUSH0 MSTORE PUSH1 0x20 PUSH0 KECCAK256 SWAP1 JUMPDEST DUP2 SLOAD DUP2 MSTORE SWAP1 PUSH1 0x1 ADD SWAP1 PUSH1 0x20 ADD DUP1 DUP4 GT PUSH2 0x4C9 JUMPI DUP3 SWAP1 SUB PUSH1 0x1F AND DUP3 ADD SWAP2 JUMPDEST POP POP POP POP POP SWAP1 POP SWAP1 JUMP JUMPDEST PUSH1 0x40 MLOAD DUP1 PUSH1 0x60 ADD PUSH1 0x40 MSTORE DUP1 PUSH1 0x60 DUP2 MSTORE PUSH1 0x20 ADD PUSH1 0x60 DUP2 MSTORE PUSH1 0x20 ADD PUSH0 DUP2 MSTORE POP SWAP1 JUMP JUMPDEST PUSH0 PUSH1 0x40 MLOAD SWAP1 POP SWAP1 JUMP JUMPDEST PUSH0 PUSH0 REVERT JUMPDEST PUSH0 PUSH0 REVERT JUMPDEST PUSH0 DUP2 SWAP1 POP SWAP2 SWAP1 POP JUMP JUMPDEST PUSH2 0x533 DUP2 PUSH2 0x521 JUMP JUMPDEST DUP2 EQ PUSH2 0x53D JUMPI PUSH0 PUSH0 REVERT JUMPDEST POP JUMP JUMPDEST PUSH0 DUP2 CALLDATALOAD SWAP1 POP PUSH2 0x54E DUP2 PUSH2 0x52A JUMP JUMPDEST SWAP3 SWAP2 POP POP JUMP JUMPDEST PUSH0 PUSH1 0x20 DUP3 DUP5 SUB SLT ISZERO PUSH2 0x569 JUMPI PUSH2 0x568 PUSH2 0x519 JUMP JUMPDEST JUMPDEST PUSH0 PUSH2 0x576 DUP5 DUP3 DUP6 ADD PUSH2 0x540 JUMP JUMPDEST SWAP2 POP POP SWAP3 SWAP2 POP POP JUMP JUMPDEST PUSH0 DUP2 MLOAD SWAP1 POP SWAP2 SWAP1 POP JUMP JUMPDEST PUSH0 DUP3 DUP3 MSTORE PUSH1 0x20 DUP3 ADD SWAP1 POP SWAP3 SWAP2 POP POP JUMP JUMPDEST DUP3 DUP2 DUP4 MCOPY PUSH0 DUP4 DUP4 ADD MSTORE POP POP POP JUMP JUMPDEST PUSH0 PUSH1 0x1F NOT PUSH1 0x1F DUP4 ADD AND SWAP1 POP SWAP2 SWAP1 POP JUMP JUMPDEST PUSH0 PUSH2 0x5C1 DUP3 PUSH2 0x57F JUMP JUMPDEST PUSH2 0x5CB DUP2 DUP6 PUSH2 0x589 JUMP JUMPDEST SWAP4 POP PUSH2 0x5DB DUP2 DUP6 PUSH1 0x20 DUP7 ADD PUSH2 0x599 JUMP JUMPDEST PUSH2 0x5E4 DUP2 PUSH2 0x5A7 JUMP JUMPDEST DUP5 ADD SWAP2 POP POP SWAP3 SWAP2 POP POP JUMP JUMPDEST PUSH2 0x5F8 DUP2 PUSH2 0x521 JUMP JUMPDEST DUP3 MSTORE POP POP JUMP JUMPDEST PUSH0 PUSH1 0x60 DUP4 ADD PUSH0 DUP4 ADD MLOAD DUP5 DUP3 SUB PUSH0 DUP7 ADD MSTORE PUSH2 0x618 DUP3 DUP3 PUSH2 0x5B7 JUMP JUMPDEST SWAP2 POP POP PUSH1 0x20 DUP4 ADD MLOAD DUP5 DUP3 SUB PUSH1 0x20 DUP7 ADD MSTORE PUSH2 0x632 DUP3 DUP3 PUSH2 0x5B7 JUMP JUMPDEST SWAP2 POP POP PUSH1 0x40 DUP4 ADD MLOAD PUSH2 0x647 PUSH1 0x40 DUP7 ADD DUP3 PUSH2 0x5EF JUMP JUMPDEST POP DUP1 SWAP2 POP POP SWAP3 SWAP2 POP POP JUMP JUMPDEST PUSH0 PUSH1 0x20 DUP3 ADD SWAP1 POP DUP2 DUP2 SUB PUSH0 DUP4 ADD MSTORE PUSH2 0x66A DUP2 DUP5 PUSH2 0x5FE JUMP JUMPDEST SWAP1 POP SWAP3 SWAP2 POP POP JUMP JUMPDEST PUSH0 PUSH0 REVERT JUMPDEST PUSH32 0x4E487B7100000000000000000000000000000000000000000000000000000000 PUSH0 MSTORE PUSH1 0x41 PUSH1 0x4 MSTORE PUSH1 0x24 PUSH0 REVERT JUMPDEST PUSH2 0x6AC DUP3 PUSH2 0x5A7 JUMP JUMPDEST DUP2 ADD DUP2 DUP2 LT PUSH8 0xFFFFFFFFFFFFFFFF DUP3 GT OR ISZERO PUSH2 0x6CB JUMPI PUSH2 0x6CA PUSH2 0x676 JUMP JUMPDEST JUMPDEST DUP1 PUSH1 0x40 MSTORE POP POP POP JUMP JUMPDEST PUSH0 PUSH2 0x6DD PUSH2 0x510 JUMP JUMPDEST SWAP1 POP PUSH2 0x6E9 DUP3 DUP3 PUSH2 0x6A3 JUMP JUMPDEST SWAP2 SWAP1 POP JUMP JUMPDEST PUSH0 PUSH8 0xFFFFFFFFFFFFFFFF DUP3 GT ISZERO PUSH2 0x708 JUMPI PUSH2 0x707 PUSH2 0x676 JUMP JUMPDEST JUMPDEST PUSH1 0x20 DUP3 MUL SWAP1 POP PUSH1 0x20 DUP2 ADD SWAP1 POP SWAP2 SWAP1 POP JUMP JUMPDEST PUSH0 PUSH0 REVERT JUMPDEST PUSH0 PUSH0 REVERT JUMPDEST PUSH0 PUSH8 0xFFFFFFFFFFFFFFFF DUP3 GT ISZERO PUSH2 0x73B JUMPI PUSH2 0x73A PUSH2 0x676 JUMP JUMPDEST JUMPDEST PUSH2 0x744 DUP3 PUSH2 0x5A7 JUMP JUMPDEST SWAP1 POP PUSH1 0x20 DUP2 ADD SWAP1 POP SWAP2 SWAP1 POP JUMP JUMPDEST DUP3 DUP2 DUP4 CALLDATACOPY PUSH0 DUP4 DUP4 ADD MSTORE POP POP POP JUMP JUMPDEST PUSH0 PUSH2 0x771 PUSH2 0x76C DUP5 PUSH2 0x721 JUMP JUMPDEST PUSH2 0x6D4 JUMP JUMPDEST SWAP1 POP DUP3 DUP2 MSTORE PUSH1 0x20 DUP2 ADD DUP5 DUP5 DUP5 ADD GT ISZERO PUSH2 0x78D JUMPI PUSH2 0x78C PUSH2 0x71D JUMP JUMPDEST JUMPDEST PUSH2 0x798 DUP5 DUP3 DUP6 PUSH2 0x751 JUMP JUMPDEST POP SWAP4 SWAP3 POP POP POP JUMP JUMPDEST PUSH0 DUP3 PUSH1 0x1F DUP4 ADD SLT PUSH2 0x7B4 JUMPI PUSH2 0x7B3 PUSH2 0x672 JUMP JUMPDEST JUMPDEST DUP2 CALLDATALOAD PUSH2 0x7C4 DUP5 DUP3 PUSH1 0x20 DUP7 ADD PUSH2 0x75F JUMP JUMPDEST SWAP2 POP POP SWAP3 SWAP2 POP POP JUMP JUMPDEST PUSH0 PUSH2 0x7DF PUSH2 0x7DA DUP5 PUSH2 0x6EE JUMP JUMPDEST PUSH2 0x6D4 JUMP JUMPDEST SWAP1 POP DUP1 DUP4 DUP3 MSTORE PUSH1 0x20 DUP3 ADD SWAP1 POP PUSH1 0x20 DUP5 MUL DUP4 ADD DUP6 DUP2 GT ISZERO PUSH2 0x802 JUMPI PUSH2 0x801 PUSH2 0x719 JUMP JUMPDEST JUMPDEST DUP4 JUMPDEST DUP2 DUP2 LT ISZERO PUSH2 0x849 JUMPI DUP1 CALLDATALOAD PUSH8 0xFFFFFFFFFFFFFFFF DUP2 GT ISZERO PUSH2 0x827 JUMPI PUSH2 0x826 PUSH2 0x672 JUMP JUMPDEST JUMPDEST DUP1 DUP7 ADD PUSH2 0x834 DUP10 DUP3 PUSH2 0x7A0 JUMP JUMPDEST DUP6 MSTORE PUSH1 0x20 DUP6 ADD SWAP5 POP POP POP PUSH1 0x20 DUP2 ADD SWAP1 POP PUSH2 0x804 JUMP JUMPDEST POP POP POP SWAP4 SWAP3 POP POP POP JUMP JUMPDEST PUSH0 DUP3 PUSH1 0x1F DUP4 ADD SLT PUSH2 0x867 JUMPI PUSH2 0x866 PUSH2 0x672 JUMP JUMPDEST JUMPDEST DUP2 CALLDATALOAD PUSH2 0x877 DUP5 DUP3 PUSH1 0x20 DUP7 ADD PUSH2 0x7CD JUMP JUMPDEST SWAP2 POP POP SWAP3 SWAP2 POP POP JUMP JUMPDEST PUSH0 PUSH0 PUSH0 PUSH1 0x60 DUP5 DUP7 SUB SLT ISZERO PUSH2 0x897 JUMPI PUSH2 0x896 PUSH2 0x519 JUMP JUMPDEST JUMPDEST PUSH0 DUP5 ADD CALLDATALOAD PUSH8 0xFFFFFFFFFFFFFFFF DUP2 GT ISZERO PUSH2 0x8B4 JUMPI PUSH2 0x8B3 PUSH2 0x51D JUMP JUMPDEST JUMPDEST PUSH2 0x8C0 DUP7 DUP3 DUP8 ADD PUSH2 0x853 JUMP JUMPDEST SWAP4 POP POP PUSH1 0x20 DUP5 ADD CALLDATALOAD PUSH8 0xFFFFFFFFFFFFFFFF DUP2 GT ISZERO PUSH2 0x8E1 JUMPI PUSH2 0x8E0 PUSH2 0x51D JUMP JUMPDEST JUMPDEST PUSH2 0x8ED DUP7 DUP3 DUP8 ADD PUSH2 0x7A0 JUMP JUMPDEST SWAP3 POP POP PUSH1 0x40 PUSH2 0x8FE DUP7 DUP3 DUP8 ADD PUSH2 0x540 JUMP JUMPDEST SWAP2 POP POP SWAP3 POP SWAP3 POP SWAP3 JUMP JUMPDEST PUSH2 0x911 DUP2 PUSH2 0x521 JUMP JUMPDEST DUP3 MSTORE POP POP JUMP JUMPDEST PUSH0 PUSH1 0x20 DUP3 ADD SWAP1 POP PUSH2 0x92A PUSH0 DUP4 ADD DUP5 PUSH2 0x908 JUMP JUMPDEST SWAP3 SWAP2 POP POP JUMP JUMPDEST PUSH0 DUP2 ISZERO ISZERO SWAP1 POP SWAP2 SWAP1 POP JUMP JUMPDEST PUSH2 0x944 DUP2 PUSH2 0x930 JUMP JUMPDEST DUP3 MSTORE POP POP JUMP JUMPDEST PUSH0 PUSH1 0x20 DUP3 ADD SWAP1 POP PUSH2 0x95D PUSH0 DUP4 ADD DUP5 PUSH2 0x93B JUMP JUMPDEST SWAP3 SWAP2 POP POP JUMP JUMPDEST PUSH0 PUSH0 PUSH0 PUSH1 0x60 DUP5 DUP7 SUB SLT ISZERO PUSH2 0x97A JUMPI PUSH2 0x979 PUSH2 0x519 JUMP JUMPDEST JUMPDEST PUSH0 DUP5 ADD CALLDATALOAD PUSH8 0xFFFFFFFFFFFFFFFF DUP2 GT ISZERO PUSH2 0x997 JUMPI PUSH2 0x996 PUSH2 0x51D JUMP JUMPDEST JUMPDEST PUSH2 0x9A3 DUP7 DUP3 DUP8 ADD PUSH2 0x7A0 JUMP JUMPDEST SWAP4 POP POP PUSH1 0x20 DUP5 ADD CALLDATALOAD PUSH8 0xFFFFFFFFFFFFFFFF DUP2 GT ISZERO PUSH2 0x9C4 JUMPI PUSH2 0x9C3 PUSH2 0x51D JUMP JUMPDEST JUMPDEST PUSH2 0x9D0 DUP7 DUP3 DUP8 ADD PUSH2 0x7A0 JUMP JUMPDEST SWAP3 POP POP PUSH1 0x40 PUSH2 0x9E1 DUP7 DUP3 DUP8 ADD PUSH2 0x540 JUMP JUMPDEST SWAP2 POP POP SWAP3 POP SWAP3 POP SWAP3 JUMP JUMPDEST PUSH0 DUP3 DUP3 MSTORE PUSH1 0x20 DUP3 ADD SWAP1 POP SWAP3 SWAP2 POP POP JUMP JUMPDEST PUSH0 PUSH2 0xA05 DUP3 PUSH2 0x57F JUMP JUMPDEST PUSH2 0xA0F DUP2 DUP6 PUSH2 0x9EB JUMP JUMPDEST SWAP4 POP PUSH2 0xA1F DUP2 DUP6 PUSH1 0x20 DUP7 ADD PUSH2 0x599 JUMP JUMPDEST PUSH2 0xA28 DUP2 PUSH2 0x5A7 JUMP JUMPDEST DUP5 ADD SWAP2 POP POP SWAP3 SWAP2 POP POP JUMP JUMPDEST PUSH0 PUSH1 0x20 DUP3 ADD SWAP1 POP DUP2 DUP2 SUB PUSH0 DUP4 ADD MSTORE PUSH2 0xA4B DUP2 DUP5 PUSH2 0x9FB JUMP JUMPDEST SWAP1 POP SWAP3 SWAP2 POP POP JUMP JUMPDEST PUSH32 0x4E487B7100000000000000000000000000000000000000000000000000000000 PUSH0 MSTORE PUSH1 0x11 PUSH1 0x4 MSTORE PUSH1 0x24 PUSH0 REVERT JUMPDEST PUSH0 PUSH2 0xA8A DUP3 PUSH2 0x521 JUMP JUMPDEST SWAP2 POP PUSH2 0xA95 DUP4 PUSH2 0x521 JUMP JUMPDEST SWAP3 POP DUP3 DUP3 MUL PUSH2 0xAA3 DUP2 PUSH2 0x521 JUMP JUMPDEST SWAP2 POP DUP3 DUP3 DIV DUP5 EQ DUP4 ISZERO OR PUSH2 0xABA JUMPI PUSH2 0xAB9 PUSH2 0xA53 JUMP JUMPDEST JUMPDEST POP SWAP3 SWAP2 POP POP JUMP JUMPDEST PUSH32 0x4E487B7100000000000000000000000000000000000000000000000000000000 PUSH0 MSTORE PUSH1 0x22 PUSH1 0x4 MSTORE PUSH1 0x24 PUSH0 REVERT JUMPDEST PUSH0 PUSH1 0x2 DUP3 DIV SWAP1 POP PUSH1 0x1 DUP3 AND DUP1 PUSH2 0xB05 JUMPI PUSH1 0x7F DUP3 AND SWAP2 POP JUMPDEST PUSH1 0x20 DUP3 LT DUP2 SUB PUSH2 0xB18 JUMPI PUSH2 0xB17 PUSH2 0xAC1 JUMP JUMPDEST JUMPDEST POP SWAP2 SWAP1 POP JUMP JUMPDEST PUSH32 0x4E487B7100000000000000000000000000000000000000000000000000000000 PUSH0 MSTORE PUSH1 0x32 PUSH1 0x4 MSTORE PUSH1 0x24 PUSH0 REVERT JUMPDEST PUSH0 DUP2 SWAP1 POP SWAP3 SWAP2 POP POP JUMP JUMPDEST PUSH0 PUSH2 0xB5F DUP3 PUSH2 0x57F JUMP JUMPDEST PUSH2 0xB69 DUP2 DUP6 PUSH2 0xB4B JUMP JUMPDEST SWAP4 POP PUSH2 0xB79 DUP2 DUP6 PUSH1 0x20 DUP7 ADD PUSH2 0x599 JUMP JUMPDEST DUP1 DUP5 ADD SWAP2 POP POP SWAP3 SWAP2 POP POP JUMP JUMPDEST PUSH0 PUSH2 0xB90 DUP3 DUP5 PUSH2 0xB55 JUMP JUMPDEST SWAP2 POP DUP2 SWAP1 POP SWAP3 SWAP2 POP POP JUMP JUMPDEST PUSH0 DUP2 SWAP1 POP DUP2 PUSH0 MSTORE PUSH1 0x20 PUSH0 KECCAK256 SWAP1 POP SWAP2 SWAP1 POP JUMP JUMPDEST PUSH0 PUSH1 0x20 PUSH1 0x1F DUP4 ADD DIV SWAP1 POP SWAP2 SWAP1 POP JUMP JUMPDEST PUSH0 DUP3 DUP3 SHL SWAP1 POP SWAP3 SWAP2 POP POP JUMP JUMPDEST PUSH0 PUSH1 0x8 DUP4 MUL PUSH2 0xBF7 PUSH32 0xFFFFFFFFFFFFFFFFFFFFFFFFFFFFFFFFFFFFFFFFFFFFFFFFFFFFFFFFFFFFFFFF DUP3 PUSH2 0xBBC JUMP JUMPDEST PUSH2 0xC01 DUP7 DUP4 PUSH2 0xBBC JUMP JUMPDEST SWAP6 POP DUP1 NOT DUP5 AND SWAP4 POP DUP1 DUP7 AND DUP5 OR SWAP3 POP POP POP SWAP4 SWAP3 POP POP POP JUMP JUMPDEST PUSH0 DUP2 SWAP1 POP SWAP2 SWAP1 POP JUMP JUMPDEST PUSH0 PUSH2 0xC3C PUSH2 0xC37 PUSH2 0xC32 DUP5 PUSH2 0x521 JUMP JUMPDEST PUSH2 0xC19 JUMP JUMPDEST PUSH2 0x521 JUMP JUMPDEST SWAP1 POP SWAP2 SWAP1 POP JUMP JUMPDEST PUSH0 DUP2 SWAP1 POP SWAP2 SWAP1 POP JUMP JUMPDEST PUSH2 0xC55 DUP4 PUSH2 0xC22 JUMP JUMPDEST PUSH2 0xC69 PUSH2 0xC61 DUP3 PUSH2 0xC43 JUMP JUMPDEST DUP5 DUP5 SLOAD PUSH2 0xBC8 JUMP JUMPDEST DUP3 SSTORE POP POP POP POP JUMP JUMPDEST PUSH0 PUSH0 SWAP1 POP SWAP1 JUMP JUMPDEST PUSH2 0xC80 PUSH2 0xC71 JUMP JUMPDEST PUSH2 0xC8B DUP2 DUP5 DUP5 PUSH2 0xC4C JUMP JUMPDEST POP POP POP JUMP JUMPDEST JUMPDEST DUP2 DUP2 LT ISZERO PUSH2 0xCAE JUMPI PUSH2 0xCA3 PUSH0 DUP3 PUSH2 0xC78 JUMP JUMPDEST PUSH1 0x1 DUP2 ADD SWAP1 POP PUSH2 0xC91 JUMP JUMPDEST POP POP JUMP JUMPDEST PUSH1 0x1F DUP3 GT ISZERO PUSH2 0xCF3 JUMPI PUSH2 0xCC4 DUP2 PUSH2 0xB9B JUMP JUMPDEST PUSH2 0xCCD DUP5 PUSH2 0xBAD JUMP JUMPDEST DUP2 ADD PUSH1 0x20 DUP6 LT ISZERO PUSH2 0xCDC JUMPI DUP2 SWAP1 POP JUMPDEST PUSH2 0xCF0 PUSH2 0xCE8 DUP6 PUSH2 0xBAD JUMP JUMPDEST DUP4 ADD DUP3 PUSH2 0xC90 JUMP JUMPDEST POP POP JUMPDEST POP POP POP JUMP JUMPDEST PUSH0 DUP3 DUP3 SHR SWAP1 POP SWAP3 SWAP2 POP POP JUMP JUMPDEST PUSH0 PUSH2 0xD13 PUSH0 NOT DUP5 PUSH1 0x8 MUL PUSH2 0xCF8 JUMP JUMPDEST NOT DUP1 DUP4 AND SWAP2 POP POP SWAP3 SWAP2 POP POP JUMP JUMPDEST PUSH0 PUSH2 0xD2B DUP4 DUP4 PUSH2 0xD04 JUMP JUMPDEST SWAP2 POP DUP3 PUSH1 0x2 MUL DUP3 OR SWAP1 POP SWAP3 SWAP2 POP POP JUMP JUMPDEST PUSH2 0xD44 DUP3 PUSH2 0x57F JUMP JUMPDEST PUSH8 0xFFFFFFFFFFFFFFFF DUP2 GT ISZERO PUSH2 0xD5D JUMPI PUSH2 0xD5C PUSH2 0x676 JUMP JUMPDEST JUMPDEST PUSH2 0xD67 DUP3 SLOAD PUSH2 0xAEE JUMP JUMPDEST PUSH2 0xD72 DUP3 DUP3 DUP6 PUSH2 0xCB2 JUMP JUMPDEST PUSH0 PUSH1 0x20 SWAP1 POP PUSH1 0x1F DUP4 GT PUSH1 0x1 DUP2 EQ PUSH2 0xDA3 JUMPI PUSH0 DUP5 ISZERO PUSH2 0xD91 JUMPI DUP3 DUP8 ADD MLOAD SWAP1 POP JUMPDEST PUSH2 0xD9B DUP6 DUP3 PUSH2 0xD20 JUMP JUMPDEST DUP7 SSTORE POP PUSH2 0xE02 JUMP JUMPDEST PUSH1 0x1F NOT DUP5 AND PUSH2 0xDB1 DUP7 PUSH2 0xB9B JUMP JUMPDEST PUSH0 JUMPDEST DUP3 DUP2 LT ISZERO PUSH2 0xDD8 JUMPI DUP5 DUP10 ADD MLOAD DUP3 SSTORE PUSH1 0x1 DUP3 ADD SWAP2 POP PUSH1 0x20 DUP6 ADD SWAP5 POP PUSH1 0x20 DUP2 ADD SWAP1 POP PUSH2 0xDB3 JUMP JUMPDEST DUP7 DUP4 LT ISZERO PUSH2 0xDF5 JUMPI DUP5 DUP10 ADD MLOAD PUSH2 0xDF1 PUSH1 0x1F DUP10 AND DUP3 PUSH2 0xD04 JUMP JUMPDEST DUP4 SSTORE POP JUMPDEST PUSH1 0x1 PUSH1 0x2 DUP9 MUL ADD DUP9 SSTORE POP POP POP JUMPDEST POP POP POP POP POP POP JUMP INVALID LOG2 PUSH5 0x6970667358 0x22 SLT KECCAK256 PUSH12 0xBEBE98AE2DE03CA2868F74A6 0xB5 LT 0xCC 0x4E ISZERO EXTCODEHASH TIMESTAMP 0xD9 PUSH23 0xF1B1DA144A5B92541E2964736F6C634300081E00330000 "
		},
		"gasEstimates": {
			"creation": {
				"codeDepositCost": "729600",
				"executionCost": "infinite",
				"totalCost": "infinite"
			},
			"external": {
				"addCoin(string,string,uint256)": "infinite",
				"findCoinIndex(string[],string,uint256)": "infinite",
				"getMyCoin()": "infinite",
				"getMyCoinName()": "infinite",
				"guessNumber(uint256)": "633",
				"multiplyBalance(uint256)": "infinite",
				"myBalance()": "2469"
			}
		},
		"methodIdentifiers": {
			"addCoin(string,string,uint256)": "c55636b3",
			"findCoinIndex(string[],string,uint256)": "8a9424b7",
			"getMyCoin()": "4593e223",
			"getMyCoinName()": "d0f7df40",
			"guessNumber(uint256)": "b438d018",
			"multiplyBalance(uint256)": "0ac543de",
			"myBalance()": "c9116b69"
		}
	},
	"abi": [
		{
			"inputs": [
				{
					"internalType": "string",
					"name": "_name",
					"type": "string"
				},
				{
					"internalType": "string",
					"name": "_symbol",
					"type": "string"
				},
				{
					"internalType": "uint256",
					"name": "_supply",
					"type": "uint256"
				}
			],
			"name": "addCoin",
			"outputs": [],
			"stateMutability": "nonpayable",
			"type": "function"
		},
		{
			"inputs": [
				{
					"internalType": "string[]",
					"name": "_myCoins",
					"type": "string[]"
				},
				{
					"internalType": "string",
					"name": "_find",
					"type": "string"
				},
				{
					"internalType": "uint256",
					"name": "_startFrom",
					"type": "uint256"
				}
			],
			"name": "findCoinIndex",
			"outputs": [
				{
					"internalType": "uint256",
					"name": "",
					"type": "uint256"
				}
			],
			"stateMutability": "pure",
			"type": "function"
		},
		{
			"inputs": [],
			"name": "getMyCoin",
			"outputs": [
				{
					"components": [
						{
							"internalType": "string",
							"name": "name",
							"type": "string"
						},
						{
							"internalType": "string",
							"name": "symbol",
							"type": "string"
						},
						{
							"internalType": "uint256",
							"name": "supply",
							"type": "uint256"
						}
					],
					"internalType": "struct BasicFunctions.Coin",
					"name": "",
					"type": "tuple"
				}
			],
			"stateMutability": "view",
			"type": "function"
		},
		{
			"inputs": [],
			"name": "getMyCoinName",
			"outputs": [
				{
					"internalType": "string",
					"name": "",
					"type": "string"
				}
			],
			"stateMutability": "view",
			"type": "function"
		},
		{
			"inputs": [
				{
					"internalType": "uint256",
					"name": "_guess",
					"type": "uint256"
				}
			],
			"name": "guessNumber",
			"outputs": [
				{
					"internalType": "bool",
					"name": "",
					"type": "bool"
				}
			],
			"stateMutability": "pure",
			"type": "function"
		},
		{
			"inputs": [
				{
					"internalType": "uint256",
					"name": "_multiplier",
					"type": "uint256"
				}
			],
			"name": "multiplyBalance",
			"outputs": [],
			"stateMutability": "nonpayable",
			"type": "function"
		},
		{
			"inputs": [],
			"name": "myBalance",
			"outputs": [
				{
					"internalType": "uint256",
					"name": "",
					"type": "uint256"
				}
			],
			"stateMutability": "view",
			"type": "function"
		}
	]
}